{"abi":[{"inputs":[{"internalType":"uint256","name":"minimum","type":"uint256"},{"internalType":"string","name":"name","type":"string"},{"internalType":"string","name":"descrip","type":"string"},{"internalType":"string","name":"image","type":"string"}],"name":"createProject","outputs":[],"stateMutability":"nonpayable","type":"function"},{"inputs":[{"internalType":"uint256","name":"","type":"uint256"}],"name":"deployedProjects","outputs":[{"internalType":"address payable","name":"","type":"address"}],"stateMutability":"view","type":"function"},{"inputs":[],"name":"getDeployedProjects","outputs":[{"internalType":"address payable[]","name":"","type":"address[]"}],"stateMutability":"view","type":"function"}],"devdoc":{"kind":"dev","methods":{},"version":1},"evm":{"assembly":"    /* \"Project.sol\":58:523  contract ProjectFactory {... */\n  mstore(0x40, 0x80)\n  callvalue\n  dup1\n  iszero\n  tag_1\n  jumpi\n  0x00\n  dup1\n  revert\ntag_1:\n  pop\n  dataSize(sub_0)\n  dup1\n  dataOffset(sub_0)\n  0x00\n  codecopy\n  0x00\n  return\nstop\n\nsub_0: assembly {\n        /* \"Project.sol\":58:523  contract ProjectFactory {... */\n      mstore(0x40, 0x80)\n      callvalue\n      dup1\n      iszero\n      tag_1\n      jumpi\n      0x00\n      dup1\n      revert\n    tag_1:\n      pop\n      jumpi(tag_2, lt(calldatasize, 0x04))\n      shr(0xe0, calldataload(0x00))\n      dup1\n      0x5822a6c7\n      eq\n      tag_3\n      jumpi\n      dup1\n      0x7ac3886e\n      eq\n      tag_4\n      jumpi\n      dup1\n      0x9ec6deaf\n      eq\n      tag_5\n      jumpi\n    tag_2:\n      0x00\n      dup1\n      revert\n        /* \"Project.sol\":136:397  function createProject(uint minimum, string memory name, string memory descrip, string memory image) public {... */\n    tag_3:\n      tag_6\n      0x04\n      dup1\n      calldatasize\n      sub\n      dup2\n      add\n      swap1\n      tag_7\n      swap2\n      swap1\n      tag_8\n      jump\t// in\n    tag_7:\n      tag_9\n      jump\t// in\n    tag_6:\n      stop\n        /* \"Project.sol\":403:521  function getDeployedProjects() public view returns (address payable[] memory) {... */\n    tag_4:\n      tag_10\n      tag_11\n      jump\t// in\n    tag_10:\n      mload(0x40)\n      tag_12\n      swap2\n      swap1\n      tag_13\n      jump\t// in\n    tag_12:\n      mload(0x40)\n      dup1\n      swap2\n      sub\n      swap1\n      return\n        /* \"Project.sol\":88:129  address payable[] public deployedProjects */\n    tag_5:\n      tag_14\n      0x04\n      dup1\n      calldatasize\n      sub\n      dup2\n      add\n      swap1\n      tag_15\n      swap2\n      swap1\n      tag_16\n      jump\t// in\n    tag_15:\n      tag_17\n      jump\t// in\n    tag_14:\n      mload(0x40)\n      tag_18\n      swap2\n      swap1\n      tag_19\n      jump\t// in\n    tag_18:\n      mload(0x40)\n      dup1\n      swap2\n      sub\n      swap1\n      return\n        /* \"Project.sol\":136:397  function createProject(uint minimum, string memory name, string memory descrip, string memory image) public {... */\n    tag_9:\n        /* \"Project.sol\":254:272  address newProject */\n      0x00\n        /* \"Project.sol\":295:302  minimum */\n      dup5\n        /* \"Project.sol\":304:314  msg.sender */\n      caller\n        /* \"Project.sol\":316:320  name */\n      dup6\n        /* \"Project.sol\":322:329  descrip */\n      dup6\n        /* \"Project.sol\":331:336  image */\n      dup6\n        /* \"Project.sol\":283:337  new Project(minimum, msg.sender, name, descrip, image) */\n      mload(0x40)\n      tag_21\n      swap1\n      tag_22\n      jump\t// in\n    tag_21:\n      tag_23\n      swap6\n      swap5\n      swap4\n      swap3\n      swap2\n      swap1\n      tag_24\n      jump\t// in\n    tag_23:\n      mload(0x40)\n      dup1\n      swap2\n      sub\n      swap1\n      0x00\n      create\n      dup1\n      iszero\n      dup1\n      iszero\n      tag_25\n      jumpi\n      returndatasize\n      0x00\n      dup1\n      returndatacopy\n      revert(0x00, returndatasize)\n    tag_25:\n      pop\n        /* \"Project.sol\":254:338  address newProject = address(new Project(minimum, msg.sender, name, descrip, image)) */\n      swap1\n      pop\n        /* \"Project.sol\":348:364  deployedProjects */\n      0x00\n        /* \"Project.sol\":378:388  newProject */\n      dup2\n        /* \"Project.sol\":348:390  deployedProjects.push(payable(newProject)) */\n      swap1\n      dup1\n      0x01\n      dup2\n      sload\n      add\n      dup1\n      dup3\n      sstore\n      dup1\n      swap2\n      pop\n      pop\n      0x01\n      swap1\n      sub\n      swap1\n      0x00\n      mstore\n      keccak256(0x00, 0x20)\n      add\n      0x00\n      swap1\n      swap2\n      swap1\n      swap2\n      swap1\n      swap2\n      0x0100\n      exp\n      dup2\n      sload\n      dup2\n      0xffffffffffffffffffffffffffffffffffffffff\n      mul\n      not\n      and\n      swap1\n      dup4\n      0xffffffffffffffffffffffffffffffffffffffff\n      and\n      mul\n      or\n      swap1\n      sstore\n      pop\n        /* \"Project.sol\":244:397  {... */\n      pop\n        /* \"Project.sol\":136:397  function createProject(uint minimum, string memory name, string memory descrip, string memory image) public {... */\n      pop\n      pop\n      pop\n      pop\n      jump\t// out\n        /* \"Project.sol\":403:521  function getDeployedProjects() public view returns (address payable[] memory) {... */\n    tag_11:\n        /* \"Project.sol\":455:479  address payable[] memory */\n      0x60\n        /* \"Project.sol\":498:514  deployedProjects */\n      0x00\n        /* \"Project.sol\":491:514  return deployedProjects */\n      dup1\n      sload\n      dup1\n      0x20\n      mul\n      0x20\n      add\n      mload(0x40)\n      swap1\n      dup2\n      add\n      0x40\n      mstore\n      dup1\n      swap3\n      swap2\n      swap1\n      dup2\n      dup2\n      mstore\n      0x20\n      add\n      dup3\n      dup1\n      sload\n      dup1\n      iszero\n      tag_28\n      jumpi\n      0x20\n      mul\n      dup3\n      add\n      swap2\n      swap1\n      0x00\n      mstore\n      keccak256(0x00, 0x20)\n      swap1\n    tag_29:\n      dup2\n      0x00\n      swap1\n      sload\n      swap1\n      0x0100\n      exp\n      swap1\n      div\n      0xffffffffffffffffffffffffffffffffffffffff\n      and\n      0xffffffffffffffffffffffffffffffffffffffff\n      and\n      dup2\n      mstore\n      0x20\n      add\n      swap1\n      0x01\n      add\n      swap1\n      dup1\n      dup4\n      gt\n      tag_29\n      jumpi\n    tag_28:\n      pop\n      pop\n      pop\n      pop\n      pop\n      swap1\n      pop\n        /* \"Project.sol\":403:521  function getDeployedProjects() public view returns (address payable[] memory) {... */\n      swap1\n      jump\t// out\n        /* \"Project.sol\":88:129  address payable[] public deployedProjects */\n    tag_17:\n      0x00\n      dup2\n      dup2\n      sload\n      dup2\n      lt\n      tag_30\n      jumpi\n      0x00\n      dup1\n      revert\n    tag_30:\n      swap1\n      0x00\n      mstore\n      keccak256(0x00, 0x20)\n      add\n      0x00\n      swap2\n      pop\n      sload\n      swap1\n      0x0100\n      exp\n      swap1\n      div\n      0xffffffffffffffffffffffffffffffffffffffff\n      and\n      dup2\n      jump\t// out\n    tag_22:\n      dataSize(sub_0)\n      dup1\n      dataOffset(sub_0)\n      dup4\n      codecopy\n      add\n      swap1\n      jump\t// out\n        /* \"#utility.yul\":7:82   */\n    tag_32:\n        /* \"#utility.yul\":40:46   */\n      0x00\n        /* \"#utility.yul\":73:75   */\n      0x40\n        /* \"#utility.yul\":67:76   */\n      mload\n        /* \"#utility.yul\":57:76   */\n      swap1\n      pop\n        /* \"#utility.yul\":7:82   */\n      swap1\n      jump\t// out\n        /* \"#utility.yul\":88:205   */\n    tag_33:\n        /* \"#utility.yul\":197:198   */\n      0x00\n        /* \"#utility.yul\":194:195   */\n      dup1\n        /* \"#utility.yul\":187:199   */\n      revert\n        /* \"#utility.yul\":211:328   */\n    tag_34:\n        /* \"#utility.yul\":320:321   */\n      0x00\n        /* \"#utility.yul\":317:318   */\n      dup1\n        /* \"#utility.yul\":310:322   */\n      revert\n        /* \"#utility.yul\":334:411   */\n    tag_35:\n        /* \"#utility.yul\":371:378   */\n      0x00\n        /* \"#utility.yul\":400:405   */\n      dup2\n        /* \"#utility.yul\":389:405   */\n      swap1\n      pop\n        /* \"#utility.yul\":334:411   */\n      swap2\n      swap1\n      pop\n      jump\t// out\n        /* \"#utility.yul\":417:539   */\n    tag_36:\n        /* \"#utility.yul\":490:514   */\n      tag_71\n        /* \"#utility.yul\":508:513   */\n      dup2\n        /* \"#utility.yul\":490:514   */\n      tag_35\n      jump\t// in\n    tag_71:\n        /* \"#utility.yul\":483:488   */\n      dup2\n        /* \"#utility.yul\":480:515   */\n      eq\n        /* \"#utility.yul\":470:533   */\n      tag_72\n      jumpi\n        /* \"#utility.yul\":529:530   */\n      0x00\n        /* \"#utility.yul\":526:527   */\n      dup1\n        /* \"#utility.yul\":519:531   */\n      revert\n        /* \"#utility.yul\":470:533   */\n    tag_72:\n        /* \"#utility.yul\":417:539   */\n      pop\n      jump\t// out\n        /* \"#utility.yul\":545:684   */\n    tag_37:\n        /* \"#utility.yul\":591:596   */\n      0x00\n        /* \"#utility.yul\":629:635   */\n      dup2\n        /* \"#utility.yul\":616:636   */\n      calldataload\n        /* \"#utility.yul\":607:636   */\n      swap1\n      pop\n        /* \"#utility.yul\":645:678   */\n      tag_74\n        /* \"#utility.yul\":672:677   */\n      dup2\n        /* \"#utility.yul\":645:678   */\n      tag_36\n      jump\t// in\n    tag_74:\n        /* \"#utility.yul\":545:684   */\n      swap3\n      swap2\n      pop\n      pop\n      jump\t// out\n        /* \"#utility.yul\":690:807   */\n    tag_38:\n        /* \"#utility.yul\":799:800   */\n      0x00\n        /* \"#utility.yul\":796:797   */\n      dup1\n        /* \"#utility.yul\":789:801   */\n      revert\n        /* \"#utility.yul\":813:930   */\n    tag_39:\n        /* \"#utility.yul\":922:923   */\n      0x00\n        /* \"#utility.yul\":919:920   */\n      dup1\n        /* \"#utility.yul\":912:924   */\n      revert\n        /* \"#utility.yul\":936:1038   */\n    tag_40:\n        /* \"#utility.yul\":977:983   */\n      0x00\n        /* \"#utility.yul\":1028:1030   */\n      0x1f\n        /* \"#utility.yul\":1024:1031   */\n      not\n        /* \"#utility.yul\":1019:1021   */\n      0x1f\n        /* \"#utility.yul\":1012:1017   */\n      dup4\n        /* \"#utility.yul\":1008:1022   */\n      add\n        /* \"#utility.yul\":1004:1032   */\n      and\n        /* \"#utility.yul\":994:1032   */\n      swap1\n      pop\n        /* \"#utility.yul\":936:1038   */\n      swap2\n      swap1\n      pop\n      jump\t// out\n        /* \"#utility.yul\":1044:1224   */\n    tag_41:\n        /* \"#utility.yul\":1092:1169   */\n      0x4e487b7100000000000000000000000000000000000000000000000000000000\n        /* \"#utility.yul\":1089:1090   */\n      0x00\n        /* \"#utility.yul\":1082:1170   */\n      mstore\n        /* \"#utility.yul\":1189:1193   */\n      0x41\n        /* \"#utility.yul\":1186:1187   */\n      0x04\n        /* \"#utility.yul\":1179:1194   */\n      mstore\n        /* \"#utility.yul\":1213:1217   */\n      0x24\n        /* \"#utility.yul\":1210:1211   */\n      0x00\n        /* \"#utility.yul\":1203:1218   */\n      revert\n        /* \"#utility.yul\":1230:1511   */\n    tag_42:\n        /* \"#utility.yul\":1313:1340   */\n      tag_80\n        /* \"#utility.yul\":1335:1339   */\n      dup3\n        /* \"#utility.yul\":1313:1340   */\n      tag_40\n      jump\t// in\n    tag_80:\n        /* \"#utility.yul\":1305:1311   */\n      dup2\n        /* \"#utility.yul\":1301:1341   */\n      add\n        /* \"#utility.yul\":1443:1449   */\n      dup2\n        /* \"#utility.yul\":1431:1441   */\n      dup2\n        /* \"#utility.yul\":1428:1450   */\n      lt\n        /* \"#utility.yul\":1407:1425   */\n      0xffffffffffffffff\n        /* \"#utility.yul\":1395:1405   */\n      dup3\n        /* \"#utility.yul\":1392:1426   */\n      gt\n        /* \"#utility.yul\":1389:1451   */\n      or\n        /* \"#utility.yul\":1386:1474   */\n      iszero\n      tag_81\n      jumpi\n        /* \"#utility.yul\":1454:1472   */\n      tag_82\n      tag_41\n      jump\t// in\n    tag_82:\n        /* \"#utility.yul\":1386:1474   */\n    tag_81:\n        /* \"#utility.yul\":1494:1504   */\n      dup1\n        /* \"#utility.yul\":1490:1492   */\n      0x40\n        /* \"#utility.yul\":1483:1505   */\n      mstore\n        /* \"#utility.yul\":1273:1511   */\n      pop\n        /* \"#utility.yul\":1230:1511   */\n      pop\n      pop\n      jump\t// out\n        /* \"#utility.yul\":1517:1646   */\n    tag_43:\n        /* \"#utility.yul\":1551:1557   */\n      0x00\n        /* \"#utility.yul\":1578:1598   */\n      tag_84\n      tag_32\n      jump\t// in\n    tag_84:\n        /* \"#utility.yul\":1568:1598   */\n      swap1\n      pop\n        /* \"#utility.yul\":1607:1640   */\n      tag_85\n        /* \"#utility.yul\":1635:1639   */\n      dup3\n        /* \"#utility.yul\":1627:1633   */\n      dup3\n        /* \"#utility.yul\":1607:1640   */\n      tag_42\n      jump\t// in\n    tag_85:\n        /* \"#utility.yul\":1517:1646   */\n      swap2\n      swap1\n      pop\n      jump\t// out\n        /* \"#utility.yul\":1652:1960   */\n    tag_44:\n        /* \"#utility.yul\":1714:1718   */\n      0x00\n        /* \"#utility.yul\":1804:1822   */\n      0xffffffffffffffff\n        /* \"#utility.yul\":1796:1802   */\n      dup3\n        /* \"#utility.yul\":1793:1823   */\n      gt\n        /* \"#utility.yul\":1790:1846   */\n      iszero\n      tag_87\n      jumpi\n        /* \"#utility.yul\":1826:1844   */\n      tag_88\n      tag_41\n      jump\t// in\n    tag_88:\n        /* \"#utility.yul\":1790:1846   */\n    tag_87:\n        /* \"#utility.yul\":1864:1893   */\n      tag_89\n        /* \"#utility.yul\":1886:1892   */\n      dup3\n        /* \"#utility.yul\":1864:1893   */\n      tag_40\n      jump\t// in\n    tag_89:\n        /* \"#utility.yul\":1856:1893   */\n      swap1\n      pop\n        /* \"#utility.yul\":1948:1952   */\n      0x20\n        /* \"#utility.yul\":1942:1946   */\n      dup2\n        /* \"#utility.yul\":1938:1953   */\n      add\n        /* \"#utility.yul\":1930:1953   */\n      swap1\n      pop\n        /* \"#utility.yul\":1652:1960   */\n      swap2\n      swap1\n      pop\n      jump\t// out\n        /* \"#utility.yul\":1966:2120   */\n    tag_45:\n        /* \"#utility.yul\":2050:2056   */\n      dup3\n        /* \"#utility.yul\":2045:2048   */\n      dup2\n        /* \"#utility.yul\":2040:2043   */\n      dup4\n        /* \"#utility.yul\":2027:2057   */\n      calldatacopy\n        /* \"#utility.yul\":2112:2113   */\n      0x00\n        /* \"#utility.yul\":2103:2109   */\n      dup4\n        /* \"#utility.yul\":2098:2101   */\n      dup4\n        /* \"#utility.yul\":2094:2110   */\n      add\n        /* \"#utility.yul\":2087:2114   */\n      mstore\n        /* \"#utility.yul\":1966:2120   */\n      pop\n      pop\n      pop\n      jump\t// out\n        /* \"#utility.yul\":2126:2538   */\n    tag_46:\n        /* \"#utility.yul\":2204:2209   */\n      0x00\n        /* \"#utility.yul\":2229:2295   */\n      tag_92\n        /* \"#utility.yul\":2245:2294   */\n      tag_93\n        /* \"#utility.yul\":2287:2293   */\n      dup5\n        /* \"#utility.yul\":2245:2294   */\n      tag_44\n      jump\t// in\n    tag_93:\n        /* \"#utility.yul\":2229:2295   */\n      tag_43\n      jump\t// in\n    tag_92:\n        /* \"#utility.yul\":2220:2295   */\n      swap1\n      pop\n        /* \"#utility.yul\":2318:2324   */\n      dup3\n        /* \"#utility.yul\":2311:2316   */\n      dup2\n        /* \"#utility.yul\":2304:2325   */\n      mstore\n        /* \"#utility.yul\":2356:2360   */\n      0x20\n        /* \"#utility.yul\":2349:2354   */\n      dup2\n        /* \"#utility.yul\":2345:2361   */\n      add\n        /* \"#utility.yul\":2394:2397   */\n      dup5\n        /* \"#utility.yul\":2385:2391   */\n      dup5\n        /* \"#utility.yul\":2380:2383   */\n      dup5\n        /* \"#utility.yul\":2376:2392   */\n      add\n        /* \"#utility.yul\":2373:2398   */\n      gt\n        /* \"#utility.yul\":2370:2482   */\n      iszero\n      tag_94\n      jumpi\n        /* \"#utility.yul\":2401:2480   */\n      tag_95\n      tag_39\n      jump\t// in\n    tag_95:\n        /* \"#utility.yul\":2370:2482   */\n    tag_94:\n        /* \"#utility.yul\":2491:2532   */\n      tag_96\n        /* \"#utility.yul\":2525:2531   */\n      dup5\n        /* \"#utility.yul\":2520:2523   */\n      dup3\n        /* \"#utility.yul\":2515:2518   */\n      dup6\n        /* \"#utility.yul\":2491:2532   */\n      tag_45\n      jump\t// in\n    tag_96:\n        /* \"#utility.yul\":2210:2538   */\n      pop\n        /* \"#utility.yul\":2126:2538   */\n      swap4\n      swap3\n      pop\n      pop\n      pop\n      jump\t// out\n        /* \"#utility.yul\":2558:2898   */\n    tag_47:\n        /* \"#utility.yul\":2614:2619   */\n      0x00\n        /* \"#utility.yul\":2663:2666   */\n      dup3\n        /* \"#utility.yul\":2656:2660   */\n      0x1f\n        /* \"#utility.yul\":2648:2654   */\n      dup4\n        /* \"#utility.yul\":2644:2661   */\n      add\n        /* \"#utility.yul\":2640:2667   */\n      slt\n        /* \"#utility.yul\":2630:2752   */\n      tag_98\n      jumpi\n        /* \"#utility.yul\":2671:2750   */\n      tag_99\n      tag_38\n      jump\t// in\n    tag_99:\n        /* \"#utility.yul\":2630:2752   */\n    tag_98:\n        /* \"#utility.yul\":2788:2794   */\n      dup2\n        /* \"#utility.yul\":2775:2795   */\n      calldataload\n        /* \"#utility.yul\":2813:2892   */\n      tag_100\n        /* \"#utility.yul\":2888:2891   */\n      dup5\n        /* \"#utility.yul\":2880:2886   */\n      dup3\n        /* \"#utility.yul\":2873:2877   */\n      0x20\n        /* \"#utility.yul\":2865:2871   */\n      dup7\n        /* \"#utility.yul\":2861:2878   */\n      add\n        /* \"#utility.yul\":2813:2892   */\n      tag_46\n      jump\t// in\n    tag_100:\n        /* \"#utility.yul\":2804:2892   */\n      swap2\n      pop\n        /* \"#utility.yul\":2620:2898   */\n      pop\n        /* \"#utility.yul\":2558:2898   */\n      swap3\n      swap2\n      pop\n      pop\n      jump\t// out\n        /* \"#utility.yul\":2904:4209   */\n    tag_8:\n        /* \"#utility.yul\":3020:3026   */\n      0x00\n        /* \"#utility.yul\":3028:3034   */\n      dup1\n        /* \"#utility.yul\":3036:3042   */\n      0x00\n        /* \"#utility.yul\":3044:3050   */\n      dup1\n        /* \"#utility.yul\":3093:3096   */\n      0x80\n        /* \"#utility.yul\":3081:3090   */\n      dup6\n        /* \"#utility.yul\":3072:3079   */\n      dup8\n        /* \"#utility.yul\":3068:3091   */\n      sub\n        /* \"#utility.yul\":3064:3097   */\n      slt\n        /* \"#utility.yul\":3061:3181   */\n      iszero\n      tag_102\n      jumpi\n        /* \"#utility.yul\":3100:3179   */\n      tag_103\n      tag_33\n      jump\t// in\n    tag_103:\n        /* \"#utility.yul\":3061:3181   */\n    tag_102:\n        /* \"#utility.yul\":3220:3221   */\n      0x00\n        /* \"#utility.yul\":3245:3298   */\n      tag_104\n        /* \"#utility.yul\":3290:3297   */\n      dup8\n        /* \"#utility.yul\":3281:3287   */\n      dup3\n        /* \"#utility.yul\":3270:3279   */\n      dup9\n        /* \"#utility.yul\":3266:3288   */\n      add\n        /* \"#utility.yul\":3245:3298   */\n      tag_37\n      jump\t// in\n    tag_104:\n        /* \"#utility.yul\":3235:3298   */\n      swap5\n      pop\n        /* \"#utility.yul\":3191:3308   */\n      pop\n        /* \"#utility.yul\":3375:3377   */\n      0x20\n        /* \"#utility.yul\":3364:3373   */\n      dup6\n        /* \"#utility.yul\":3360:3378   */\n      add\n        /* \"#utility.yul\":3347:3379   */\n      calldataload\n        /* \"#utility.yul\":3406:3424   */\n      0xffffffffffffffff\n        /* \"#utility.yul\":3398:3404   */\n      dup2\n        /* \"#utility.yul\":3395:3425   */\n      gt\n        /* \"#utility.yul\":3392:3509   */\n      iszero\n      tag_105\n      jumpi\n        /* \"#utility.yul\":3428:3507   */\n      tag_106\n      tag_34\n      jump\t// in\n    tag_106:\n        /* \"#utility.yul\":3392:3509   */\n    tag_105:\n        /* \"#utility.yul\":3533:3596   */\n      tag_107\n        /* \"#utility.yul\":3588:3595   */\n      dup8\n        /* \"#utility.yul\":3579:3585   */\n      dup3\n        /* \"#utility.yul\":3568:3577   */\n      dup9\n        /* \"#utility.yul\":3564:3586   */\n      add\n        /* \"#utility.yul\":3533:3596   */\n      tag_47\n      jump\t// in\n    tag_107:\n        /* \"#utility.yul\":3523:3596   */\n      swap4\n      pop\n        /* \"#utility.yul\":3318:3606   */\n      pop\n        /* \"#utility.yul\":3673:3675   */\n      0x40\n        /* \"#utility.yul\":3662:3671   */\n      dup6\n        /* \"#utility.yul\":3658:3676   */\n      add\n        /* \"#utility.yul\":3645:3677   */\n      calldataload\n        /* \"#utility.yul\":3704:3722   */\n      0xffffffffffffffff\n        /* \"#utility.yul\":3696:3702   */\n      dup2\n        /* \"#utility.yul\":3693:3723   */\n      gt\n        /* \"#utility.yul\":3690:3807   */\n      iszero\n      tag_108\n      jumpi\n        /* \"#utility.yul\":3726:3805   */\n      tag_109\n      tag_34\n      jump\t// in\n    tag_109:\n        /* \"#utility.yul\":3690:3807   */\n    tag_108:\n        /* \"#utility.yul\":3831:3894   */\n      tag_110\n        /* \"#utility.yul\":3886:3893   */\n      dup8\n        /* \"#utility.yul\":3877:3883   */\n      dup3\n        /* \"#utility.yul\":3866:3875   */\n      dup9\n        /* \"#utility.yul\":3862:3884   */\n      add\n        /* \"#utility.yul\":3831:3894   */\n      tag_47\n      jump\t// in\n    tag_110:\n        /* \"#utility.yul\":3821:3894   */\n      swap3\n      pop\n        /* \"#utility.yul\":3616:3904   */\n      pop\n        /* \"#utility.yul\":3971:3973   */\n      0x60\n        /* \"#utility.yul\":3960:3969   */\n      dup6\n        /* \"#utility.yul\":3956:3974   */\n      add\n        /* \"#utility.yul\":3943:3975   */\n      calldataload\n        /* \"#utility.yul\":4002:4020   */\n      0xffffffffffffffff\n        /* \"#utility.yul\":3994:4000   */\n      dup2\n        /* \"#utility.yul\":3991:4021   */\n      gt\n        /* \"#utility.yul\":3988:4105   */\n      iszero\n      tag_111\n      jumpi\n        /* \"#utility.yul\":4024:4103   */\n      tag_112\n      tag_34\n      jump\t// in\n    tag_112:\n        /* \"#utility.yul\":3988:4105   */\n    tag_111:\n        /* \"#utility.yul\":4129:4192   */\n      tag_113\n        /* \"#utility.yul\":4184:4191   */\n      dup8\n        /* \"#utility.yul\":4175:4181   */\n      dup3\n        /* \"#utility.yul\":4164:4173   */\n      dup9\n        /* \"#utility.yul\":4160:4182   */\n      add\n        /* \"#utility.yul\":4129:4192   */\n      tag_47\n      jump\t// in\n    tag_113:\n        /* \"#utility.yul\":4119:4192   */\n      swap2\n      pop\n        /* \"#utility.yul\":3914:4202   */\n      pop\n        /* \"#utility.yul\":2904:4209   */\n      swap3\n      swap6\n      swap2\n      swap5\n      pop\n      swap3\n      pop\n      jump\t// out\n        /* \"#utility.yul\":4215:4337   */\n    tag_48:\n        /* \"#utility.yul\":4290:4296   */\n      0x00\n        /* \"#utility.yul\":4324:4329   */\n      dup2\n        /* \"#utility.yul\":4318:4330   */\n      mload\n        /* \"#utility.yul\":4308:4330   */\n      swap1\n      pop\n        /* \"#utility.yul\":4215:4337   */\n      swap2\n      swap1\n      pop\n      jump\t// out\n        /* \"#utility.yul\":4343:4535   */\n    tag_49:\n        /* \"#utility.yul\":4450:4461   */\n      0x00\n        /* \"#utility.yul\":4484:4490   */\n      dup3\n        /* \"#utility.yul\":4479:4482   */\n      dup3\n        /* \"#utility.yul\":4472:4491   */\n      mstore\n        /* \"#utility.yul\":4524:4528   */\n      0x20\n        /* \"#utility.yul\":4519:4522   */\n      dup3\n        /* \"#utility.yul\":4515:4529   */\n      add\n        /* \"#utility.yul\":4500:4529   */\n      swap1\n      pop\n        /* \"#utility.yul\":4343:4535   */\n      swap3\n      swap2\n      pop\n      pop\n      jump\t// out\n        /* \"#utility.yul\":4541:4681   */\n    tag_50:\n        /* \"#utility.yul\":4616:4620   */\n      0x00\n        /* \"#utility.yul\":4639:4642   */\n      dup2\n        /* \"#utility.yul\":4631:4642   */\n      swap1\n      pop\n        /* \"#utility.yul\":4669:4673   */\n      0x20\n        /* \"#utility.yul\":4664:4667   */\n      dup3\n        /* \"#utility.yul\":4660:4674   */\n      add\n        /* \"#utility.yul\":4652:4674   */\n      swap1\n      pop\n        /* \"#utility.yul\":4541:4681   */\n      swap2\n      swap1\n      pop\n      jump\t// out\n        /* \"#utility.yul\":4687:4813   */\n    tag_51:\n        /* \"#utility.yul\":4724:4731   */\n      0x00\n        /* \"#utility.yul\":4764:4806   */\n      0xffffffffffffffffffffffffffffffffffffffff\n        /* \"#utility.yul\":4757:4762   */\n      dup3\n        /* \"#utility.yul\":4753:4807   */\n      and\n        /* \"#utility.yul\":4742:4807   */\n      swap1\n      pop\n        /* \"#utility.yul\":4687:4813   */\n      swap2\n      swap1\n      pop\n      jump\t// out\n        /* \"#utility.yul\":4819:4923   */\n    tag_52:\n        /* \"#utility.yul\":4864:4871   */\n      0x00\n        /* \"#utility.yul\":4893:4917   */\n      tag_119\n        /* \"#utility.yul\":4911:4916   */\n      dup3\n        /* \"#utility.yul\":4893:4917   */\n      tag_51\n      jump\t// in\n    tag_119:\n        /* \"#utility.yul\":4882:4917   */\n      swap1\n      pop\n        /* \"#utility.yul\":4819:4923   */\n      swap2\n      swap1\n      pop\n      jump\t// out\n        /* \"#utility.yul\":4929:5061   */\n    tag_53:\n        /* \"#utility.yul\":5022:5054   */\n      tag_121\n        /* \"#utility.yul\":5048:5053   */\n      dup2\n        /* \"#utility.yul\":5022:5054   */\n      tag_52\n      jump\t// in\n    tag_121:\n        /* \"#utility.yul\":5017:5020   */\n      dup3\n        /* \"#utility.yul\":5010:5055   */\n      mstore\n        /* \"#utility.yul\":4929:5061   */\n      pop\n      pop\n      jump\t// out\n        /* \"#utility.yul\":5067:5278   */\n    tag_54:\n        /* \"#utility.yul\":5152:5162   */\n      0x00\n        /* \"#utility.yul\":5173:5235   */\n      tag_123\n        /* \"#utility.yul\":5231:5234   */\n      dup4\n        /* \"#utility.yul\":5223:5229   */\n      dup4\n        /* \"#utility.yul\":5173:5235   */\n      tag_53\n      jump\t// in\n    tag_123:\n        /* \"#utility.yul\":5267:5271   */\n      0x20\n        /* \"#utility.yul\":5262:5265   */\n      dup4\n        /* \"#utility.yul\":5258:5272   */\n      add\n        /* \"#utility.yul\":5244:5272   */\n      swap1\n      pop\n        /* \"#utility.yul\":5067:5278   */\n      swap3\n      swap2\n      pop\n      pop\n      jump\t// out\n        /* \"#utility.yul\":5284:5405   */\n    tag_55:\n        /* \"#utility.yul\":5362:5366   */\n      0x00\n        /* \"#utility.yul\":5394:5398   */\n      0x20\n        /* \"#utility.yul\":5389:5392   */\n      dup3\n        /* \"#utility.yul\":5385:5399   */\n      add\n        /* \"#utility.yul\":5377:5399   */\n      swap1\n      pop\n        /* \"#utility.yul\":5284:5405   */\n      swap2\n      swap1\n      pop\n      jump\t// out\n        /* \"#utility.yul\":5457:6253   */\n    tag_56:\n        /* \"#utility.yul\":5592:5595   */\n      0x00\n        /* \"#utility.yul\":5621:5683   */\n      tag_126\n        /* \"#utility.yul\":5677:5682   */\n      dup3\n        /* \"#utility.yul\":5621:5683   */\n      tag_48\n      jump\t// in\n    tag_126:\n        /* \"#utility.yul\":5699:5793   */\n      tag_127\n        /* \"#utility.yul\":5786:5792   */\n      dup2\n        /* \"#utility.yul\":5781:5784   */\n      dup6\n        /* \"#utility.yul\":5699:5793   */\n      tag_49\n      jump\t// in\n    tag_127:\n        /* \"#utility.yul\":5692:5793   */\n      swap4\n      pop\n        /* \"#utility.yul\":5817:5881   */\n      tag_128\n        /* \"#utility.yul\":5875:5880   */\n      dup4\n        /* \"#utility.yul\":5817:5881   */\n      tag_50\n      jump\t// in\n    tag_128:\n        /* \"#utility.yul\":5904:5911   */\n      dup1\n        /* \"#utility.yul\":5935:5936   */\n      0x00\n        /* \"#utility.yul\":5920:6228   */\n    tag_129:\n        /* \"#utility.yul\":5945:5951   */\n      dup4\n        /* \"#utility.yul\":5942:5943   */\n      dup2\n        /* \"#utility.yul\":5939:5952   */\n      lt\n        /* \"#utility.yul\":5920:6228   */\n      iszero\n      tag_131\n      jumpi\n        /* \"#utility.yul\":6021:6027   */\n      dup2\n        /* \"#utility.yul\":6015:6028   */\n      mload\n        /* \"#utility.yul\":6048:6127   */\n      tag_132\n        /* \"#utility.yul\":6123:6126   */\n      dup9\n        /* \"#utility.yul\":6108:6121   */\n      dup3\n        /* \"#utility.yul\":6048:6127   */\n      tag_54\n      jump\t// in\n    tag_132:\n        /* \"#utility.yul\":6041:6127   */\n      swap8\n      pop\n        /* \"#utility.yul\":6150:6218   */\n      tag_133\n        /* \"#utility.yul\":6211:6217   */\n      dup4\n        /* \"#utility.yul\":6150:6218   */\n      tag_55\n      jump\t// in\n    tag_133:\n        /* \"#utility.yul\":6140:6218   */\n      swap3\n      pop\n        /* \"#utility.yul\":5980:6228   */\n      pop\n        /* \"#utility.yul\":5967:5968   */\n      0x01\n        /* \"#utility.yul\":5964:5965   */\n      dup2\n        /* \"#utility.yul\":5960:5969   */\n      add\n        /* \"#utility.yul\":5955:5969   */\n      swap1\n      pop\n        /* \"#utility.yul\":5920:6228   */\n      jump(tag_129)\n    tag_131:\n        /* \"#utility.yul\":5924:5938   */\n      pop\n        /* \"#utility.yul\":6244:6247   */\n      dup6\n        /* \"#utility.yul\":6237:6247   */\n      swap4\n      pop\n        /* \"#utility.yul\":5597:6253   */\n      pop\n      pop\n      pop\n        /* \"#utility.yul\":5457:6253   */\n      swap3\n      swap2\n      pop\n      pop\n      jump\t// out\n        /* \"#utility.yul\":6259:6664   */\n    tag_13:\n        /* \"#utility.yul\":6418:6422   */\n      0x00\n        /* \"#utility.yul\":6456:6458   */\n      0x20\n        /* \"#utility.yul\":6445:6454   */\n      dup3\n        /* \"#utility.yul\":6441:6459   */\n      add\n        /* \"#utility.yul\":6433:6459   */\n      swap1\n      pop\n        /* \"#utility.yul\":6505:6514   */\n      dup2\n        /* \"#utility.yul\":6499:6503   */\n      dup2\n        /* \"#utility.yul\":6495:6515   */\n      sub\n        /* \"#utility.yul\":6491:6492   */\n      0x00\n        /* \"#utility.yul\":6480:6489   */\n      dup4\n        /* \"#utility.yul\":6476:6493   */\n      add\n        /* \"#utility.yul\":6469:6516   */\n      mstore\n        /* \"#utility.yul\":6533:6657   */\n      tag_135\n        /* \"#utility.yul\":6652:6656   */\n      dup2\n        /* \"#utility.yul\":6643:6649   */\n      dup5\n        /* \"#utility.yul\":6533:6657   */\n      tag_56\n      jump\t// in\n    tag_135:\n        /* \"#utility.yul\":6525:6657   */\n      swap1\n      pop\n        /* \"#utility.yul\":6259:6664   */\n      swap3\n      swap2\n      pop\n      pop\n      jump\t// out\n        /* \"#utility.yul\":6670:6999   */\n    tag_16:\n        /* \"#utility.yul\":6729:6735   */\n      0x00\n        /* \"#utility.yul\":6778:6780   */\n      0x20\n        /* \"#utility.yul\":6766:6775   */\n      dup3\n        /* \"#utility.yul\":6757:6764   */\n      dup5\n        /* \"#utility.yul\":6753:6776   */\n      sub\n        /* \"#utility.yul\":6749:6781   */\n      slt\n        /* \"#utility.yul\":6746:6865   */\n      iszero\n      tag_137\n      jumpi\n        /* \"#utility.yul\":6784:6863   */\n      tag_138\n      tag_33\n      jump\t// in\n    tag_138:\n        /* \"#utility.yul\":6746:6865   */\n    tag_137:\n        /* \"#utility.yul\":6904:6905   */\n      0x00\n        /* \"#utility.yul\":6929:6982   */\n      tag_139\n        /* \"#utility.yul\":6974:6981   */\n      dup5\n        /* \"#utility.yul\":6965:6971   */\n      dup3\n        /* \"#utility.yul\":6954:6963   */\n      dup6\n        /* \"#utility.yul\":6950:6972   */\n      add\n        /* \"#utility.yul\":6929:6982   */\n      tag_37\n      jump\t// in\n    tag_139:\n        /* \"#utility.yul\":6919:6982   */\n      swap2\n      pop\n        /* \"#utility.yul\":6875:6992   */\n      pop\n        /* \"#utility.yul\":6670:6999   */\n      swap3\n      swap2\n      pop\n      pop\n      jump\t// out\n        /* \"#utility.yul\":7005:7147   */\n    tag_57:\n        /* \"#utility.yul\":7108:7140   */\n      tag_141\n        /* \"#utility.yul\":7134:7139   */\n      dup2\n        /* \"#utility.yul\":7108:7140   */\n      tag_52\n      jump\t// in\n    tag_141:\n        /* \"#utility.yul\":7103:7106   */\n      dup3\n        /* \"#utility.yul\":7096:7141   */\n      mstore\n        /* \"#utility.yul\":7005:7147   */\n      pop\n      pop\n      jump\t// out\n        /* \"#utility.yul\":7153:7407   */\n    tag_19:\n        /* \"#utility.yul\":7262:7266   */\n      0x00\n        /* \"#utility.yul\":7300:7302   */\n      0x20\n        /* \"#utility.yul\":7289:7298   */\n      dup3\n        /* \"#utility.yul\":7285:7303   */\n      add\n        /* \"#utility.yul\":7277:7303   */\n      swap1\n      pop\n        /* \"#utility.yul\":7313:7400   */\n      tag_143\n        /* \"#utility.yul\":7397:7398   */\n      0x00\n        /* \"#utility.yul\":7386:7395   */\n      dup4\n        /* \"#utility.yul\":7382:7399   */\n      add\n        /* \"#utility.yul\":7373:7379   */\n      dup5\n        /* \"#utility.yul\":7313:7400   */\n      tag_57\n      jump\t// in\n    tag_143:\n        /* \"#utility.yul\":7153:7407   */\n      swap3\n      swap2\n      pop\n      pop\n      jump\t// out\n        /* \"#utility.yul\":7413:7531   */\n    tag_58:\n        /* \"#utility.yul\":7500:7524   */\n      tag_145\n        /* \"#utility.yul\":7518:7523   */\n      dup2\n        /* \"#utility.yul\":7500:7524   */\n      tag_35\n      jump\t// in\n    tag_145:\n        /* \"#utility.yul\":7495:7498   */\n      dup3\n        /* \"#utility.yul\":7488:7525   */\n      mstore\n        /* \"#utility.yul\":7413:7531   */\n      pop\n      pop\n      jump\t// out\n        /* \"#utility.yul\":7537:7633   */\n    tag_59:\n        /* \"#utility.yul\":7574:7581   */\n      0x00\n        /* \"#utility.yul\":7603:7627   */\n      tag_147\n        /* \"#utility.yul\":7621:7626   */\n      dup3\n        /* \"#utility.yul\":7603:7627   */\n      tag_51\n      jump\t// in\n    tag_147:\n        /* \"#utility.yul\":7592:7627   */\n      swap1\n      pop\n        /* \"#utility.yul\":7537:7633   */\n      swap2\n      swap1\n      pop\n      jump\t// out\n        /* \"#utility.yul\":7639:7757   */\n    tag_60:\n        /* \"#utility.yul\":7726:7750   */\n      tag_149\n        /* \"#utility.yul\":7744:7749   */\n      dup2\n        /* \"#utility.yul\":7726:7750   */\n      tag_59\n      jump\t// in\n    tag_149:\n        /* \"#utility.yul\":7721:7724   */\n      dup3\n        /* \"#utility.yul\":7714:7751   */\n      mstore\n        /* \"#utility.yul\":7639:7757   */\n      pop\n      pop\n      jump\t// out\n        /* \"#utility.yul\":7763:7862   */\n    tag_61:\n        /* \"#utility.yul\":7815:7821   */\n      0x00\n        /* \"#utility.yul\":7849:7854   */\n      dup2\n        /* \"#utility.yul\":7843:7855   */\n      mload\n        /* \"#utility.yul\":7833:7855   */\n      swap1\n      pop\n        /* \"#utility.yul\":7763:7862   */\n      swap2\n      swap1\n      pop\n      jump\t// out\n        /* \"#utility.yul\":7868:8037   */\n    tag_62:\n        /* \"#utility.yul\":7952:7963   */\n      0x00\n        /* \"#utility.yul\":7986:7992   */\n      dup3\n        /* \"#utility.yul\":7981:7984   */\n      dup3\n        /* \"#utility.yul\":7974:7993   */\n      mstore\n        /* \"#utility.yul\":8026:8030   */\n      0x20\n        /* \"#utility.yul\":8021:8024   */\n      dup3\n        /* \"#utility.yul\":8017:8031   */\n      add\n        /* \"#utility.yul\":8002:8031   */\n      swap1\n      pop\n        /* \"#utility.yul\":7868:8037   */\n      swap3\n      swap2\n      pop\n      pop\n      jump\t// out\n        /* \"#utility.yul\":8043:8350   */\n    tag_63:\n        /* \"#utility.yul\":8111:8112   */\n      0x00\n        /* \"#utility.yul\":8121:8234   */\n    tag_153:\n        /* \"#utility.yul\":8135:8141   */\n      dup4\n        /* \"#utility.yul\":8132:8133   */\n      dup2\n        /* \"#utility.yul\":8129:8142   */\n      lt\n        /* \"#utility.yul\":8121:8234   */\n      iszero\n      tag_155\n      jumpi\n        /* \"#utility.yul\":8220:8221   */\n      dup1\n        /* \"#utility.yul\":8215:8218   */\n      dup3\n        /* \"#utility.yul\":8211:8222   */\n      add\n        /* \"#utility.yul\":8205:8223   */\n      mload\n        /* \"#utility.yul\":8201:8202   */\n      dup2\n        /* \"#utility.yul\":8196:8199   */\n      dup5\n        /* \"#utility.yul\":8192:8203   */\n      add\n        /* \"#utility.yul\":8185:8224   */\n      mstore\n        /* \"#utility.yul\":8157:8159   */\n      0x20\n        /* \"#utility.yul\":8154:8155   */\n      dup2\n        /* \"#utility.yul\":8150:8160   */\n      add\n        /* \"#utility.yul\":8145:8160   */\n      swap1\n      pop\n        /* \"#utility.yul\":8121:8234   */\n      jump(tag_153)\n    tag_155:\n        /* \"#utility.yul\":8252:8258   */\n      dup4\n        /* \"#utility.yul\":8249:8250   */\n      dup2\n        /* \"#utility.yul\":8246:8259   */\n      gt\n        /* \"#utility.yul\":8243:8344   */\n      iszero\n      tag_156\n      jumpi\n        /* \"#utility.yul\":8332:8333   */\n      0x00\n        /* \"#utility.yul\":8323:8329   */\n      dup5\n        /* \"#utility.yul\":8318:8321   */\n      dup5\n        /* \"#utility.yul\":8314:8330   */\n      add\n        /* \"#utility.yul\":8307:8334   */\n      mstore\n        /* \"#utility.yul\":8243:8344   */\n    tag_156:\n        /* \"#utility.yul\":8092:8350   */\n      pop\n        /* \"#utility.yul\":8043:8350   */\n      pop\n      pop\n      pop\n      jump\t// out\n        /* \"#utility.yul\":8356:8720   */\n    tag_64:\n        /* \"#utility.yul\":8444:8447   */\n      0x00\n        /* \"#utility.yul\":8472:8511   */\n      tag_158\n        /* \"#utility.yul\":8505:8510   */\n      dup3\n        /* \"#utility.yul\":8472:8511   */\n      tag_61\n      jump\t// in\n    tag_158:\n        /* \"#utility.yul\":8527:8598   */\n      tag_159\n        /* \"#utility.yul\":8591:8597   */\n      dup2\n        /* \"#utility.yul\":8586:8589   */\n      dup6\n        /* \"#utility.yul\":8527:8598   */\n      tag_62\n      jump\t// in\n    tag_159:\n        /* \"#utility.yul\":8520:8598   */\n      swap4\n      pop\n        /* \"#utility.yul\":8607:8659   */\n      tag_160\n        /* \"#utility.yul\":8652:8658   */\n      dup2\n        /* \"#utility.yul\":8647:8650   */\n      dup6\n        /* \"#utility.yul\":8640:8644   */\n      0x20\n        /* \"#utility.yul\":8633:8638   */\n      dup7\n        /* \"#utility.yul\":8629:8645   */\n      add\n        /* \"#utility.yul\":8607:8659   */\n      tag_63\n      jump\t// in\n    tag_160:\n        /* \"#utility.yul\":8684:8713   */\n      tag_161\n        /* \"#utility.yul\":8706:8712   */\n      dup2\n        /* \"#utility.yul\":8684:8713   */\n      tag_40\n      jump\t// in\n    tag_161:\n        /* \"#utility.yul\":8679:8682   */\n      dup5\n        /* \"#utility.yul\":8675:8714   */\n      add\n        /* \"#utility.yul\":8668:8714   */\n      swap2\n      pop\n        /* \"#utility.yul\":8448:8720   */\n      pop\n        /* \"#utility.yul\":8356:8720   */\n      swap3\n      swap2\n      pop\n      pop\n      jump\t// out\n        /* \"#utility.yul\":8726:9663   */\n    tag_24:\n        /* \"#utility.yul\":8991:8995   */\n      0x00\n        /* \"#utility.yul\":9029:9032   */\n      0xa0\n        /* \"#utility.yul\":9018:9027   */\n      dup3\n        /* \"#utility.yul\":9014:9033   */\n      add\n        /* \"#utility.yul\":9006:9033   */\n      swap1\n      pop\n        /* \"#utility.yul\":9043:9114   */\n      tag_163\n        /* \"#utility.yul\":9111:9112   */\n      0x00\n        /* \"#utility.yul\":9100:9109   */\n      dup4\n        /* \"#utility.yul\":9096:9113   */\n      add\n        /* \"#utility.yul\":9087:9093   */\n      dup9\n        /* \"#utility.yul\":9043:9114   */\n      tag_58\n      jump\t// in\n    tag_163:\n        /* \"#utility.yul\":9124:9196   */\n      tag_164\n        /* \"#utility.yul\":9192:9194   */\n      0x20\n        /* \"#utility.yul\":9181:9190   */\n      dup4\n        /* \"#utility.yul\":9177:9195   */\n      add\n        /* \"#utility.yul\":9168:9174   */\n      dup8\n        /* \"#utility.yul\":9124:9196   */\n      tag_60\n      jump\t// in\n    tag_164:\n        /* \"#utility.yul\":9243:9252   */\n      dup2\n        /* \"#utility.yul\":9237:9241   */\n      dup2\n        /* \"#utility.yul\":9233:9253   */\n      sub\n        /* \"#utility.yul\":9228:9230   */\n      0x40\n        /* \"#utility.yul\":9217:9226   */\n      dup4\n        /* \"#utility.yul\":9213:9231   */\n      add\n        /* \"#utility.yul\":9206:9254   */\n      mstore\n        /* \"#utility.yul\":9271:9349   */\n      tag_165\n        /* \"#utility.yul\":9344:9348   */\n      dup2\n        /* \"#utility.yul\":9335:9341   */\n      dup7\n        /* \"#utility.yul\":9271:9349   */\n      tag_64\n      jump\t// in\n    tag_165:\n        /* \"#utility.yul\":9263:9349   */\n      swap1\n      pop\n        /* \"#utility.yul\":9396:9405   */\n      dup2\n        /* \"#utility.yul\":9390:9394   */\n      dup2\n        /* \"#utility.yul\":9386:9406   */\n      sub\n        /* \"#utility.yul\":9381:9383   */\n      0x60\n        /* \"#utility.yul\":9370:9379   */\n      dup4\n        /* \"#utility.yul\":9366:9384   */\n      add\n        /* \"#utility.yul\":9359:9407   */\n      mstore\n        /* \"#utility.yul\":9424:9502   */\n      tag_166\n        /* \"#utility.yul\":9497:9501   */\n      dup2\n        /* \"#utility.yul\":9488:9494   */\n      dup6\n        /* \"#utility.yul\":9424:9502   */\n      tag_64\n      jump\t// in\n    tag_166:\n        /* \"#utility.yul\":9416:9502   */\n      swap1\n      pop\n        /* \"#utility.yul\":9550:9559   */\n      dup2\n        /* \"#utility.yul\":9544:9548   */\n      dup2\n        /* \"#utility.yul\":9540:9560   */\n      sub\n        /* \"#utility.yul\":9534:9537   */\n      0x80\n        /* \"#utility.yul\":9523:9532   */\n      dup4\n        /* \"#utility.yul\":9519:9538   */\n      add\n        /* \"#utility.yul\":9512:9561   */\n      mstore\n        /* \"#utility.yul\":9578:9656   */\n      tag_167\n        /* \"#utility.yul\":9651:9655   */\n      dup2\n        /* \"#utility.yul\":9642:9648   */\n      dup5\n        /* \"#utility.yul\":9578:9656   */\n      tag_64\n      jump\t// in\n    tag_167:\n        /* \"#utility.yul\":9570:9656   */\n      swap1\n      pop\n        /* \"#utility.yul\":8726:9663   */\n      swap7\n      swap6\n      pop\n      pop\n      pop\n      pop\n      pop\n      pop\n      jump\t// out\n    stop\n\n    sub_0: assembly {\n            /* \"Project.sol\":525:2972  contract Project {... */\n          mstore(0x40, 0x80)\n            /* \"Project.sol\":1084:1378  constructor (uint minimum, address creator, string memory projectName, string memory projectDescrip, string memory projectImage) {... */\n          callvalue\n          dup1\n          iszero\n          tag_1\n          jumpi\n          0x00\n          dup1\n          revert\n        tag_1:\n          pop\n          mload(0x40)\n          sub(codesize, bytecodeSize)\n          dup1\n          bytecodeSize\n          dup4\n          codecopy\n          dup2\n          dup2\n          add\n          0x40\n          mstore\n          dup2\n          add\n          swap1\n          tag_2\n          swap2\n          swap1\n          tag_3\n          jump\t// in\n        tag_2:\n            /* \"Project.sol\":1233:1240  creator */\n          dup4\n            /* \"Project.sol\":1223:1230  manager */\n          0x01\n          0x00\n            /* \"Project.sol\":1223:1240  manager = creator */\n          0x0100\n          exp\n          dup2\n          sload\n          dup2\n          0xffffffffffffffffffffffffffffffffffffffff\n          mul\n          not\n          and\n          swap1\n          dup4\n          0xffffffffffffffffffffffffffffffffffffffff\n          and\n          mul\n          or\n          swap1\n          sstore\n          pop\n            /* \"Project.sol\":1272:1279  minimum */\n          dup5\n            /* \"Project.sol\":1250:1269  minimumContribution */\n          0x02\n            /* \"Project.sol\":1250:1279  minimumContribution = minimum */\n          dup2\n          swap1\n          sstore\n          pop\n            /* \"Project.sol\":1296:1307  projectName */\n          dup3\n            /* \"Project.sol\":1289:1293  name */\n          0x05\n            /* \"Project.sol\":1289:1307  name = projectName */\n          swap1\n          dup1\n          mload\n          swap1\n          0x20\n          add\n          swap1\n          tag_6\n          swap3\n          swap2\n          swap1\n          tag_7\n          jump\t// in\n        tag_6:\n          pop\n            /* \"Project.sol\":1327:1341  projectDescrip */\n          dup2\n            /* \"Project.sol\":1317:1324  descrip */\n          0x06\n            /* \"Project.sol\":1317:1341  descrip = projectDescrip */\n          swap1\n          dup1\n          mload\n          swap1\n          0x20\n          add\n          swap1\n          tag_8\n          swap3\n          swap2\n          swap1\n          tag_7\n          jump\t// in\n        tag_8:\n          pop\n            /* \"Project.sol\":1359:1371  projectImage */\n          dup1\n            /* \"Project.sol\":1351:1356  image */\n          0x07\n            /* \"Project.sol\":1351:1371  image = projectImage */\n          swap1\n          dup1\n          mload\n          swap1\n          0x20\n          add\n          swap1\n          tag_9\n          swap3\n          swap2\n          swap1\n          tag_7\n          jump\t// in\n        tag_9:\n          pop\n            /* \"Project.sol\":1084:1378  constructor (uint minimum, address creator, string memory projectName, string memory projectDescrip, string memory projectImage) {... */\n          pop\n          pop\n          pop\n          pop\n          pop\n            /* \"Project.sol\":525:2972  contract Project {... */\n          jump(tag_10)\n        tag_7:\n          dup3\n          dup1\n          sload\n          tag_11\n          swap1\n          tag_12\n          jump\t// in\n        tag_11:\n          swap1\n          0x00\n          mstore\n          keccak256(0x00, 0x20)\n          swap1\n          0x1f\n          add\n          0x20\n          swap1\n          div\n          dup2\n          add\n          swap3\n          dup3\n          tag_14\n          jumpi\n          0x00\n          dup6\n          sstore\n          jump(tag_13)\n        tag_14:\n          dup3\n          0x1f\n          lt\n          tag_15\n          jumpi\n          dup1\n          mload\n          not(0xff)\n          and\n          dup4\n          dup1\n          add\n          or\n          dup6\n          sstore\n          jump(tag_13)\n        tag_15:\n          dup3\n          dup1\n          add\n          0x01\n          add\n          dup6\n          sstore\n          dup3\n          iszero\n          tag_13\n          jumpi\n          swap2\n          dup3\n          add\n        tag_16:\n          dup3\n          dup2\n          gt\n          iszero\n          tag_17\n          jumpi\n          dup3\n          mload\n          dup3\n          sstore\n          swap2\n          0x20\n          add\n          swap2\n          swap1\n          0x01\n          add\n          swap1\n          jump(tag_16)\n        tag_17:\n        tag_13:\n          pop\n          swap1\n          pop\n          tag_18\n          swap2\n          swap1\n          tag_19\n          jump\t// in\n        tag_18:\n          pop\n          swap1\n          jump\t// out\n        tag_19:\n        tag_20:\n          dup1\n          dup3\n          gt\n          iszero\n          tag_21\n          jumpi\n          0x00\n          dup2\n          0x00\n          swap1\n          sstore\n          pop\n          0x01\n          add\n          jump(tag_20)\n        tag_21:\n          pop\n          swap1\n          jump\t// out\n            /* \"#utility.yul\":7:82   */\n        tag_22:\n            /* \"#utility.yul\":40:46   */\n          0x00\n            /* \"#utility.yul\":73:75   */\n          0x40\n            /* \"#utility.yul\":67:76   */\n          mload\n            /* \"#utility.yul\":57:76   */\n          swap1\n          pop\n            /* \"#utility.yul\":7:82   */\n          swap1\n          jump\t// out\n            /* \"#utility.yul\":88:205   */\n        tag_23:\n            /* \"#utility.yul\":197:198   */\n          0x00\n            /* \"#utility.yul\":194:195   */\n          dup1\n            /* \"#utility.yul\":187:199   */\n          revert\n            /* \"#utility.yul\":211:328   */\n        tag_24:\n            /* \"#utility.yul\":320:321   */\n          0x00\n            /* \"#utility.yul\":317:318   */\n          dup1\n            /* \"#utility.yul\":310:322   */\n          revert\n            /* \"#utility.yul\":334:411   */\n        tag_25:\n            /* \"#utility.yul\":371:378   */\n          0x00\n            /* \"#utility.yul\":400:405   */\n          dup2\n            /* \"#utility.yul\":389:405   */\n          swap1\n          pop\n            /* \"#utility.yul\":334:411   */\n          swap2\n          swap1\n          pop\n          jump\t// out\n            /* \"#utility.yul\":417:539   */\n        tag_26:\n            /* \"#utility.yul\":490:514   */\n          tag_49\n            /* \"#utility.yul\":508:513   */\n          dup2\n            /* \"#utility.yul\":490:514   */\n          tag_25\n          jump\t// in\n        tag_49:\n            /* \"#utility.yul\":483:488   */\n          dup2\n            /* \"#utility.yul\":480:515   */\n          eq\n            /* \"#utility.yul\":470:533   */\n          tag_50\n          jumpi\n            /* \"#utility.yul\":529:530   */\n          0x00\n            /* \"#utility.yul\":526:527   */\n          dup1\n            /* \"#utility.yul\":519:531   */\n          revert\n            /* \"#utility.yul\":470:533   */\n        tag_50:\n            /* \"#utility.yul\":417:539   */\n          pop\n          jump\t// out\n            /* \"#utility.yul\":545:688   */\n        tag_27:\n            /* \"#utility.yul\":602:607   */\n          0x00\n            /* \"#utility.yul\":633:639   */\n          dup2\n            /* \"#utility.yul\":627:640   */\n          mload\n            /* \"#utility.yul\":618:640   */\n          swap1\n          pop\n            /* \"#utility.yul\":649:682   */\n          tag_52\n            /* \"#utility.yul\":676:681   */\n          dup2\n            /* \"#utility.yul\":649:682   */\n          tag_26\n          jump\t// in\n        tag_52:\n            /* \"#utility.yul\":545:688   */\n          swap3\n          swap2\n          pop\n          pop\n          jump\t// out\n            /* \"#utility.yul\":694:820   */\n        tag_28:\n            /* \"#utility.yul\":731:738   */\n          0x00\n            /* \"#utility.yul\":771:813   */\n          0xffffffffffffffffffffffffffffffffffffffff\n            /* \"#utility.yul\":764:769   */\n          dup3\n            /* \"#utility.yul\":760:814   */\n          and\n            /* \"#utility.yul\":749:814   */\n          swap1\n          pop\n            /* \"#utility.yul\":694:820   */\n          swap2\n          swap1\n          pop\n          jump\t// out\n            /* \"#utility.yul\":826:922   */\n        tag_29:\n            /* \"#utility.yul\":863:870   */\n          0x00\n            /* \"#utility.yul\":892:916   */\n          tag_55\n            /* \"#utility.yul\":910:915   */\n          dup3\n            /* \"#utility.yul\":892:916   */\n          tag_28\n          jump\t// in\n        tag_55:\n            /* \"#utility.yul\":881:916   */\n          swap1\n          pop\n            /* \"#utility.yul\":826:922   */\n          swap2\n          swap1\n          pop\n          jump\t// out\n            /* \"#utility.yul\":928:1050   */\n        tag_30:\n            /* \"#utility.yul\":1001:1025   */\n          tag_57\n            /* \"#utility.yul\":1019:1024   */\n          dup2\n            /* \"#utility.yul\":1001:1025   */\n          tag_29\n          jump\t// in\n        tag_57:\n            /* \"#utility.yul\":994:999   */\n          dup2\n            /* \"#utility.yul\":991:1026   */\n          eq\n            /* \"#utility.yul\":981:1044   */\n          tag_58\n          jumpi\n            /* \"#utility.yul\":1040:1041   */\n          0x00\n            /* \"#utility.yul\":1037:1038   */\n          dup1\n            /* \"#utility.yul\":1030:1042   */\n          revert\n            /* \"#utility.yul\":981:1044   */\n        tag_58:\n            /* \"#utility.yul\":928:1050   */\n          pop\n          jump\t// out\n            /* \"#utility.yul\":1056:1199   */\n        tag_31:\n            /* \"#utility.yul\":1113:1118   */\n          0x00\n            /* \"#utility.yul\":1144:1150   */\n          dup2\n            /* \"#utility.yul\":1138:1151   */\n          mload\n            /* \"#utility.yul\":1129:1151   */\n          swap1\n          pop\n            /* \"#utility.yul\":1160:1193   */\n          tag_60\n            /* \"#utility.yul\":1187:1192   */\n          dup2\n            /* \"#utility.yul\":1160:1193   */\n          tag_30\n          jump\t// in\n        tag_60:\n            /* \"#utility.yul\":1056:1199   */\n          swap3\n          swap2\n          pop\n          pop\n          jump\t// out\n            /* \"#utility.yul\":1205:1322   */\n        tag_32:\n            /* \"#utility.yul\":1314:1315   */\n          0x00\n            /* \"#utility.yul\":1311:1312   */\n          dup1\n            /* \"#utility.yul\":1304:1316   */\n          revert\n            /* \"#utility.yul\":1328:1445   */\n        tag_33:\n            /* \"#utility.yul\":1437:1438   */\n          0x00\n            /* \"#utility.yul\":1434:1435   */\n          dup1\n            /* \"#utility.yul\":1427:1439   */\n          revert\n            /* \"#utility.yul\":1451:1553   */\n        tag_34:\n            /* \"#utility.yul\":1492:1498   */\n          0x00\n            /* \"#utility.yul\":1543:1545   */\n          0x1f\n            /* \"#utility.yul\":1539:1546   */\n          not\n            /* \"#utility.yul\":1534:1536   */\n          0x1f\n            /* \"#utility.yul\":1527:1532   */\n          dup4\n            /* \"#utility.yul\":1523:1537   */\n          add\n            /* \"#utility.yul\":1519:1547   */\n          and\n            /* \"#utility.yul\":1509:1547   */\n          swap1\n          pop\n            /* \"#utility.yul\":1451:1553   */\n          swap2\n          swap1\n          pop\n          jump\t// out\n            /* \"#utility.yul\":1559:1739   */\n        tag_35:\n            /* \"#utility.yul\":1607:1684   */\n          0x4e487b7100000000000000000000000000000000000000000000000000000000\n            /* \"#utility.yul\":1604:1605   */\n          0x00\n            /* \"#utility.yul\":1597:1685   */\n          mstore\n            /* \"#utility.yul\":1704:1708   */\n          0x41\n            /* \"#utility.yul\":1701:1702   */\n          0x04\n            /* \"#utility.yul\":1694:1709   */\n          mstore\n            /* \"#utility.yul\":1728:1732   */\n          0x24\n            /* \"#utility.yul\":1725:1726   */\n          0x00\n            /* \"#utility.yul\":1718:1733   */\n          revert\n            /* \"#utility.yul\":1745:2026   */\n        tag_36:\n            /* \"#utility.yul\":1828:1855   */\n          tag_66\n            /* \"#utility.yul\":1850:1854   */\n          dup3\n            /* \"#utility.yul\":1828:1855   */\n          tag_34\n          jump\t// in\n        tag_66:\n            /* \"#utility.yul\":1820:1826   */\n          dup2\n            /* \"#utility.yul\":1816:1856   */\n          add\n            /* \"#utility.yul\":1958:1964   */\n          dup2\n            /* \"#utility.yul\":1946:1956   */\n          dup2\n            /* \"#utility.yul\":1943:1965   */\n          lt\n            /* \"#utility.yul\":1922:1940   */\n          0xffffffffffffffff\n            /* \"#utility.yul\":1910:1920   */\n          dup3\n            /* \"#utility.yul\":1907:1941   */\n          gt\n            /* \"#utility.yul\":1904:1966   */\n          or\n            /* \"#utility.yul\":1901:1989   */\n          iszero\n          tag_67\n          jumpi\n            /* \"#utility.yul\":1969:1987   */\n          tag_68\n          tag_35\n          jump\t// in\n        tag_68:\n            /* \"#utility.yul\":1901:1989   */\n        tag_67:\n            /* \"#utility.yul\":2009:2019   */\n          dup1\n            /* \"#utility.yul\":2005:2007   */\n          0x40\n            /* \"#utility.yul\":1998:2020   */\n          mstore\n            /* \"#utility.yul\":1788:2026   */\n          pop\n            /* \"#utility.yul\":1745:2026   */\n          pop\n          pop\n          jump\t// out\n            /* \"#utility.yul\":2032:2161   */\n        tag_37:\n            /* \"#utility.yul\":2066:2072   */\n          0x00\n            /* \"#utility.yul\":2093:2113   */\n          tag_70\n          tag_22\n          jump\t// in\n        tag_70:\n            /* \"#utility.yul\":2083:2113   */\n          swap1\n          pop\n            /* \"#utility.yul\":2122:2155   */\n          tag_71\n            /* \"#utility.yul\":2150:2154   */\n          dup3\n            /* \"#utility.yul\":2142:2148   */\n          dup3\n            /* \"#utility.yul\":2122:2155   */\n          tag_36\n          jump\t// in\n        tag_71:\n            /* \"#utility.yul\":2032:2161   */\n          swap2\n          swap1\n          pop\n          jump\t// out\n            /* \"#utility.yul\":2167:2475   */\n        tag_38:\n            /* \"#utility.yul\":2229:2233   */\n          0x00\n            /* \"#utility.yul\":2319:2337   */\n          0xffffffffffffffff\n            /* \"#utility.yul\":2311:2317   */\n          dup3\n            /* \"#utility.yul\":2308:2338   */\n          gt\n            /* \"#utility.yul\":2305:2361   */\n          iszero\n          tag_73\n          jumpi\n            /* \"#utility.yul\":2341:2359   */\n          tag_74\n          tag_35\n          jump\t// in\n        tag_74:\n            /* \"#utility.yul\":2305:2361   */\n        tag_73:\n            /* \"#utility.yul\":2379:2408   */\n          tag_75\n            /* \"#utility.yul\":2401:2407   */\n          dup3\n            /* \"#utility.yul\":2379:2408   */\n          tag_34\n          jump\t// in\n        tag_75:\n            /* \"#utility.yul\":2371:2408   */\n          swap1\n          pop\n            /* \"#utility.yul\":2463:2467   */\n          0x20\n            /* \"#utility.yul\":2457:2461   */\n          dup2\n            /* \"#utility.yul\":2453:2468   */\n          add\n            /* \"#utility.yul\":2445:2468   */\n          swap1\n          pop\n            /* \"#utility.yul\":2167:2475   */\n          swap2\n          swap1\n          pop\n          jump\t// out\n            /* \"#utility.yul\":2481:2788   */\n        tag_39:\n            /* \"#utility.yul\":2549:2550   */\n          0x00\n            /* \"#utility.yul\":2559:2672   */\n        tag_77:\n            /* \"#utility.yul\":2573:2579   */\n          dup4\n            /* \"#utility.yul\":2570:2571   */\n          dup2\n            /* \"#utility.yul\":2567:2580   */\n          lt\n            /* \"#utility.yul\":2559:2672   */\n          iszero\n          tag_79\n          jumpi\n            /* \"#utility.yul\":2658:2659   */\n          dup1\n            /* \"#utility.yul\":2653:2656   */\n          dup3\n            /* \"#utility.yul\":2649:2660   */\n          add\n            /* \"#utility.yul\":2643:2661   */\n          mload\n            /* \"#utility.yul\":2639:2640   */\n          dup2\n            /* \"#utility.yul\":2634:2637   */\n          dup5\n            /* \"#utility.yul\":2630:2641   */\n          add\n            /* \"#utility.yul\":2623:2662   */\n          mstore\n            /* \"#utility.yul\":2595:2597   */\n          0x20\n            /* \"#utility.yul\":2592:2593   */\n          dup2\n            /* \"#utility.yul\":2588:2598   */\n          add\n            /* \"#utility.yul\":2583:2598   */\n          swap1\n          pop\n            /* \"#utility.yul\":2559:2672   */\n          jump(tag_77)\n        tag_79:\n            /* \"#utility.yul\":2690:2696   */\n          dup4\n            /* \"#utility.yul\":2687:2688   */\n          dup2\n            /* \"#utility.yul\":2684:2697   */\n          gt\n            /* \"#utility.yul\":2681:2782   */\n          iszero\n          tag_80\n          jumpi\n            /* \"#utility.yul\":2770:2771   */\n          0x00\n            /* \"#utility.yul\":2761:2767   */\n          dup5\n            /* \"#utility.yul\":2756:2759   */\n          dup5\n            /* \"#utility.yul\":2752:2768   */\n          add\n            /* \"#utility.yul\":2745:2772   */\n          mstore\n            /* \"#utility.yul\":2681:2782   */\n        tag_80:\n            /* \"#utility.yul\":2530:2788   */\n          pop\n            /* \"#utility.yul\":2481:2788   */\n          pop\n          pop\n          pop\n          jump\t// out\n            /* \"#utility.yul\":2794:3215   */\n        tag_40:\n            /* \"#utility.yul\":2883:2888   */\n          0x00\n            /* \"#utility.yul\":2908:2974   */\n          tag_82\n            /* \"#utility.yul\":2924:2973   */\n          tag_83\n            /* \"#utility.yul\":2966:2972   */\n          dup5\n            /* \"#utility.yul\":2924:2973   */\n          tag_38\n          jump\t// in\n        tag_83:\n            /* \"#utility.yul\":2908:2974   */\n          tag_37\n          jump\t// in\n        tag_82:\n            /* \"#utility.yul\":2899:2974   */\n          swap1\n          pop\n            /* \"#utility.yul\":2997:3003   */\n          dup3\n            /* \"#utility.yul\":2990:2995   */\n          dup2\n            /* \"#utility.yul\":2983:3004   */\n          mstore\n            /* \"#utility.yul\":3035:3039   */\n          0x20\n            /* \"#utility.yul\":3028:3033   */\n          dup2\n            /* \"#utility.yul\":3024:3040   */\n          add\n            /* \"#utility.yul\":3073:3076   */\n          dup5\n            /* \"#utility.yul\":3064:3070   */\n          dup5\n            /* \"#utility.yul\":3059:3062   */\n          dup5\n            /* \"#utility.yul\":3055:3071   */\n          add\n            /* \"#utility.yul\":3052:3077   */\n          gt\n            /* \"#utility.yul\":3049:3161   */\n          iszero\n          tag_84\n          jumpi\n            /* \"#utility.yul\":3080:3159   */\n          tag_85\n          tag_33\n          jump\t// in\n        tag_85:\n            /* \"#utility.yul\":3049:3161   */\n        tag_84:\n            /* \"#utility.yul\":3170:3209   */\n          tag_86\n            /* \"#utility.yul\":3202:3208   */\n          dup5\n            /* \"#utility.yul\":3197:3200   */\n          dup3\n            /* \"#utility.yul\":3192:3195   */\n          dup6\n            /* \"#utility.yul\":3170:3209   */\n          tag_39\n          jump\t// in\n        tag_86:\n            /* \"#utility.yul\":2889:3215   */\n          pop\n            /* \"#utility.yul\":2794:3215   */\n          swap4\n          swap3\n          pop\n          pop\n          pop\n          jump\t// out\n            /* \"#utility.yul\":3235:3590   */\n        tag_41:\n            /* \"#utility.yul\":3302:3307   */\n          0x00\n            /* \"#utility.yul\":3351:3354   */\n          dup3\n            /* \"#utility.yul\":3344:3348   */\n          0x1f\n            /* \"#utility.yul\":3336:3342   */\n          dup4\n            /* \"#utility.yul\":3332:3349   */\n          add\n            /* \"#utility.yul\":3328:3355   */\n          slt\n            /* \"#utility.yul\":3318:3440   */\n          tag_88\n          jumpi\n            /* \"#utility.yul\":3359:3438   */\n          tag_89\n          tag_32\n          jump\t// in\n        tag_89:\n            /* \"#utility.yul\":3318:3440   */\n        tag_88:\n            /* \"#utility.yul\":3469:3475   */\n          dup2\n            /* \"#utility.yul\":3463:3476   */\n          mload\n            /* \"#utility.yul\":3494:3584   */\n          tag_90\n            /* \"#utility.yul\":3580:3583   */\n          dup5\n            /* \"#utility.yul\":3572:3578   */\n          dup3\n            /* \"#utility.yul\":3565:3569   */\n          0x20\n            /* \"#utility.yul\":3557:3563   */\n          dup7\n            /* \"#utility.yul\":3553:3570   */\n          add\n            /* \"#utility.yul\":3494:3584   */\n          tag_40\n          jump\t// in\n        tag_90:\n            /* \"#utility.yul\":3485:3584   */\n          swap2\n          pop\n            /* \"#utility.yul\":3308:3590   */\n          pop\n            /* \"#utility.yul\":3235:3590   */\n          swap3\n          swap2\n          pop\n          pop\n          jump\t// out\n            /* \"#utility.yul\":3596:5092   */\n        tag_3:\n            /* \"#utility.yul\":3732:3738   */\n          0x00\n            /* \"#utility.yul\":3740:3746   */\n          dup1\n            /* \"#utility.yul\":3748:3754   */\n          0x00\n            /* \"#utility.yul\":3756:3762   */\n          dup1\n            /* \"#utility.yul\":3764:3770   */\n          0x00\n            /* \"#utility.yul\":3813:3816   */\n          0xa0\n            /* \"#utility.yul\":3801:3810   */\n          dup7\n            /* \"#utility.yul\":3792:3799   */\n          dup9\n            /* \"#utility.yul\":3788:3811   */\n          sub\n            /* \"#utility.yul\":3784:3817   */\n          slt\n            /* \"#utility.yul\":3781:3901   */\n          iszero\n          tag_92\n          jumpi\n            /* \"#utility.yul\":3820:3899   */\n          tag_93\n          tag_23\n          jump\t// in\n        tag_93:\n            /* \"#utility.yul\":3781:3901   */\n        tag_92:\n            /* \"#utility.yul\":3940:3941   */\n          0x00\n            /* \"#utility.yul\":3965:4029   */\n          tag_94\n            /* \"#utility.yul\":4021:4028   */\n          dup9\n            /* \"#utility.yul\":4012:4018   */\n          dup3\n            /* \"#utility.yul\":4001:4010   */\n          dup10\n            /* \"#utility.yul\":3997:4019   */\n          add\n            /* \"#utility.yul\":3965:4029   */\n          tag_27\n          jump\t// in\n        tag_94:\n            /* \"#utility.yul\":3955:4029   */\n          swap6\n          pop\n            /* \"#utility.yul\":3911:4039   */\n          pop\n            /* \"#utility.yul\":4078:4080   */\n          0x20\n            /* \"#utility.yul\":4104:4168   */\n          tag_95\n            /* \"#utility.yul\":4160:4167   */\n          dup9\n            /* \"#utility.yul\":4151:4157   */\n          dup3\n            /* \"#utility.yul\":4140:4149   */\n          dup10\n            /* \"#utility.yul\":4136:4158   */\n          add\n            /* \"#utility.yul\":4104:4168   */\n          tag_31\n          jump\t// in\n        tag_95:\n            /* \"#utility.yul\":4094:4168   */\n          swap5\n          pop\n            /* \"#utility.yul\":4049:4178   */\n          pop\n            /* \"#utility.yul\":4238:4240   */\n          0x40\n            /* \"#utility.yul\":4227:4236   */\n          dup7\n            /* \"#utility.yul\":4223:4241   */\n          add\n            /* \"#utility.yul\":4217:4242   */\n          mload\n            /* \"#utility.yul\":4269:4287   */\n          0xffffffffffffffff\n            /* \"#utility.yul\":4261:4267   */\n          dup2\n            /* \"#utility.yul\":4258:4288   */\n          gt\n            /* \"#utility.yul\":4255:4372   */\n          iszero\n          tag_96\n          jumpi\n            /* \"#utility.yul\":4291:4370   */\n          tag_97\n          tag_24\n          jump\t// in\n        tag_97:\n            /* \"#utility.yul\":4255:4372   */\n        tag_96:\n            /* \"#utility.yul\":4396:4470   */\n          tag_98\n            /* \"#utility.yul\":4462:4469   */\n          dup9\n            /* \"#utility.yul\":4453:4459   */\n          dup3\n            /* \"#utility.yul\":4442:4451   */\n          dup10\n            /* \"#utility.yul\":4438:4460   */\n          add\n            /* \"#utility.yul\":4396:4470   */\n          tag_41\n          jump\t// in\n        tag_98:\n            /* \"#utility.yul\":4386:4470   */\n          swap4\n          pop\n            /* \"#utility.yul\":4188:4480   */\n          pop\n            /* \"#utility.yul\":4540:4542   */\n          0x60\n            /* \"#utility.yul\":4529:4538   */\n          dup7\n            /* \"#utility.yul\":4525:4543   */\n          add\n            /* \"#utility.yul\":4519:4544   */\n          mload\n            /* \"#utility.yul\":4571:4589   */\n          0xffffffffffffffff\n            /* \"#utility.yul\":4563:4569   */\n          dup2\n            /* \"#utility.yul\":4560:4590   */\n          gt\n            /* \"#utility.yul\":4557:4674   */\n          iszero\n          tag_99\n          jumpi\n            /* \"#utility.yul\":4593:4672   */\n          tag_100\n          tag_24\n          jump\t// in\n        tag_100:\n            /* \"#utility.yul\":4557:4674   */\n        tag_99:\n            /* \"#utility.yul\":4698:4772   */\n          tag_101\n            /* \"#utility.yul\":4764:4771   */\n          dup9\n            /* \"#utility.yul\":4755:4761   */\n          dup3\n            /* \"#utility.yul\":4744:4753   */\n          dup10\n            /* \"#utility.yul\":4740:4762   */\n          add\n            /* \"#utility.yul\":4698:4772   */\n          tag_41\n          jump\t// in\n        tag_101:\n            /* \"#utility.yul\":4688:4772   */\n          swap3\n          pop\n            /* \"#utility.yul\":4490:4782   */\n          pop\n            /* \"#utility.yul\":4842:4845   */\n          0x80\n            /* \"#utility.yul\":4831:4840   */\n          dup7\n            /* \"#utility.yul\":4827:4846   */\n          add\n            /* \"#utility.yul\":4821:4847   */\n          mload\n            /* \"#utility.yul\":4874:4892   */\n          0xffffffffffffffff\n            /* \"#utility.yul\":4866:4872   */\n          dup2\n            /* \"#utility.yul\":4863:4893   */\n          gt\n            /* \"#utility.yul\":4860:4977   */\n          iszero\n          tag_102\n          jumpi\n            /* \"#utility.yul\":4896:4975   */\n          tag_103\n          tag_24\n          jump\t// in\n        tag_103:\n            /* \"#utility.yul\":4860:4977   */\n        tag_102:\n            /* \"#utility.yul\":5001:5075   */\n          tag_104\n            /* \"#utility.yul\":5067:5074   */\n          dup9\n            /* \"#utility.yul\":5058:5064   */\n          dup3\n            /* \"#utility.yul\":5047:5056   */\n          dup10\n            /* \"#utility.yul\":5043:5065   */\n          add\n            /* \"#utility.yul\":5001:5075   */\n          tag_41\n          jump\t// in\n        tag_104:\n            /* \"#utility.yul\":4991:5075   */\n          swap2\n          pop\n            /* \"#utility.yul\":4792:5085   */\n          pop\n            /* \"#utility.yul\":3596:5092   */\n          swap3\n          swap6\n          pop\n          swap3\n          swap6\n          swap1\n          swap4\n          pop\n          jump\t// out\n            /* \"#utility.yul\":5098:5278   */\n        tag_42:\n            /* \"#utility.yul\":5146:5223   */\n          0x4e487b7100000000000000000000000000000000000000000000000000000000\n            /* \"#utility.yul\":5143:5144   */\n          0x00\n            /* \"#utility.yul\":5136:5224   */\n          mstore\n            /* \"#utility.yul\":5243:5247   */\n          0x22\n            /* \"#utility.yul\":5240:5241   */\n          0x04\n            /* \"#utility.yul\":5233:5248   */\n          mstore\n            /* \"#utility.yul\":5267:5271   */\n          0x24\n            /* \"#utility.yul\":5264:5265   */\n          0x00\n            /* \"#utility.yul\":5257:5272   */\n          revert\n            /* \"#utility.yul\":5284:5604   */\n        tag_12:\n            /* \"#utility.yul\":5328:5334   */\n          0x00\n            /* \"#utility.yul\":5365:5366   */\n          0x02\n            /* \"#utility.yul\":5359:5363   */\n          dup3\n            /* \"#utility.yul\":5355:5367   */\n          div\n            /* \"#utility.yul\":5345:5367   */\n          swap1\n          pop\n            /* \"#utility.yul\":5412:5413   */\n          0x01\n            /* \"#utility.yul\":5406:5410   */\n          dup3\n            /* \"#utility.yul\":5402:5414   */\n          and\n            /* \"#utility.yul\":5433:5451   */\n          dup1\n            /* \"#utility.yul\":5423:5504   */\n          tag_107\n          jumpi\n            /* \"#utility.yul\":5489:5493   */\n          0x7f\n            /* \"#utility.yul\":5481:5487   */\n          dup3\n            /* \"#utility.yul\":5477:5494   */\n          and\n            /* \"#utility.yul\":5467:5494   */\n          swap2\n          pop\n            /* \"#utility.yul\":5423:5504   */\n        tag_107:\n            /* \"#utility.yul\":5551:5553   */\n          0x20\n            /* \"#utility.yul\":5543:5549   */\n          dup3\n            /* \"#utility.yul\":5540:5554   */\n          lt\n            /* \"#utility.yul\":5520:5538   */\n          dup2\n            /* \"#utility.yul\":5517:5555   */\n          eq\n            /* \"#utility.yul\":5514:5598   */\n          iszero\n          tag_108\n          jumpi\n            /* \"#utility.yul\":5570:5588   */\n          tag_109\n          tag_42\n          jump\t// in\n        tag_109:\n            /* \"#utility.yul\":5514:5598   */\n        tag_108:\n            /* \"#utility.yul\":5335:5604   */\n          pop\n            /* \"#utility.yul\":5284:5604   */\n          swap2\n          swap1\n          pop\n          jump\t// out\n            /* \"Project.sol\":525:2972  contract Project {... */\n        tag_10:\n          dataSize(sub_0)\n          dup1\n          dataOffset(sub_0)\n          0x00\n          codecopy\n          0x00\n          return\n        stop\n\n        sub_0: assembly {\n                /* \"Project.sol\":525:2972  contract Project {... */\n              mstore(0x40, 0x80)\n              jumpi(tag_1, lt(calldatasize, 0x04))\n              shr(0xe0, calldataload(0x00))\n              dup1\n              0x82fde093\n              gt\n              tag_16\n              jumpi\n              dup1\n              0xd7bb99ba\n              gt\n              tag_17\n              jumpi\n              dup1\n              0xd7bb99ba\n              eq\n              tag_12\n              jumpi\n              dup1\n              0xd7d1bbdb\n              eq\n              tag_13\n              jumpi\n              dup1\n              0xea2562e0\n              eq\n              tag_14\n              jumpi\n              dup1\n              0xf3ccaac0\n              eq\n              tag_15\n              jumpi\n              jump(tag_1)\n            tag_17:\n              dup1\n              0x82fde093\n              eq\n              tag_9\n              jumpi\n              dup1\n              0x8a9cfd55\n              eq\n              tag_10\n              jumpi\n              dup1\n              0x937e09b1\n              eq\n              tag_11\n              jumpi\n              jump(tag_1)\n            tag_16:\n              dup1\n              0x3410452a\n              gt\n              tag_18\n              jumpi\n              dup1\n              0x3410452a\n              eq\n              tag_5\n              jumpi\n              dup1\n              0x4051ddac\n              eq\n              tag_6\n              jumpi\n              dup1\n              0x481c6a75\n              eq\n              tag_7\n              jumpi\n              dup1\n              0x81d12c58\n              eq\n              tag_8\n              jumpi\n              jump(tag_1)\n            tag_18:\n              dup1\n              0x03441006\n              eq\n              tag_2\n              jumpi\n              dup1\n              0x06fdde03\n              eq\n              tag_3\n              jumpi\n              dup1\n              0x0a144391\n              eq\n              tag_4\n              jumpi\n            tag_1:\n              0x00\n              dup1\n              revert\n                /* \"Project.sol\":2186:2493  function finalizeRequest(uint index) public restricted {... */\n            tag_2:\n              callvalue\n              dup1\n              iszero\n              tag_19\n              jumpi\n              0x00\n              dup1\n              revert\n            tag_19:\n              pop\n              tag_20\n              0x04\n              dup1\n              calldatasize\n              sub\n              dup2\n              add\n              swap1\n              tag_21\n              swap2\n              swap1\n              tag_22\n              jump\t// in\n            tag_21:\n              tag_23\n              jump\t// in\n            tag_20:\n              stop\n                /* \"Project.sol\":921:939  string public name */\n            tag_3:\n              callvalue\n              dup1\n              iszero\n              tag_24\n              jumpi\n              0x00\n              dup1\n              revert\n            tag_24:\n              pop\n              tag_25\n              tag_26\n              jump\t// in\n            tag_25:\n              mload(0x40)\n              tag_27\n              swap2\n              swap1\n              tag_28\n              jump\t// in\n            tag_27:\n              mload(0x40)\n              dup1\n              swap2\n              sub\n              swap1\n              return\n                /* \"Project.sol\":842:883  mapping(address => bool) public approvers */\n            tag_4:\n              callvalue\n              dup1\n              iszero\n              tag_29\n              jumpi\n              0x00\n              dup1\n              revert\n            tag_29:\n              pop\n              tag_30\n              0x04\n              dup1\n              calldatasize\n              sub\n              dup2\n              add\n              swap1\n              tag_31\n              swap2\n              swap1\n              tag_32\n              jump\t// in\n            tag_31:\n              tag_33\n              jump\t// in\n            tag_30:\n              mload(0x40)\n              tag_34\n              swap2\n              swap1\n              tag_35\n              jump\t// in\n            tag_34:\n              mload(0x40)\n              dup1\n              swap2\n              sub\n              swap1\n              return\n                /* \"Project.sol\":2876:2970  function getRequestsCount() public view returns (uint) {... */\n            tag_5:\n              callvalue\n              dup1\n              iszero\n              tag_36\n              jumpi\n              0x00\n              dup1\n              revert\n            tag_36:\n              pop\n              tag_37\n              tag_38\n              jump\t// in\n            tag_37:\n              mload(0x40)\n              tag_39\n              swap2\n              swap1\n              tag_40\n              jump\t// in\n            tag_39:\n              mload(0x40)\n              dup1\n              swap2\n              sub\n              swap1\n              return\n                /* \"Project.sol\":2503:2866  function getSummary() public view returns (... */\n            tag_6:\n              callvalue\n              dup1\n              iszero\n              tag_41\n              jumpi\n              0x00\n              dup1\n              revert\n            tag_41:\n              pop\n              tag_42\n              tag_43\n              jump\t// in\n            tag_42:\n              mload(0x40)\n              tag_44\n              swap9\n              swap8\n              swap7\n              swap6\n              swap5\n              swap4\n              swap3\n              swap2\n              swap1\n              tag_45\n              jump\t// in\n            tag_44:\n              mload(0x40)\n              dup1\n              swap2\n              sub\n              swap1\n              return\n                /* \"Project.sol\":777:799  address public manager */\n            tag_7:\n              callvalue\n              dup1\n              iszero\n              tag_46\n              jumpi\n              0x00\n              dup1\n              revert\n            tag_46:\n              pop\n              tag_47\n              tag_48\n              jump\t// in\n            tag_47:\n              mload(0x40)\n              tag_49\n              swap2\n              swap1\n              tag_50\n              jump\t// in\n            tag_49:\n              mload(0x40)\n              dup1\n              swap2\n              sub\n              swap1\n              return\n                /* \"Project.sol\":746:771  Request[] public requests */\n            tag_8:\n              callvalue\n              dup1\n              iszero\n              tag_51\n              jumpi\n              0x00\n              dup1\n              revert\n            tag_51:\n              pop\n              tag_52\n              0x04\n              dup1\n              calldatasize\n              sub\n              dup2\n              add\n              swap1\n              tag_53\n              swap2\n              swap1\n              tag_22\n              jump\t// in\n            tag_53:\n              tag_54\n              jump\t// in\n            tag_52:\n              mload(0x40)\n              tag_55\n              swap6\n              swap5\n              swap4\n              swap3\n              swap2\n              swap1\n              tag_56\n              jump\t// in\n            tag_55:\n              mload(0x40)\n              dup1\n              swap2\n              sub\n              swap1\n              return\n                /* \"Project.sol\":889:915  uint public approversCount */\n            tag_9:\n              callvalue\n              dup1\n              iszero\n              tag_57\n              jumpi\n              0x00\n              dup1\n              revert\n            tag_57:\n              pop\n              tag_58\n              tag_59\n              jump\t// in\n            tag_58:\n              mload(0x40)\n              tag_60\n              swap2\n              swap1\n              tag_40\n              jump\t// in\n            tag_60:\n              mload(0x40)\n              dup1\n              swap2\n              sub\n              swap1\n              return\n                /* \"Project.sol\":1549:1903  function createRequest(string memory description, uint value, address recipient) public restricted {... */\n            tag_10:\n              callvalue\n              dup1\n              iszero\n              tag_61\n              jumpi\n              0x00\n              dup1\n              revert\n            tag_61:\n              pop\n              tag_62\n              0x04\n              dup1\n              calldatasize\n              sub\n              dup2\n              add\n              swap1\n              tag_63\n              swap2\n              swap1\n              tag_64\n              jump\t// in\n            tag_63:\n              tag_65\n              jump\t// in\n            tag_62:\n              stop\n                /* \"Project.sol\":805:836  uint public minimumContribution */\n            tag_11:\n              callvalue\n              dup1\n              iszero\n              tag_66\n              jumpi\n              0x00\n              dup1\n              revert\n            tag_66:\n              pop\n              tag_67\n              tag_68\n              jump\t// in\n            tag_67:\n              mload(0x40)\n              tag_69\n              swap2\n              swap1\n              tag_40\n              jump\t// in\n            tag_69:\n              mload(0x40)\n              dup1\n              swap2\n              sub\n              swap1\n              return\n                /* \"Project.sol\":1384:1543  function contribute() public payable {... */\n            tag_12:\n              tag_70\n              tag_71\n              jump\t// in\n            tag_70:\n              stop\n                /* \"Project.sol\":1909:2180  function approveRequest(uint index) public {... */\n            tag_13:\n              callvalue\n              dup1\n              iszero\n              tag_72\n              jumpi\n              0x00\n              dup1\n              revert\n            tag_72:\n              pop\n              tag_73\n              0x04\n              dup1\n              calldatasize\n              sub\n              dup2\n              add\n              swap1\n              tag_74\n              swap2\n              swap1\n              tag_22\n              jump\t// in\n            tag_74:\n              tag_75\n              jump\t// in\n            tag_73:\n              stop\n                /* \"Project.sol\":945:966  string public descrip */\n            tag_14:\n              callvalue\n              dup1\n              iszero\n              tag_76\n              jumpi\n              0x00\n              dup1\n              revert\n            tag_76:\n              pop\n              tag_77\n              tag_78\n              jump\t// in\n            tag_77:\n              mload(0x40)\n              tag_79\n              swap2\n              swap1\n              tag_28\n              jump\t// in\n            tag_79:\n              mload(0x40)\n              dup1\n              swap2\n              sub\n              swap1\n              return\n                /* \"Project.sol\":972:991  string public image */\n            tag_15:\n              callvalue\n              dup1\n              iszero\n              tag_80\n              jumpi\n              0x00\n              dup1\n              revert\n            tag_80:\n              pop\n              tag_81\n              tag_82\n              jump\t// in\n            tag_81:\n              mload(0x40)\n              tag_83\n              swap2\n              swap1\n              tag_28\n              jump\t// in\n            tag_83:\n              mload(0x40)\n              dup1\n              swap2\n              sub\n              swap1\n              return\n                /* \"Project.sol\":2186:2493  function finalizeRequest(uint index) public restricted {... */\n            tag_23:\n                /* \"Project.sol\":1052:1059  manager */\n              0x01\n              0x00\n              swap1\n              sload\n              swap1\n              0x0100\n              exp\n              swap1\n              div\n              0xffffffffffffffffffffffffffffffffffffffff\n              and\n                /* \"Project.sol\":1038:1059  msg.sender == manager */\n              0xffffffffffffffffffffffffffffffffffffffff\n              and\n                /* \"Project.sol\":1038:1048  msg.sender */\n              caller\n                /* \"Project.sol\":1038:1059  msg.sender == manager */\n              0xffffffffffffffffffffffffffffffffffffffff\n              and\n              eq\n                /* \"Project.sol\":1030:1060  require(msg.sender == manager) */\n              tag_85\n              jumpi\n              0x00\n              dup1\n              revert\n            tag_85:\n                /* \"Project.sol\":2251:2274  Request storage request */\n              0x00\n                /* \"Project.sol\":2277:2285  requests */\n              dup1\n                /* \"Project.sol\":2286:2291  index */\n              dup3\n                /* \"Project.sol\":2277:2292  requests[index] */\n              dup2\n              sload\n              dup2\n              lt\n              tag_87\n              jumpi\n              tag_88\n              tag_89\n              jump\t// in\n            tag_88:\n            tag_87:\n              swap1\n              0x00\n              mstore\n              keccak256(0x00, 0x20)\n              swap1\n              0x05\n              mul\n              add\n                /* \"Project.sol\":2251:2292  Request storage request = requests[index] */\n              swap1\n              pop\n                /* \"Project.sol\":2353:2354  2 */\n              0x02\n                /* \"Project.sol\":2336:2350  approversCount */\n              sload(0x04)\n                /* \"Project.sol\":2336:2354  approversCount / 2 */\n              tag_91\n              swap2\n              swap1\n              tag_92\n              jump\t// in\n            tag_91:\n                /* \"Project.sol\":2311:2318  request */\n              dup2\n                /* \"Project.sol\":2311:2332  request.approvalCount */\n              0x03\n              add\n              sload\n                /* \"Project.sol\":2311:2355  request.approvalCount > (approversCount / 2) */\n              gt\n                /* \"Project.sol\":2303:2356  require(request.approvalCount > (approversCount / 2)) */\n              tag_93\n              jumpi\n              0x00\n              dup1\n              revert\n            tag_93:\n                /* \"Project.sol\":2375:2382  request */\n              dup1\n                /* \"Project.sol\":2375:2391  request.complete */\n              0x02\n              add\n              0x14\n              swap1\n              sload\n              swap1\n              0x0100\n              exp\n              swap1\n              div\n              0xff\n              and\n                /* \"Project.sol\":2374:2391  !request.complete */\n              iszero\n                /* \"Project.sol\":2366:2392  require(!request.complete) */\n              tag_94\n              jumpi\n              0x00\n              dup1\n              revert\n            tag_94:\n                /* \"Project.sol\":2411:2418  request */\n              dup1\n                /* \"Project.sol\":2411:2428  request.recipient */\n              0x02\n              add\n              0x00\n              swap1\n              sload\n              swap1\n              0x0100\n              exp\n              swap1\n              div\n              0xffffffffffffffffffffffffffffffffffffffff\n              and\n                /* \"Project.sol\":2403:2438  payable(request.recipient).transfer */\n              0xffffffffffffffffffffffffffffffffffffffff\n              and\n                /* \"Project.sol\":2403:2453  payable(request.recipient).transfer(request.value) */\n              0x08fc\n                /* \"Project.sol\":2439:2446  request */\n              dup3\n                /* \"Project.sol\":2439:2452  request.value */\n              0x01\n              add\n              sload\n                /* \"Project.sol\":2403:2453  payable(request.recipient).transfer(request.value) */\n              swap1\n              dup2\n              iszero\n              mul\n              swap1\n              mload(0x40)\n              0x00\n              mload(0x40)\n              dup1\n              dup4\n              sub\n              dup2\n              dup6\n              dup9\n              dup9\n              call\n              swap4\n              pop\n              pop\n              pop\n              pop\n              iszero\n              dup1\n              iszero\n              tag_96\n              jumpi\n              returndatasize\n              0x00\n              dup1\n              returndatacopy\n              revert(0x00, returndatasize)\n            tag_96:\n              pop\n                /* \"Project.sol\":2482:2486  true */\n              0x01\n                /* \"Project.sol\":2463:2470  request */\n              dup2\n                /* \"Project.sol\":2463:2479  request.complete */\n              0x02\n              add\n              0x14\n                /* \"Project.sol\":2463:2486  request.complete = true */\n              0x0100\n              exp\n              dup2\n              sload\n              dup2\n              0xff\n              mul\n              not\n              and\n              swap1\n              dup4\n              iszero\n              iszero\n              mul\n              or\n              swap1\n              sstore\n              pop\n                /* \"Project.sol\":2241:2493  {... */\n              pop\n                /* \"Project.sol\":2186:2493  function finalizeRequest(uint index) public restricted {... */\n              pop\n              jump\t// out\n                /* \"Project.sol\":921:939  string public name */\n            tag_26:\n              0x05\n              dup1\n              sload\n              tag_97\n              swap1\n              tag_98\n              jump\t// in\n            tag_97:\n              dup1\n              0x1f\n              add\n              0x20\n              dup1\n              swap2\n              div\n              mul\n              0x20\n              add\n              mload(0x40)\n              swap1\n              dup2\n              add\n              0x40\n              mstore\n              dup1\n              swap3\n              swap2\n              swap1\n              dup2\n              dup2\n              mstore\n              0x20\n              add\n              dup3\n              dup1\n              sload\n              tag_99\n              swap1\n              tag_98\n              jump\t// in\n            tag_99:\n              dup1\n              iszero\n              tag_100\n              jumpi\n              dup1\n              0x1f\n              lt\n              tag_101\n              jumpi\n              0x0100\n              dup1\n              dup4\n              sload\n              div\n              mul\n              dup4\n              mstore\n              swap2\n              0x20\n              add\n              swap2\n              jump(tag_100)\n            tag_101:\n              dup3\n              add\n              swap2\n              swap1\n              0x00\n              mstore\n              keccak256(0x00, 0x20)\n              swap1\n            tag_102:\n              dup2\n              sload\n              dup2\n              mstore\n              swap1\n              0x01\n              add\n              swap1\n              0x20\n              add\n              dup1\n              dup4\n              gt\n              tag_102\n              jumpi\n              dup3\n              swap1\n              sub\n              0x1f\n              and\n              dup3\n              add\n              swap2\n            tag_100:\n              pop\n              pop\n              pop\n              pop\n              pop\n              dup2\n              jump\t// out\n                /* \"Project.sol\":842:883  mapping(address => bool) public approvers */\n            tag_33:\n              mstore(0x20, 0x03)\n              dup1\n              0x00\n              mstore\n              keccak256(0x00, 0x40)\n              0x00\n              swap2\n              pop\n              sload\n              swap1\n              0x0100\n              exp\n              swap1\n              div\n              0xff\n              and\n              dup2\n              jump\t// out\n                /* \"Project.sol\":2876:2970  function getRequestsCount() public view returns (uint) {... */\n            tag_38:\n                /* \"Project.sol\":2925:2929  uint */\n              0x00\n                /* \"Project.sol\":2948:2956  requests */\n              dup1\n                /* \"Project.sol\":2948:2963  requests.length */\n              dup1\n              sload\n              swap1\n              pop\n                /* \"Project.sol\":2941:2963  return requests.length */\n              swap1\n              pop\n                /* \"Project.sol\":2876:2970  function getRequestsCount() public view returns (uint) {... */\n              swap1\n              jump\t// out\n                /* \"Project.sol\":2503:2866  function getSummary() public view returns (... */\n            tag_43:\n                /* \"Project.sol\":2553:2557  uint */\n              0x00\n                /* \"Project.sol\":2559:2563  uint */\n              dup1\n                /* \"Project.sol\":2565:2569  uint */\n              0x00\n                /* \"Project.sol\":2571:2575  uint */\n              dup1\n                /* \"Project.sol\":2577:2584  address */\n              0x00\n                /* \"Project.sol\":2586:2599  string memory */\n              0x60\n                /* \"Project.sol\":2601:2614  string memory */\n              dup1\n                /* \"Project.sol\":2616:2629  string memory */\n              0x60\n                /* \"Project.sol\":2667:2686  minimumContribution */\n              sload(0x02)\n                /* \"Project.sol\":2698:2719  address(this).balance */\n              selfbalance\n                /* \"Project.sol\":2731:2739  requests */\n              0x00\n                /* \"Project.sol\":2731:2746  requests.length */\n              dup1\n              sload\n              swap1\n              pop\n                /* \"Project.sol\":2758:2772  approversCount */\n              sload(0x04)\n                /* \"Project.sol\":2784:2791  manager */\n              0x01\n              0x00\n              swap1\n              sload\n              swap1\n              0x0100\n              exp\n              swap1\n              div\n              0xffffffffffffffffffffffffffffffffffffffff\n              and\n                /* \"Project.sol\":2805:2809  name */\n              0x05\n                /* \"Project.sol\":2823:2830  descrip */\n              0x06\n                /* \"Project.sol\":2844:2849  image */\n              0x07\n                /* \"Project.sol\":2648:2859  return (... */\n              dup3\n              dup1\n              sload\n              tag_105\n              swap1\n              tag_98\n              jump\t// in\n            tag_105:\n              dup1\n              0x1f\n              add\n              0x20\n              dup1\n              swap2\n              div\n              mul\n              0x20\n              add\n              mload(0x40)\n              swap1\n              dup2\n              add\n              0x40\n              mstore\n              dup1\n              swap3\n              swap2\n              swap1\n              dup2\n              dup2\n              mstore\n              0x20\n              add\n              dup3\n              dup1\n              sload\n              tag_106\n              swap1\n              tag_98\n              jump\t// in\n            tag_106:\n              dup1\n              iszero\n              tag_107\n              jumpi\n              dup1\n              0x1f\n              lt\n              tag_108\n              jumpi\n              0x0100\n              dup1\n              dup4\n              sload\n              div\n              mul\n              dup4\n              mstore\n              swap2\n              0x20\n              add\n              swap2\n              jump(tag_107)\n            tag_108:\n              dup3\n              add\n              swap2\n              swap1\n              0x00\n              mstore\n              keccak256(0x00, 0x20)\n              swap1\n            tag_109:\n              dup2\n              sload\n              dup2\n              mstore\n              swap1\n              0x01\n              add\n              swap1\n              0x20\n              add\n              dup1\n              dup4\n              gt\n              tag_109\n              jumpi\n              dup3\n              swap1\n              sub\n              0x1f\n              and\n              dup3\n              add\n              swap2\n            tag_107:\n              pop\n              pop\n              pop\n              pop\n              pop\n              swap3\n              pop\n              dup2\n              dup1\n              sload\n              tag_110\n              swap1\n              tag_98\n              jump\t// in\n            tag_110:\n              dup1\n              0x1f\n              add\n              0x20\n              dup1\n              swap2\n              div\n              mul\n              0x20\n              add\n              mload(0x40)\n              swap1\n              dup2\n              add\n              0x40\n              mstore\n              dup1\n              swap3\n              swap2\n              swap1\n              dup2\n              dup2\n              mstore\n              0x20\n              add\n              dup3\n              dup1\n              sload\n              tag_111\n              swap1\n              tag_98\n              jump\t// in\n            tag_111:\n              dup1\n              iszero\n              tag_112\n              jumpi\n              dup1\n              0x1f\n              lt\n              tag_113\n              jumpi\n              0x0100\n              dup1\n              dup4\n              sload\n              div\n              mul\n              dup4\n              mstore\n              swap2\n              0x20\n              add\n              swap2\n              jump(tag_112)\n            tag_113:\n              dup3\n              add\n              swap2\n              swap1\n              0x00\n              mstore\n              keccak256(0x00, 0x20)\n              swap1\n            tag_114:\n              dup2\n              sload\n              dup2\n              mstore\n              swap1\n              0x01\n              add\n              swap1\n              0x20\n              add\n              dup1\n              dup4\n              gt\n              tag_114\n              jumpi\n              dup3\n              swap1\n              sub\n              0x1f\n              and\n              dup3\n              add\n              swap2\n            tag_112:\n              pop\n              pop\n              pop\n              pop\n              pop\n              swap2\n              pop\n              dup1\n              dup1\n              sload\n              tag_115\n              swap1\n              tag_98\n              jump\t// in\n            tag_115:\n              dup1\n              0x1f\n              add\n              0x20\n              dup1\n              swap2\n              div\n              mul\n              0x20\n              add\n              mload(0x40)\n              swap1\n              dup2\n              add\n              0x40\n              mstore\n              dup1\n              swap3\n              swap2\n              swap1\n              dup2\n              dup2\n              mstore\n              0x20\n              add\n              dup3\n              dup1\n              sload\n              tag_116\n              swap1\n              tag_98\n              jump\t// in\n            tag_116:\n              dup1\n              iszero\n              tag_117\n              jumpi\n              dup1\n              0x1f\n              lt\n              tag_118\n              jumpi\n              0x0100\n              dup1\n              dup4\n              sload\n              div\n              mul\n              dup4\n              mstore\n              swap2\n              0x20\n              add\n              swap2\n              jump(tag_117)\n            tag_118:\n              dup3\n              add\n              swap2\n              swap1\n              0x00\n              mstore\n              keccak256(0x00, 0x20)\n              swap1\n            tag_119:\n              dup2\n              sload\n              dup2\n              mstore\n              swap1\n              0x01\n              add\n              swap1\n              0x20\n              add\n              dup1\n              dup4\n              gt\n              tag_119\n              jumpi\n              dup3\n              swap1\n              sub\n              0x1f\n              and\n              dup3\n              add\n              swap2\n            tag_117:\n              pop\n              pop\n              pop\n              pop\n              pop\n              swap1\n              pop\n              swap8\n              pop\n              swap8\n              pop\n              swap8\n              pop\n              swap8\n              pop\n              swap8\n              pop\n              swap8\n              pop\n              swap8\n              pop\n              swap8\n              pop\n                /* \"Project.sol\":2503:2866  function getSummary() public view returns (... */\n              swap1\n              swap2\n              swap3\n              swap4\n              swap5\n              swap6\n              swap7\n              swap8\n              jump\t// out\n                /* \"Project.sol\":777:799  address public manager */\n            tag_48:\n              0x01\n              0x00\n              swap1\n              sload\n              swap1\n              0x0100\n              exp\n              swap1\n              div\n              0xffffffffffffffffffffffffffffffffffffffff\n              and\n              dup2\n              jump\t// out\n                /* \"Project.sol\":746:771  Request[] public requests */\n            tag_54:\n              0x00\n              dup2\n              dup2\n              sload\n              dup2\n              lt\n              tag_120\n              jumpi\n              0x00\n              dup1\n              revert\n            tag_120:\n              swap1\n              0x00\n              mstore\n              keccak256(0x00, 0x20)\n              swap1\n              0x05\n              mul\n              add\n              0x00\n              swap2\n              pop\n              swap1\n              pop\n              dup1\n              0x00\n              add\n              dup1\n              sload\n              tag_122\n              swap1\n              tag_98\n              jump\t// in\n            tag_122:\n              dup1\n              0x1f\n              add\n              0x20\n              dup1\n              swap2\n              div\n              mul\n              0x20\n              add\n              mload(0x40)\n              swap1\n              dup2\n              add\n              0x40\n              mstore\n              dup1\n              swap3\n              swap2\n              swap1\n              dup2\n              dup2\n              mstore\n              0x20\n              add\n              dup3\n              dup1\n              sload\n              tag_123\n              swap1\n              tag_98\n              jump\t// in\n            tag_123:\n              dup1\n              iszero\n              tag_124\n              jumpi\n              dup1\n              0x1f\n              lt\n              tag_125\n              jumpi\n              0x0100\n              dup1\n              dup4\n              sload\n              div\n              mul\n              dup4\n              mstore\n              swap2\n              0x20\n              add\n              swap2\n              jump(tag_124)\n            tag_125:\n              dup3\n              add\n              swap2\n              swap1\n              0x00\n              mstore\n              keccak256(0x00, 0x20)\n              swap1\n            tag_126:\n              dup2\n              sload\n              dup2\n              mstore\n              swap1\n              0x01\n              add\n              swap1\n              0x20\n              add\n              dup1\n              dup4\n              gt\n              tag_126\n              jumpi\n              dup3\n              swap1\n              sub\n              0x1f\n              and\n              dup3\n              add\n              swap2\n            tag_124:\n              pop\n              pop\n              pop\n              pop\n              pop\n              swap1\n              dup1\n              0x01\n              add\n              sload\n              swap1\n              dup1\n              0x02\n              add\n              0x00\n              swap1\n              sload\n              swap1\n              0x0100\n              exp\n              swap1\n              div\n              0xffffffffffffffffffffffffffffffffffffffff\n              and\n              swap1\n              dup1\n              0x02\n              add\n              0x14\n              swap1\n              sload\n              swap1\n              0x0100\n              exp\n              swap1\n              div\n              0xff\n              and\n              swap1\n              dup1\n              0x03\n              add\n              sload\n              swap1\n              pop\n              dup6\n              jump\t// out\n                /* \"Project.sol\":889:915  uint public approversCount */\n            tag_59:\n              sload(0x04)\n              dup2\n              jump\t// out\n                /* \"Project.sol\":1549:1903  function createRequest(string memory description, uint value, address recipient) public restricted {... */\n            tag_65:\n                /* \"Project.sol\":1052:1059  manager */\n              0x01\n              0x00\n              swap1\n              sload\n              swap1\n              0x0100\n              exp\n              swap1\n              div\n              0xffffffffffffffffffffffffffffffffffffffff\n              and\n                /* \"Project.sol\":1038:1059  msg.sender == manager */\n              0xffffffffffffffffffffffffffffffffffffffff\n              and\n                /* \"Project.sol\":1038:1048  msg.sender */\n              caller\n                /* \"Project.sol\":1038:1059  msg.sender == manager */\n              0xffffffffffffffffffffffffffffffffffffffff\n              and\n              eq\n                /* \"Project.sol\":1030:1060  require(msg.sender == manager) */\n              tag_128\n              jumpi\n              0x00\n              dup1\n              revert\n            tag_128:\n                /* \"Project.sol\":1658:1684  Request storage newRequest */\n              0x00\n                /* \"Project.sol\":1687:1695  requests */\n              dup1\n                /* \"Project.sol\":1687:1702  requests.push() */\n              0x01\n              dup2\n              0x01\n              dup2\n              sload\n              add\n              dup1\n              dup3\n              sstore\n              dup1\n              swap2\n              pop\n              pop\n              sub\n              swap1\n              0x00\n              mstore\n              keccak256(0x00, 0x20)\n              swap1\n              0x05\n              mul\n              add\n                /* \"Project.sol\":1658:1702  Request storage newRequest = requests.push() */\n              swap1\n              pop\n                /* \"Project.sol\":1738:1749  description */\n              dup4\n                /* \"Project.sol\":1713:1723  newRequest */\n              dup2\n                /* \"Project.sol\":1713:1735  newRequest.description */\n              0x00\n              add\n                /* \"Project.sol\":1713:1749  newRequest.description = description */\n              swap1\n              dup1\n              mload\n              swap1\n              0x20\n              add\n              swap1\n              tag_131\n              swap3\n              swap2\n              swap1\n              tag_132\n              jump\t// in\n            tag_131:\n              pop\n                /* \"Project.sol\":1777:1782  value */\n              dup3\n                /* \"Project.sol\":1759:1769  newRequest */\n              dup2\n                /* \"Project.sol\":1759:1775  newRequest.value */\n              0x01\n              add\n                /* \"Project.sol\":1759:1782  newRequest.value= value */\n              dup2\n              swap1\n              sstore\n              pop\n                /* \"Project.sol\":1814:1823  recipient */\n              dup2\n                /* \"Project.sol\":1792:1802  newRequest */\n              dup2\n                /* \"Project.sol\":1792:1812  newRequest.recipient */\n              0x02\n              add\n              0x00\n                /* \"Project.sol\":1792:1823  newRequest.recipient= recipient */\n              0x0100\n              exp\n              dup2\n              sload\n              dup2\n              0xffffffffffffffffffffffffffffffffffffffff\n              mul\n              not\n              and\n              swap1\n              dup4\n              0xffffffffffffffffffffffffffffffffffffffff\n              and\n              mul\n              or\n              swap1\n              sstore\n              pop\n                /* \"Project.sol\":1854:1859  false */\n              0x00\n                /* \"Project.sol\":1833:1843  newRequest */\n              dup2\n                /* \"Project.sol\":1833:1852  newRequest.complete */\n              0x02\n              add\n              0x14\n                /* \"Project.sol\":1833:1859  newRequest.complete= false */\n              0x0100\n              exp\n              dup2\n              sload\n              dup2\n              0xff\n              mul\n              not\n              and\n              swap1\n              dup4\n              iszero\n              iszero\n              mul\n              or\n              swap1\n              sstore\n              pop\n                /* \"Project.sol\":1895:1896  0 */\n              0x00\n                /* \"Project.sol\":1869:1879  newRequest */\n              dup2\n                /* \"Project.sol\":1869:1893  newRequest.approvalCount */\n              0x03\n              add\n                /* \"Project.sol\":1869:1896  newRequest.approvalCount= 0 */\n              dup2\n              swap1\n              sstore\n              pop\n                /* \"Project.sol\":1648:1903  {... */\n              pop\n                /* \"Project.sol\":1549:1903  function createRequest(string memory description, uint value, address recipient) public restricted {... */\n              pop\n              pop\n              pop\n              jump\t// out\n                /* \"Project.sol\":805:836  uint public minimumContribution */\n            tag_68:\n              sload(0x02)\n              dup2\n              jump\t// out\n                /* \"Project.sol\":1384:1543  function contribute() public payable {... */\n            tag_71:\n                /* \"Project.sol\":1451:1470  minimumContribution */\n              sload(0x02)\n                /* \"Project.sol\":1439:1448  msg.value */\n              callvalue\n                /* \"Project.sol\":1439:1470  msg.value > minimumContribution */\n              gt\n                /* \"Project.sol\":1431:1471  require(msg.value > minimumContribution) */\n              tag_134\n              jumpi\n              0x00\n              dup1\n              revert\n            tag_134:\n                /* \"Project.sol\":1506:1510  true */\n              0x01\n                /* \"Project.sol\":1482:1491  approvers */\n              0x03\n                /* \"Project.sol\":1482:1503  approvers[msg.sender] */\n              0x00\n                /* \"Project.sol\":1492:1502  msg.sender */\n              caller\n                /* \"Project.sol\":1482:1503  approvers[msg.sender] */\n              0xffffffffffffffffffffffffffffffffffffffff\n              and\n              0xffffffffffffffffffffffffffffffffffffffff\n              and\n              dup2\n              mstore\n              0x20\n              add\n              swap1\n              dup2\n              mstore\n              0x20\n              add\n              0x00\n              keccak256\n              0x00\n                /* \"Project.sol\":1482:1510  approvers[msg.sender] = true */\n              0x0100\n              exp\n              dup2\n              sload\n              dup2\n              0xff\n              mul\n              not\n              and\n              swap1\n              dup4\n              iszero\n              iszero\n              mul\n              or\n              swap1\n              sstore\n              pop\n                /* \"Project.sol\":1520:1534  approversCount */\n              0x04\n              0x00\n                /* \"Project.sol\":1520:1536  approversCount++ */\n              dup2\n              sload\n              dup1\n              swap3\n              swap2\n              swap1\n              tag_135\n              swap1\n              tag_136\n              jump\t// in\n            tag_135:\n              swap2\n              swap1\n              pop\n              sstore\n              pop\n                /* \"Project.sol\":1384:1543  function contribute() public payable {... */\n              jump\t// out\n                /* \"Project.sol\":1909:2180  function approveRequest(uint index) public {... */\n            tag_75:\n                /* \"Project.sol\":1962:1985  Request storage request */\n              0x00\n                /* \"Project.sol\":1988:1996  requests */\n              dup1\n                /* \"Project.sol\":1997:2002  index */\n              dup3\n                /* \"Project.sol\":1988:2003  requests[index] */\n              dup2\n              sload\n              dup2\n              lt\n              tag_138\n              jumpi\n              tag_139\n              tag_89\n              jump\t// in\n            tag_139:\n            tag_138:\n              swap1\n              0x00\n              mstore\n              keccak256(0x00, 0x20)\n              swap1\n              0x05\n              mul\n              add\n                /* \"Project.sol\":1962:2003  Request storage request = requests[index] */\n              swap1\n              pop\n                /* \"Project.sol\":2022:2031  approvers */\n              0x03\n                /* \"Project.sol\":2022:2043  approvers[msg.sender] */\n              0x00\n                /* \"Project.sol\":2032:2042  msg.sender */\n              caller\n                /* \"Project.sol\":2022:2043  approvers[msg.sender] */\n              0xffffffffffffffffffffffffffffffffffffffff\n              and\n              0xffffffffffffffffffffffffffffffffffffffff\n              and\n              dup2\n              mstore\n              0x20\n              add\n              swap1\n              dup2\n              mstore\n              0x20\n              add\n              0x00\n              keccak256\n              0x00\n              swap1\n              sload\n              swap1\n              0x0100\n              exp\n              swap1\n              div\n              0xff\n              and\n                /* \"Project.sol\":2014:2044  require(approvers[msg.sender]) */\n              tag_141\n              jumpi\n              0x00\n              dup1\n              revert\n            tag_141:\n                /* \"Project.sol\":2063:2070  request */\n              dup1\n                /* \"Project.sol\":2063:2080  request.approvals */\n              0x04\n              add\n                /* \"Project.sol\":2063:2092  request.approvals[msg.sender] */\n              0x00\n                /* \"Project.sol\":2081:2091  msg.sender */\n              caller\n                /* \"Project.sol\":2063:2092  request.approvals[msg.sender] */\n              0xffffffffffffffffffffffffffffffffffffffff\n              and\n              0xffffffffffffffffffffffffffffffffffffffff\n              and\n              dup2\n              mstore\n              0x20\n              add\n              swap1\n              dup2\n              mstore\n              0x20\n              add\n              0x00\n              keccak256\n              0x00\n              swap1\n              sload\n              swap1\n              0x0100\n              exp\n              swap1\n              div\n              0xff\n              and\n                /* \"Project.sol\":2062:2092  !request.approvals[msg.sender] */\n              iszero\n                /* \"Project.sol\":2054:2093  require(!request.approvals[msg.sender]) */\n              tag_142\n              jumpi\n              0x00\n              dup1\n              revert\n            tag_142:\n                /* \"Project.sol\":2136:2140  true */\n              0x01\n                /* \"Project.sol\":2104:2111  request */\n              dup2\n                /* \"Project.sol\":2104:2121  request.approvals */\n              0x04\n              add\n                /* \"Project.sol\":2104:2133  request.approvals[msg.sender] */\n              0x00\n                /* \"Project.sol\":2122:2132  msg.sender */\n              caller\n                /* \"Project.sol\":2104:2133  request.approvals[msg.sender] */\n              0xffffffffffffffffffffffffffffffffffffffff\n              and\n              0xffffffffffffffffffffffffffffffffffffffff\n              and\n              dup2\n              mstore\n              0x20\n              add\n              swap1\n              dup2\n              mstore\n              0x20\n              add\n              0x00\n              keccak256\n              0x00\n                /* \"Project.sol\":2104:2140  request.approvals[msg.sender] = true */\n              0x0100\n              exp\n              dup2\n              sload\n              dup2\n              0xff\n              mul\n              not\n              and\n              swap1\n              dup4\n              iszero\n              iszero\n              mul\n              or\n              swap1\n              sstore\n              pop\n                /* \"Project.sol\":2150:2157  request */\n              dup1\n                /* \"Project.sol\":2150:2171  request.approvalCount */\n              0x03\n              add\n              0x00\n                /* \"Project.sol\":2150:2173  request.approvalCount++ */\n              dup2\n              sload\n              dup1\n              swap3\n              swap2\n              swap1\n              tag_143\n              swap1\n              tag_136\n              jump\t// in\n            tag_143:\n              swap2\n              swap1\n              pop\n              sstore\n              pop\n                /* \"Project.sol\":1952:2180  {... */\n              pop\n                /* \"Project.sol\":1909:2180  function approveRequest(uint index) public {... */\n              pop\n              jump\t// out\n                /* \"Project.sol\":945:966  string public descrip */\n            tag_78:\n              0x06\n              dup1\n              sload\n              tag_144\n              swap1\n              tag_98\n              jump\t// in\n            tag_144:\n              dup1\n              0x1f\n              add\n              0x20\n              dup1\n              swap2\n              div\n              mul\n              0x20\n              add\n              mload(0x40)\n              swap1\n              dup2\n              add\n              0x40\n              mstore\n              dup1\n              swap3\n              swap2\n              swap1\n              dup2\n              dup2\n              mstore\n              0x20\n              add\n              dup3\n              dup1\n              sload\n              tag_145\n              swap1\n              tag_98\n              jump\t// in\n            tag_145:\n              dup1\n              iszero\n              tag_146\n              jumpi\n              dup1\n              0x1f\n              lt\n              tag_147\n              jumpi\n              0x0100\n              dup1\n              dup4\n              sload\n              div\n              mul\n              dup4\n              mstore\n              swap2\n              0x20\n              add\n              swap2\n              jump(tag_146)\n            tag_147:\n              dup3\n              add\n              swap2\n              swap1\n              0x00\n              mstore\n              keccak256(0x00, 0x20)\n              swap1\n            tag_148:\n              dup2\n              sload\n              dup2\n              mstore\n              swap1\n              0x01\n              add\n              swap1\n              0x20\n              add\n              dup1\n              dup4\n              gt\n              tag_148\n              jumpi\n              dup3\n              swap1\n              sub\n              0x1f\n              and\n              dup3\n              add\n              swap2\n            tag_146:\n              pop\n              pop\n              pop\n              pop\n              pop\n              dup2\n              jump\t// out\n                /* \"Project.sol\":972:991  string public image */\n            tag_82:\n              0x07\n              dup1\n              sload\n              tag_149\n              swap1\n              tag_98\n              jump\t// in\n            tag_149:\n              dup1\n              0x1f\n              add\n              0x20\n              dup1\n              swap2\n              div\n              mul\n              0x20\n              add\n              mload(0x40)\n              swap1\n              dup2\n              add\n              0x40\n              mstore\n              dup1\n              swap3\n              swap2\n              swap1\n              dup2\n              dup2\n              mstore\n              0x20\n              add\n              dup3\n              dup1\n              sload\n              tag_150\n              swap1\n              tag_98\n              jump\t// in\n            tag_150:\n              dup1\n              iszero\n              tag_151\n              jumpi\n              dup1\n              0x1f\n              lt\n              tag_152\n              jumpi\n              0x0100\n              dup1\n              dup4\n              sload\n              div\n              mul\n              dup4\n              mstore\n              swap2\n              0x20\n              add\n              swap2\n              jump(tag_151)\n            tag_152:\n              dup3\n              add\n              swap2\n              swap1\n              0x00\n              mstore\n              keccak256(0x00, 0x20)\n              swap1\n            tag_153:\n              dup2\n              sload\n              dup2\n              mstore\n              swap1\n              0x01\n              add\n              swap1\n              0x20\n              add\n              dup1\n              dup4\n              gt\n              tag_153\n              jumpi\n              dup3\n              swap1\n              sub\n              0x1f\n              and\n              dup3\n              add\n              swap2\n            tag_151:\n              pop\n              pop\n              pop\n              pop\n              pop\n              dup2\n              jump\t// out\n            tag_132:\n              dup3\n              dup1\n              sload\n              tag_154\n              swap1\n              tag_98\n              jump\t// in\n            tag_154:\n              swap1\n              0x00\n              mstore\n              keccak256(0x00, 0x20)\n              swap1\n              0x1f\n              add\n              0x20\n              swap1\n              div\n              dup2\n              add\n              swap3\n              dup3\n              tag_156\n              jumpi\n              0x00\n              dup6\n              sstore\n              jump(tag_155)\n            tag_156:\n              dup3\n              0x1f\n              lt\n              tag_157\n              jumpi\n              dup1\n              mload\n              not(0xff)\n              and\n              dup4\n              dup1\n              add\n              or\n              dup6\n              sstore\n              jump(tag_155)\n            tag_157:\n              dup3\n              dup1\n              add\n              0x01\n              add\n              dup6\n              sstore\n              dup3\n              iszero\n              tag_155\n              jumpi\n              swap2\n              dup3\n              add\n            tag_158:\n              dup3\n              dup2\n              gt\n              iszero\n              tag_159\n              jumpi\n              dup3\n              mload\n              dup3\n              sstore\n              swap2\n              0x20\n              add\n              swap2\n              swap1\n              0x01\n              add\n              swap1\n              jump(tag_158)\n            tag_159:\n            tag_155:\n              pop\n              swap1\n              pop\n              tag_160\n              swap2\n              swap1\n              tag_161\n              jump\t// in\n            tag_160:\n              pop\n              swap1\n              jump\t// out\n            tag_161:\n            tag_162:\n              dup1\n              dup3\n              gt\n              iszero\n              tag_163\n              jumpi\n              0x00\n              dup2\n              0x00\n              swap1\n              sstore\n              pop\n              0x01\n              add\n              jump(tag_162)\n            tag_163:\n              pop\n              swap1\n              jump\t// out\n                /* \"#utility.yul\":7:82   */\n            tag_164:\n                /* \"#utility.yul\":40:46   */\n              0x00\n                /* \"#utility.yul\":73:75   */\n              0x40\n                /* \"#utility.yul\":67:76   */\n              mload\n                /* \"#utility.yul\":57:76   */\n              swap1\n              pop\n                /* \"#utility.yul\":7:82   */\n              swap1\n              jump\t// out\n                /* \"#utility.yul\":88:205   */\n            tag_165:\n                /* \"#utility.yul\":197:198   */\n              0x00\n                /* \"#utility.yul\":194:195   */\n              dup1\n                /* \"#utility.yul\":187:199   */\n              revert\n                /* \"#utility.yul\":211:328   */\n            tag_166:\n                /* \"#utility.yul\":320:321   */\n              0x00\n                /* \"#utility.yul\":317:318   */\n              dup1\n                /* \"#utility.yul\":310:322   */\n              revert\n                /* \"#utility.yul\":334:411   */\n            tag_167:\n                /* \"#utility.yul\":371:378   */\n              0x00\n                /* \"#utility.yul\":400:405   */\n              dup2\n                /* \"#utility.yul\":389:405   */\n              swap1\n              pop\n                /* \"#utility.yul\":334:411   */\n              swap2\n              swap1\n              pop\n              jump\t// out\n                /* \"#utility.yul\":417:539   */\n            tag_168:\n                /* \"#utility.yul\":490:514   */\n              tag_201\n                /* \"#utility.yul\":508:513   */\n              dup2\n                /* \"#utility.yul\":490:514   */\n              tag_167\n              jump\t// in\n            tag_201:\n                /* \"#utility.yul\":483:488   */\n              dup2\n                /* \"#utility.yul\":480:515   */\n              eq\n                /* \"#utility.yul\":470:533   */\n              tag_202\n              jumpi\n                /* \"#utility.yul\":529:530   */\n              0x00\n                /* \"#utility.yul\":526:527   */\n              dup1\n                /* \"#utility.yul\":519:531   */\n              revert\n                /* \"#utility.yul\":470:533   */\n            tag_202:\n                /* \"#utility.yul\":417:539   */\n              pop\n              jump\t// out\n                /* \"#utility.yul\":545:684   */\n            tag_169:\n                /* \"#utility.yul\":591:596   */\n              0x00\n                /* \"#utility.yul\":629:635   */\n              dup2\n                /* \"#utility.yul\":616:636   */\n              calldataload\n                /* \"#utility.yul\":607:636   */\n              swap1\n              pop\n                /* \"#utility.yul\":645:678   */\n              tag_204\n                /* \"#utility.yul\":672:677   */\n              dup2\n                /* \"#utility.yul\":645:678   */\n              tag_168\n              jump\t// in\n            tag_204:\n                /* \"#utility.yul\":545:684   */\n              swap3\n              swap2\n              pop\n              pop\n              jump\t// out\n                /* \"#utility.yul\":690:1019   */\n            tag_22:\n                /* \"#utility.yul\":749:755   */\n              0x00\n                /* \"#utility.yul\":798:800   */\n              0x20\n                /* \"#utility.yul\":786:795   */\n              dup3\n                /* \"#utility.yul\":777:784   */\n              dup5\n                /* \"#utility.yul\":773:796   */\n              sub\n                /* \"#utility.yul\":769:801   */\n              slt\n                /* \"#utility.yul\":766:885   */\n              iszero\n              tag_206\n              jumpi\n                /* \"#utility.yul\":804:883   */\n              tag_207\n              tag_165\n              jump\t// in\n            tag_207:\n                /* \"#utility.yul\":766:885   */\n            tag_206:\n                /* \"#utility.yul\":924:925   */\n              0x00\n                /* \"#utility.yul\":949:1002   */\n              tag_208\n                /* \"#utility.yul\":994:1001   */\n              dup5\n                /* \"#utility.yul\":985:991   */\n              dup3\n                /* \"#utility.yul\":974:983   */\n              dup6\n                /* \"#utility.yul\":970:992   */\n              add\n                /* \"#utility.yul\":949:1002   */\n              tag_169\n              jump\t// in\n            tag_208:\n                /* \"#utility.yul\":939:1002   */\n              swap2\n              pop\n                /* \"#utility.yul\":895:1012   */\n              pop\n                /* \"#utility.yul\":690:1019   */\n              swap3\n              swap2\n              pop\n              pop\n              jump\t// out\n                /* \"#utility.yul\":1025:1124   */\n            tag_170:\n                /* \"#utility.yul\":1077:1083   */\n              0x00\n                /* \"#utility.yul\":1111:1116   */\n              dup2\n                /* \"#utility.yul\":1105:1117   */\n              mload\n                /* \"#utility.yul\":1095:1117   */\n              swap1\n              pop\n                /* \"#utility.yul\":1025:1124   */\n              swap2\n              swap1\n              pop\n              jump\t// out\n                /* \"#utility.yul\":1130:1299   */\n            tag_171:\n                /* \"#utility.yul\":1214:1225   */\n              0x00\n                /* \"#utility.yul\":1248:1254   */\n              dup3\n                /* \"#utility.yul\":1243:1246   */\n              dup3\n                /* \"#utility.yul\":1236:1255   */\n              mstore\n                /* \"#utility.yul\":1288:1292   */\n              0x20\n                /* \"#utility.yul\":1283:1286   */\n              dup3\n                /* \"#utility.yul\":1279:1293   */\n              add\n                /* \"#utility.yul\":1264:1293   */\n              swap1\n              pop\n                /* \"#utility.yul\":1130:1299   */\n              swap3\n              swap2\n              pop\n              pop\n              jump\t// out\n                /* \"#utility.yul\":1305:1612   */\n            tag_172:\n                /* \"#utility.yul\":1373:1374   */\n              0x00\n                /* \"#utility.yul\":1383:1496   */\n            tag_212:\n                /* \"#utility.yul\":1397:1403   */\n              dup4\n                /* \"#utility.yul\":1394:1395   */\n              dup2\n                /* \"#utility.yul\":1391:1404   */\n              lt\n                /* \"#utility.yul\":1383:1496   */\n              iszero\n              tag_214\n              jumpi\n                /* \"#utility.yul\":1482:1483   */\n              dup1\n                /* \"#utility.yul\":1477:1480   */\n              dup3\n                /* \"#utility.yul\":1473:1484   */\n              add\n                /* \"#utility.yul\":1467:1485   */\n              mload\n                /* \"#utility.yul\":1463:1464   */\n              dup2\n                /* \"#utility.yul\":1458:1461   */\n              dup5\n                /* \"#utility.yul\":1454:1465   */\n              add\n                /* \"#utility.yul\":1447:1486   */\n              mstore\n                /* \"#utility.yul\":1419:1421   */\n              0x20\n                /* \"#utility.yul\":1416:1417   */\n              dup2\n                /* \"#utility.yul\":1412:1422   */\n              add\n                /* \"#utility.yul\":1407:1422   */\n              swap1\n              pop\n                /* \"#utility.yul\":1383:1496   */\n              jump(tag_212)\n            tag_214:\n                /* \"#utility.yul\":1514:1520   */\n              dup4\n                /* \"#utility.yul\":1511:1512   */\n              dup2\n                /* \"#utility.yul\":1508:1521   */\n              gt\n                /* \"#utility.yul\":1505:1606   */\n              iszero\n              tag_215\n              jumpi\n                /* \"#utility.yul\":1594:1595   */\n              0x00\n                /* \"#utility.yul\":1585:1591   */\n              dup5\n                /* \"#utility.yul\":1580:1583   */\n              dup5\n                /* \"#utility.yul\":1576:1592   */\n              add\n                /* \"#utility.yul\":1569:1596   */\n              mstore\n                /* \"#utility.yul\":1505:1606   */\n            tag_215:\n                /* \"#utility.yul\":1354:1612   */\n              pop\n                /* \"#utility.yul\":1305:1612   */\n              pop\n              pop\n              pop\n              jump\t// out\n                /* \"#utility.yul\":1618:1720   */\n            tag_173:\n                /* \"#utility.yul\":1659:1665   */\n              0x00\n                /* \"#utility.yul\":1710:1712   */\n              0x1f\n                /* \"#utility.yul\":1706:1713   */\n              not\n                /* \"#utility.yul\":1701:1703   */\n              0x1f\n                /* \"#utility.yul\":1694:1699   */\n              dup4\n                /* \"#utility.yul\":1690:1704   */\n              add\n                /* \"#utility.yul\":1686:1714   */\n              and\n                /* \"#utility.yul\":1676:1714   */\n              swap1\n              pop\n                /* \"#utility.yul\":1618:1720   */\n              swap2\n              swap1\n              pop\n              jump\t// out\n                /* \"#utility.yul\":1726:2090   */\n            tag_174:\n                /* \"#utility.yul\":1814:1817   */\n              0x00\n                /* \"#utility.yul\":1842:1881   */\n              tag_218\n                /* \"#utility.yul\":1875:1880   */\n              dup3\n                /* \"#utility.yul\":1842:1881   */\n              tag_170\n              jump\t// in\n            tag_218:\n                /* \"#utility.yul\":1897:1968   */\n              tag_219\n                /* \"#utility.yul\":1961:1967   */\n              dup2\n                /* \"#utility.yul\":1956:1959   */\n              dup6\n                /* \"#utility.yul\":1897:1968   */\n              tag_171\n              jump\t// in\n            tag_219:\n                /* \"#utility.yul\":1890:1968   */\n              swap4\n              pop\n                /* \"#utility.yul\":1977:2029   */\n              tag_220\n                /* \"#utility.yul\":2022:2028   */\n              dup2\n                /* \"#utility.yul\":2017:2020   */\n              dup6\n                /* \"#utility.yul\":2010:2014   */\n              0x20\n                /* \"#utility.yul\":2003:2008   */\n              dup7\n                /* \"#utility.yul\":1999:2015   */\n              add\n                /* \"#utility.yul\":1977:2029   */\n              tag_172\n              jump\t// in\n            tag_220:\n                /* \"#utility.yul\":2054:2083   */\n              tag_221\n                /* \"#utility.yul\":2076:2082   */\n              dup2\n                /* \"#utility.yul\":2054:2083   */\n              tag_173\n              jump\t// in\n            tag_221:\n                /* \"#utility.yul\":2049:2052   */\n              dup5\n                /* \"#utility.yul\":2045:2084   */\n              add\n                /* \"#utility.yul\":2038:2084   */\n              swap2\n              pop\n                /* \"#utility.yul\":1818:2090   */\n              pop\n                /* \"#utility.yul\":1726:2090   */\n              swap3\n              swap2\n              pop\n              pop\n              jump\t// out\n                /* \"#utility.yul\":2096:2409   */\n            tag_28:\n                /* \"#utility.yul\":2209:2213   */\n              0x00\n                /* \"#utility.yul\":2247:2249   */\n              0x20\n                /* \"#utility.yul\":2236:2245   */\n              dup3\n                /* \"#utility.yul\":2232:2250   */\n              add\n                /* \"#utility.yul\":2224:2250   */\n              swap1\n              pop\n                /* \"#utility.yul\":2296:2305   */\n              dup2\n                /* \"#utility.yul\":2290:2294   */\n              dup2\n                /* \"#utility.yul\":2286:2306   */\n              sub\n                /* \"#utility.yul\":2282:2283   */\n              0x00\n                /* \"#utility.yul\":2271:2280   */\n              dup4\n                /* \"#utility.yul\":2267:2284   */\n              add\n                /* \"#utility.yul\":2260:2307   */\n              mstore\n                /* \"#utility.yul\":2324:2402   */\n              tag_223\n                /* \"#utility.yul\":2397:2401   */\n              dup2\n                /* \"#utility.yul\":2388:2394   */\n              dup5\n                /* \"#utility.yul\":2324:2402   */\n              tag_174\n              jump\t// in\n            tag_223:\n                /* \"#utility.yul\":2316:2402   */\n              swap1\n              pop\n                /* \"#utility.yul\":2096:2409   */\n              swap3\n              swap2\n              pop\n              pop\n              jump\t// out\n                /* \"#utility.yul\":2415:2541   */\n            tag_175:\n                /* \"#utility.yul\":2452:2459   */\n              0x00\n                /* \"#utility.yul\":2492:2534   */\n              0xffffffffffffffffffffffffffffffffffffffff\n                /* \"#utility.yul\":2485:2490   */\n              dup3\n                /* \"#utility.yul\":2481:2535   */\n              and\n                /* \"#utility.yul\":2470:2535   */\n              swap1\n              pop\n                /* \"#utility.yul\":2415:2541   */\n              swap2\n              swap1\n              pop\n              jump\t// out\n                /* \"#utility.yul\":2547:2643   */\n            tag_176:\n                /* \"#utility.yul\":2584:2591   */\n              0x00\n                /* \"#utility.yul\":2613:2637   */\n              tag_226\n                /* \"#utility.yul\":2631:2636   */\n              dup3\n                /* \"#utility.yul\":2613:2637   */\n              tag_175\n              jump\t// in\n            tag_226:\n                /* \"#utility.yul\":2602:2637   */\n              swap1\n              pop\n                /* \"#utility.yul\":2547:2643   */\n              swap2\n              swap1\n              pop\n              jump\t// out\n                /* \"#utility.yul\":2649:2771   */\n            tag_177:\n                /* \"#utility.yul\":2722:2746   */\n              tag_228\n                /* \"#utility.yul\":2740:2745   */\n              dup2\n                /* \"#utility.yul\":2722:2746   */\n              tag_176\n              jump\t// in\n            tag_228:\n                /* \"#utility.yul\":2715:2720   */\n              dup2\n                /* \"#utility.yul\":2712:2747   */\n              eq\n                /* \"#utility.yul\":2702:2765   */\n              tag_229\n              jumpi\n                /* \"#utility.yul\":2761:2762   */\n              0x00\n                /* \"#utility.yul\":2758:2759   */\n              dup1\n                /* \"#utility.yul\":2751:2763   */\n              revert\n                /* \"#utility.yul\":2702:2765   */\n            tag_229:\n                /* \"#utility.yul\":2649:2771   */\n              pop\n              jump\t// out\n                /* \"#utility.yul\":2777:2916   */\n            tag_178:\n                /* \"#utility.yul\":2823:2828   */\n              0x00\n                /* \"#utility.yul\":2861:2867   */\n              dup2\n                /* \"#utility.yul\":2848:2868   */\n              calldataload\n                /* \"#utility.yul\":2839:2868   */\n              swap1\n              pop\n                /* \"#utility.yul\":2877:2910   */\n              tag_231\n                /* \"#utility.yul\":2904:2909   */\n              dup2\n                /* \"#utility.yul\":2877:2910   */\n              tag_177\n              jump\t// in\n            tag_231:\n                /* \"#utility.yul\":2777:2916   */\n              swap3\n              swap2\n              pop\n              pop\n              jump\t// out\n                /* \"#utility.yul\":2922:3251   */\n            tag_32:\n                /* \"#utility.yul\":2981:2987   */\n              0x00\n                /* \"#utility.yul\":3030:3032   */\n              0x20\n                /* \"#utility.yul\":3018:3027   */\n              dup3\n                /* \"#utility.yul\":3009:3016   */\n              dup5\n                /* \"#utility.yul\":3005:3028   */\n              sub\n                /* \"#utility.yul\":3001:3033   */\n              slt\n                /* \"#utility.yul\":2998:3117   */\n              iszero\n              tag_233\n              jumpi\n                /* \"#utility.yul\":3036:3115   */\n              tag_234\n              tag_165\n              jump\t// in\n            tag_234:\n                /* \"#utility.yul\":2998:3117   */\n            tag_233:\n                /* \"#utility.yul\":3156:3157   */\n              0x00\n                /* \"#utility.yul\":3181:3234   */\n              tag_235\n                /* \"#utility.yul\":3226:3233   */\n              dup5\n                /* \"#utility.yul\":3217:3223   */\n              dup3\n                /* \"#utility.yul\":3206:3215   */\n              dup6\n                /* \"#utility.yul\":3202:3224   */\n              add\n                /* \"#utility.yul\":3181:3234   */\n              tag_178\n              jump\t// in\n            tag_235:\n                /* \"#utility.yul\":3171:3234   */\n              swap2\n              pop\n                /* \"#utility.yul\":3127:3244   */\n              pop\n                /* \"#utility.yul\":2922:3251   */\n              swap3\n              swap2\n              pop\n              pop\n              jump\t// out\n                /* \"#utility.yul\":3257:3347   */\n            tag_179:\n                /* \"#utility.yul\":3291:3298   */\n              0x00\n                /* \"#utility.yul\":3334:3339   */\n              dup2\n                /* \"#utility.yul\":3327:3340   */\n              iszero\n                /* \"#utility.yul\":3320:3341   */\n              iszero\n                /* \"#utility.yul\":3309:3341   */\n              swap1\n              pop\n                /* \"#utility.yul\":3257:3347   */\n              swap2\n              swap1\n              pop\n              jump\t// out\n                /* \"#utility.yul\":3353:3462   */\n            tag_180:\n                /* \"#utility.yul\":3434:3455   */\n              tag_238\n                /* \"#utility.yul\":3449:3454   */\n              dup2\n                /* \"#utility.yul\":3434:3455   */\n              tag_179\n              jump\t// in\n            tag_238:\n                /* \"#utility.yul\":3429:3432   */\n              dup3\n                /* \"#utility.yul\":3422:3456   */\n              mstore\n                /* \"#utility.yul\":3353:3462   */\n              pop\n              pop\n              jump\t// out\n                /* \"#utility.yul\":3468:3678   */\n            tag_35:\n                /* \"#utility.yul\":3555:3559   */\n              0x00\n                /* \"#utility.yul\":3593:3595   */\n              0x20\n                /* \"#utility.yul\":3582:3591   */\n              dup3\n                /* \"#utility.yul\":3578:3596   */\n              add\n                /* \"#utility.yul\":3570:3596   */\n              swap1\n              pop\n                /* \"#utility.yul\":3606:3671   */\n              tag_240\n                /* \"#utility.yul\":3668:3669   */\n              0x00\n                /* \"#utility.yul\":3657:3666   */\n              dup4\n                /* \"#utility.yul\":3653:3670   */\n              add\n                /* \"#utility.yul\":3644:3650   */\n              dup5\n                /* \"#utility.yul\":3606:3671   */\n              tag_180\n              jump\t// in\n            tag_240:\n                /* \"#utility.yul\":3468:3678   */\n              swap3\n              swap2\n              pop\n              pop\n              jump\t// out\n                /* \"#utility.yul\":3684:3802   */\n            tag_181:\n                /* \"#utility.yul\":3771:3795   */\n              tag_242\n                /* \"#utility.yul\":3789:3794   */\n              dup2\n                /* \"#utility.yul\":3771:3795   */\n              tag_167\n              jump\t// in\n            tag_242:\n                /* \"#utility.yul\":3766:3769   */\n              dup3\n                /* \"#utility.yul\":3759:3796   */\n              mstore\n                /* \"#utility.yul\":3684:3802   */\n              pop\n              pop\n              jump\t// out\n                /* \"#utility.yul\":3808:4030   */\n            tag_40:\n                /* \"#utility.yul\":3901:3905   */\n              0x00\n                /* \"#utility.yul\":3939:3941   */\n              0x20\n                /* \"#utility.yul\":3928:3937   */\n              dup3\n                /* \"#utility.yul\":3924:3942   */\n              add\n                /* \"#utility.yul\":3916:3942   */\n              swap1\n              pop\n                /* \"#utility.yul\":3952:4023   */\n              tag_244\n                /* \"#utility.yul\":4020:4021   */\n              0x00\n                /* \"#utility.yul\":4009:4018   */\n              dup4\n                /* \"#utility.yul\":4005:4022   */\n              add\n                /* \"#utility.yul\":3996:4002   */\n              dup5\n                /* \"#utility.yul\":3952:4023   */\n              tag_181\n              jump\t// in\n            tag_244:\n                /* \"#utility.yul\":3808:4030   */\n              swap3\n              swap2\n              pop\n              pop\n              jump\t// out\n                /* \"#utility.yul\":4036:4154   */\n            tag_182:\n                /* \"#utility.yul\":4123:4147   */\n              tag_246\n                /* \"#utility.yul\":4141:4146   */\n              dup2\n                /* \"#utility.yul\":4123:4147   */\n              tag_176\n              jump\t// in\n            tag_246:\n                /* \"#utility.yul\":4118:4121   */\n              dup3\n                /* \"#utility.yul\":4111:4148   */\n              mstore\n                /* \"#utility.yul\":4036:4154   */\n              pop\n              pop\n              jump\t// out\n                /* \"#utility.yul\":4160:5430   */\n            tag_45:\n                /* \"#utility.yul\":4509:4513   */\n              0x00\n                /* \"#utility.yul\":4547:4550   */\n              0x0100\n                /* \"#utility.yul\":4536:4545   */\n              dup3\n                /* \"#utility.yul\":4532:4551   */\n              add\n                /* \"#utility.yul\":4524:4551   */\n              swap1\n              pop\n                /* \"#utility.yul\":4561:4632   */\n              tag_248\n                /* \"#utility.yul\":4629:4630   */\n              0x00\n                /* \"#utility.yul\":4618:4627   */\n              dup4\n                /* \"#utility.yul\":4614:4631   */\n              add\n                /* \"#utility.yul\":4605:4611   */\n              dup12\n                /* \"#utility.yul\":4561:4632   */\n              tag_181\n              jump\t// in\n            tag_248:\n                /* \"#utility.yul\":4642:4714   */\n              tag_249\n                /* \"#utility.yul\":4710:4712   */\n              0x20\n                /* \"#utility.yul\":4699:4708   */\n              dup4\n                /* \"#utility.yul\":4695:4713   */\n              add\n                /* \"#utility.yul\":4686:4692   */\n              dup11\n                /* \"#utility.yul\":4642:4714   */\n              tag_181\n              jump\t// in\n            tag_249:\n                /* \"#utility.yul\":4724:4796   */\n              tag_250\n                /* \"#utility.yul\":4792:4794   */\n              0x40\n                /* \"#utility.yul\":4781:4790   */\n              dup4\n                /* \"#utility.yul\":4777:4795   */\n              add\n                /* \"#utility.yul\":4768:4774   */\n              dup10\n                /* \"#utility.yul\":4724:4796   */\n              tag_181\n              jump\t// in\n            tag_250:\n                /* \"#utility.yul\":4806:4878   */\n              tag_251\n                /* \"#utility.yul\":4874:4876   */\n              0x60\n                /* \"#utility.yul\":4863:4872   */\n              dup4\n                /* \"#utility.yul\":4859:4877   */\n              add\n                /* \"#utility.yul\":4850:4856   */\n              dup9\n                /* \"#utility.yul\":4806:4878   */\n              tag_181\n              jump\t// in\n            tag_251:\n                /* \"#utility.yul\":4888:4961   */\n              tag_252\n                /* \"#utility.yul\":4956:4959   */\n              0x80\n                /* \"#utility.yul\":4945:4954   */\n              dup4\n                /* \"#utility.yul\":4941:4960   */\n              add\n                /* \"#utility.yul\":4932:4938   */\n              dup8\n                /* \"#utility.yul\":4888:4961   */\n              tag_182\n              jump\t// in\n            tag_252:\n                /* \"#utility.yul\":5009:5018   */\n              dup2\n                /* \"#utility.yul\":5003:5007   */\n              dup2\n                /* \"#utility.yul\":4999:5019   */\n              sub\n                /* \"#utility.yul\":4993:4996   */\n              0xa0\n                /* \"#utility.yul\":4982:4991   */\n              dup4\n                /* \"#utility.yul\":4978:4997   */\n              add\n                /* \"#utility.yul\":4971:5020   */\n              mstore\n                /* \"#utility.yul\":5037:5115   */\n              tag_253\n                /* \"#utility.yul\":5110:5114   */\n              dup2\n                /* \"#utility.yul\":5101:5107   */\n              dup7\n                /* \"#utility.yul\":5037:5115   */\n              tag_174\n              jump\t// in\n            tag_253:\n                /* \"#utility.yul\":5029:5115   */\n              swap1\n              pop\n                /* \"#utility.yul\":5163:5172   */\n              dup2\n                /* \"#utility.yul\":5157:5161   */\n              dup2\n                /* \"#utility.yul\":5153:5173   */\n              sub\n                /* \"#utility.yul\":5147:5150   */\n              0xc0\n                /* \"#utility.yul\":5136:5145   */\n              dup4\n                /* \"#utility.yul\":5132:5151   */\n              add\n                /* \"#utility.yul\":5125:5174   */\n              mstore\n                /* \"#utility.yul\":5191:5269   */\n              tag_254\n                /* \"#utility.yul\":5264:5268   */\n              dup2\n                /* \"#utility.yul\":5255:5261   */\n              dup6\n                /* \"#utility.yul\":5191:5269   */\n              tag_174\n              jump\t// in\n            tag_254:\n                /* \"#utility.yul\":5183:5269   */\n              swap1\n              pop\n                /* \"#utility.yul\":5317:5326   */\n              dup2\n                /* \"#utility.yul\":5311:5315   */\n              dup2\n                /* \"#utility.yul\":5307:5327   */\n              sub\n                /* \"#utility.yul\":5301:5304   */\n              0xe0\n                /* \"#utility.yul\":5290:5299   */\n              dup4\n                /* \"#utility.yul\":5286:5305   */\n              add\n                /* \"#utility.yul\":5279:5328   */\n              mstore\n                /* \"#utility.yul\":5345:5423   */\n              tag_255\n                /* \"#utility.yul\":5418:5422   */\n              dup2\n                /* \"#utility.yul\":5409:5415   */\n              dup5\n                /* \"#utility.yul\":5345:5423   */\n              tag_174\n              jump\t// in\n            tag_255:\n                /* \"#utility.yul\":5337:5423   */\n              swap1\n              pop\n                /* \"#utility.yul\":4160:5430   */\n              swap10\n              swap9\n              pop\n              pop\n              pop\n              pop\n              pop\n              pop\n              pop\n              pop\n              pop\n              jump\t// out\n                /* \"#utility.yul\":5436:5658   */\n            tag_50:\n                /* \"#utility.yul\":5529:5533   */\n              0x00\n                /* \"#utility.yul\":5567:5569   */\n              0x20\n                /* \"#utility.yul\":5556:5565   */\n              dup3\n                /* \"#utility.yul\":5552:5570   */\n              add\n                /* \"#utility.yul\":5544:5570   */\n              swap1\n              pop\n                /* \"#utility.yul\":5580:5651   */\n              tag_257\n                /* \"#utility.yul\":5648:5649   */\n              0x00\n                /* \"#utility.yul\":5637:5646   */\n              dup4\n                /* \"#utility.yul\":5633:5650   */\n              add\n                /* \"#utility.yul\":5624:5630   */\n              dup5\n                /* \"#utility.yul\":5580:5651   */\n              tag_182\n              jump\t// in\n            tag_257:\n                /* \"#utility.yul\":5436:5658   */\n              swap3\n              swap2\n              pop\n              pop\n              jump\t// out\n                /* \"#utility.yul\":5664:6407   */\n            tag_56:\n                /* \"#utility.yul\":5883:5887   */\n              0x00\n                /* \"#utility.yul\":5921:5924   */\n              0xa0\n                /* \"#utility.yul\":5910:5919   */\n              dup3\n                /* \"#utility.yul\":5906:5925   */\n              add\n                /* \"#utility.yul\":5898:5925   */\n              swap1\n              pop\n                /* \"#utility.yul\":5971:5980   */\n              dup2\n                /* \"#utility.yul\":5965:5969   */\n              dup2\n                /* \"#utility.yul\":5961:5981   */\n              sub\n                /* \"#utility.yul\":5957:5958   */\n              0x00\n                /* \"#utility.yul\":5946:5955   */\n              dup4\n                /* \"#utility.yul\":5942:5959   */\n              add\n                /* \"#utility.yul\":5935:5982   */\n              mstore\n                /* \"#utility.yul\":5999:6077   */\n              tag_259\n                /* \"#utility.yul\":6072:6076   */\n              dup2\n                /* \"#utility.yul\":6063:6069   */\n              dup9\n                /* \"#utility.yul\":5999:6077   */\n              tag_174\n              jump\t// in\n            tag_259:\n                /* \"#utility.yul\":5991:6077   */\n              swap1\n              pop\n                /* \"#utility.yul\":6087:6159   */\n              tag_260\n                /* \"#utility.yul\":6155:6157   */\n              0x20\n                /* \"#utility.yul\":6144:6153   */\n              dup4\n                /* \"#utility.yul\":6140:6158   */\n              add\n                /* \"#utility.yul\":6131:6137   */\n              dup8\n                /* \"#utility.yul\":6087:6159   */\n              tag_181\n              jump\t// in\n            tag_260:\n                /* \"#utility.yul\":6169:6241   */\n              tag_261\n                /* \"#utility.yul\":6237:6239   */\n              0x40\n                /* \"#utility.yul\":6226:6235   */\n              dup4\n                /* \"#utility.yul\":6222:6240   */\n              add\n                /* \"#utility.yul\":6213:6219   */\n              dup7\n                /* \"#utility.yul\":6169:6241   */\n              tag_182\n              jump\t// in\n            tag_261:\n                /* \"#utility.yul\":6251:6317   */\n              tag_262\n                /* \"#utility.yul\":6313:6315   */\n              0x60\n                /* \"#utility.yul\":6302:6311   */\n              dup4\n                /* \"#utility.yul\":6298:6316   */\n              add\n                /* \"#utility.yul\":6289:6295   */\n              dup6\n                /* \"#utility.yul\":6251:6317   */\n              tag_180\n              jump\t// in\n            tag_262:\n                /* \"#utility.yul\":6327:6400   */\n              tag_263\n                /* \"#utility.yul\":6395:6398   */\n              0x80\n                /* \"#utility.yul\":6384:6393   */\n              dup4\n                /* \"#utility.yul\":6380:6399   */\n              add\n                /* \"#utility.yul\":6371:6377   */\n              dup5\n                /* \"#utility.yul\":6327:6400   */\n              tag_181\n              jump\t// in\n            tag_263:\n                /* \"#utility.yul\":5664:6407   */\n              swap7\n              swap6\n              pop\n              pop\n              pop\n              pop\n              pop\n              pop\n              jump\t// out\n                /* \"#utility.yul\":6413:6530   */\n            tag_183:\n                /* \"#utility.yul\":6522:6523   */\n              0x00\n                /* \"#utility.yul\":6519:6520   */\n              dup1\n                /* \"#utility.yul\":6512:6524   */\n              revert\n                /* \"#utility.yul\":6536:6653   */\n            tag_184:\n                /* \"#utility.yul\":6645:6646   */\n              0x00\n                /* \"#utility.yul\":6642:6643   */\n              dup1\n                /* \"#utility.yul\":6635:6647   */\n              revert\n                /* \"#utility.yul\":6659:6839   */\n            tag_185:\n                /* \"#utility.yul\":6707:6784   */\n              0x4e487b7100000000000000000000000000000000000000000000000000000000\n                /* \"#utility.yul\":6704:6705   */\n              0x00\n                /* \"#utility.yul\":6697:6785   */\n              mstore\n                /* \"#utility.yul\":6804:6808   */\n              0x41\n                /* \"#utility.yul\":6801:6802   */\n              0x04\n                /* \"#utility.yul\":6794:6809   */\n              mstore\n                /* \"#utility.yul\":6828:6832   */\n              0x24\n                /* \"#utility.yul\":6825:6826   */\n              0x00\n                /* \"#utility.yul\":6818:6833   */\n              revert\n                /* \"#utility.yul\":6845:7126   */\n            tag_186:\n                /* \"#utility.yul\":6928:6955   */\n              tag_268\n                /* \"#utility.yul\":6950:6954   */\n              dup3\n                /* \"#utility.yul\":6928:6955   */\n              tag_173\n              jump\t// in\n            tag_268:\n                /* \"#utility.yul\":6920:6926   */\n              dup2\n                /* \"#utility.yul\":6916:6956   */\n              add\n                /* \"#utility.yul\":7058:7064   */\n              dup2\n                /* \"#utility.yul\":7046:7056   */\n              dup2\n                /* \"#utility.yul\":7043:7065   */\n              lt\n                /* \"#utility.yul\":7022:7040   */\n              0xffffffffffffffff\n                /* \"#utility.yul\":7010:7020   */\n              dup3\n                /* \"#utility.yul\":7007:7041   */\n              gt\n                /* \"#utility.yul\":7004:7066   */\n              or\n                /* \"#utility.yul\":7001:7089   */\n              iszero\n              tag_269\n              jumpi\n                /* \"#utility.yul\":7069:7087   */\n              tag_270\n              tag_185\n              jump\t// in\n            tag_270:\n                /* \"#utility.yul\":7001:7089   */\n            tag_269:\n                /* \"#utility.yul\":7109:7119   */\n              dup1\n                /* \"#utility.yul\":7105:7107   */\n              0x40\n                /* \"#utility.yul\":7098:7120   */\n              mstore\n                /* \"#utility.yul\":6888:7126   */\n              pop\n                /* \"#utility.yul\":6845:7126   */\n              pop\n              pop\n              jump\t// out\n                /* \"#utility.yul\":7132:7261   */\n            tag_187:\n                /* \"#utility.yul\":7166:7172   */\n              0x00\n                /* \"#utility.yul\":7193:7213   */\n              tag_272\n              tag_164\n              jump\t// in\n            tag_272:\n                /* \"#utility.yul\":7183:7213   */\n              swap1\n              pop\n                /* \"#utility.yul\":7222:7255   */\n              tag_273\n                /* \"#utility.yul\":7250:7254   */\n              dup3\n                /* \"#utility.yul\":7242:7248   */\n              dup3\n                /* \"#utility.yul\":7222:7255   */\n              tag_186\n              jump\t// in\n            tag_273:\n                /* \"#utility.yul\":7132:7261   */\n              swap2\n              swap1\n              pop\n              jump\t// out\n                /* \"#utility.yul\":7267:7575   */\n            tag_188:\n                /* \"#utility.yul\":7329:7333   */\n              0x00\n                /* \"#utility.yul\":7419:7437   */\n              0xffffffffffffffff\n                /* \"#utility.yul\":7411:7417   */\n              dup3\n                /* \"#utility.yul\":7408:7438   */\n              gt\n                /* \"#utility.yul\":7405:7461   */\n              iszero\n              tag_275\n              jumpi\n                /* \"#utility.yul\":7441:7459   */\n              tag_276\n              tag_185\n              jump\t// in\n            tag_276:\n                /* \"#utility.yul\":7405:7461   */\n            tag_275:\n                /* \"#utility.yul\":7479:7508   */\n              tag_277\n                /* \"#utility.yul\":7501:7507   */\n              dup3\n                /* \"#utility.yul\":7479:7508   */\n              tag_173\n              jump\t// in\n            tag_277:\n                /* \"#utility.yul\":7471:7508   */\n              swap1\n              pop\n                /* \"#utility.yul\":7563:7567   */\n              0x20\n                /* \"#utility.yul\":7557:7561   */\n              dup2\n                /* \"#utility.yul\":7553:7568   */\n              add\n                /* \"#utility.yul\":7545:7568   */\n              swap1\n              pop\n                /* \"#utility.yul\":7267:7575   */\n              swap2\n              swap1\n              pop\n              jump\t// out\n                /* \"#utility.yul\":7581:7735   */\n            tag_189:\n                /* \"#utility.yul\":7665:7671   */\n              dup3\n                /* \"#utility.yul\":7660:7663   */\n              dup2\n                /* \"#utility.yul\":7655:7658   */\n              dup4\n                /* \"#utility.yul\":7642:7672   */\n              calldatacopy\n                /* \"#utility.yul\":7727:7728   */\n              0x00\n                /* \"#utility.yul\":7718:7724   */\n              dup4\n                /* \"#utility.yul\":7713:7716   */\n              dup4\n                /* \"#utility.yul\":7709:7725   */\n              add\n                /* \"#utility.yul\":7702:7729   */\n              mstore\n                /* \"#utility.yul\":7581:7735   */\n              pop\n              pop\n              pop\n              jump\t// out\n                /* \"#utility.yul\":7741:8153   */\n            tag_190:\n                /* \"#utility.yul\":7819:7824   */\n              0x00\n                /* \"#utility.yul\":7844:7910   */\n              tag_280\n                /* \"#utility.yul\":7860:7909   */\n              tag_281\n                /* \"#utility.yul\":7902:7908   */\n              dup5\n                /* \"#utility.yul\":7860:7909   */\n              tag_188\n              jump\t// in\n            tag_281:\n                /* \"#utility.yul\":7844:7910   */\n              tag_187\n              jump\t// in\n            tag_280:\n                /* \"#utility.yul\":7835:7910   */\n              swap1\n              pop\n                /* \"#utility.yul\":7933:7939   */\n              dup3\n                /* \"#utility.yul\":7926:7931   */\n              dup2\n                /* \"#utility.yul\":7919:7940   */\n              mstore\n                /* \"#utility.yul\":7971:7975   */\n              0x20\n                /* \"#utility.yul\":7964:7969   */\n              dup2\n                /* \"#utility.yul\":7960:7976   */\n              add\n                /* \"#utility.yul\":8009:8012   */\n              dup5\n                /* \"#utility.yul\":8000:8006   */\n              dup5\n                /* \"#utility.yul\":7995:7998   */\n              dup5\n                /* \"#utility.yul\":7991:8007   */\n              add\n                /* \"#utility.yul\":7988:8013   */\n              gt\n                /* \"#utility.yul\":7985:8097   */\n              iszero\n              tag_282\n              jumpi\n                /* \"#utility.yul\":8016:8095   */\n              tag_283\n              tag_184\n              jump\t// in\n            tag_283:\n                /* \"#utility.yul\":7985:8097   */\n            tag_282:\n                /* \"#utility.yul\":8106:8147   */\n              tag_284\n                /* \"#utility.yul\":8140:8146   */\n              dup5\n                /* \"#utility.yul\":8135:8138   */\n              dup3\n                /* \"#utility.yul\":8130:8133   */\n              dup6\n                /* \"#utility.yul\":8106:8147   */\n              tag_189\n              jump\t// in\n            tag_284:\n                /* \"#utility.yul\":7825:8153   */\n              pop\n                /* \"#utility.yul\":7741:8153   */\n              swap4\n              swap3\n              pop\n              pop\n              pop\n              jump\t// out\n                /* \"#utility.yul\":8173:8513   */\n            tag_191:\n                /* \"#utility.yul\":8229:8234   */\n              0x00\n                /* \"#utility.yul\":8278:8281   */\n              dup3\n                /* \"#utility.yul\":8271:8275   */\n              0x1f\n                /* \"#utility.yul\":8263:8269   */\n              dup4\n                /* \"#utility.yul\":8259:8276   */\n              add\n                /* \"#utility.yul\":8255:8282   */\n              slt\n                /* \"#utility.yul\":8245:8367   */\n              tag_286\n              jumpi\n                /* \"#utility.yul\":8286:8365   */\n              tag_287\n              tag_183\n              jump\t// in\n            tag_287:\n                /* \"#utility.yul\":8245:8367   */\n            tag_286:\n                /* \"#utility.yul\":8403:8409   */\n              dup2\n                /* \"#utility.yul\":8390:8410   */\n              calldataload\n                /* \"#utility.yul\":8428:8507   */\n              tag_288\n                /* \"#utility.yul\":8503:8506   */\n              dup5\n                /* \"#utility.yul\":8495:8501   */\n              dup3\n                /* \"#utility.yul\":8488:8492   */\n              0x20\n                /* \"#utility.yul\":8480:8486   */\n              dup7\n                /* \"#utility.yul\":8476:8493   */\n              add\n                /* \"#utility.yul\":8428:8507   */\n              tag_190\n              jump\t// in\n            tag_288:\n                /* \"#utility.yul\":8419:8507   */\n              swap2\n              pop\n                /* \"#utility.yul\":8235:8513   */\n              pop\n                /* \"#utility.yul\":8173:8513   */\n              swap3\n              swap2\n              pop\n              pop\n              jump\t// out\n                /* \"#utility.yul\":8519:9318   */\n            tag_64:\n                /* \"#utility.yul\":8606:8612   */\n              0x00\n                /* \"#utility.yul\":8614:8620   */\n              dup1\n                /* \"#utility.yul\":8622:8628   */\n              0x00\n                /* \"#utility.yul\":8671:8673   */\n              0x60\n                /* \"#utility.yul\":8659:8668   */\n              dup5\n                /* \"#utility.yul\":8650:8657   */\n              dup7\n                /* \"#utility.yul\":8646:8669   */\n              sub\n                /* \"#utility.yul\":8642:8674   */\n              slt\n                /* \"#utility.yul\":8639:8758   */\n              iszero\n              tag_290\n              jumpi\n                /* \"#utility.yul\":8677:8756   */\n              tag_291\n              tag_165\n              jump\t// in\n            tag_291:\n                /* \"#utility.yul\":8639:8758   */\n            tag_290:\n                /* \"#utility.yul\":8825:8826   */\n              0x00\n                /* \"#utility.yul\":8814:8823   */\n              dup5\n                /* \"#utility.yul\":8810:8827   */\n              add\n                /* \"#utility.yul\":8797:8828   */\n              calldataload\n                /* \"#utility.yul\":8855:8873   */\n              0xffffffffffffffff\n                /* \"#utility.yul\":8847:8853   */\n              dup2\n                /* \"#utility.yul\":8844:8874   */\n              gt\n                /* \"#utility.yul\":8841:8958   */\n              iszero\n              tag_292\n              jumpi\n                /* \"#utility.yul\":8877:8956   */\n              tag_293\n              tag_166\n              jump\t// in\n            tag_293:\n                /* \"#utility.yul\":8841:8958   */\n            tag_292:\n                /* \"#utility.yul\":8982:9045   */\n              tag_294\n                /* \"#utility.yul\":9037:9044   */\n              dup7\n                /* \"#utility.yul\":9028:9034   */\n              dup3\n                /* \"#utility.yul\":9017:9026   */\n              dup8\n                /* \"#utility.yul\":9013:9035   */\n              add\n                /* \"#utility.yul\":8982:9045   */\n              tag_191\n              jump\t// in\n            tag_294:\n                /* \"#utility.yul\":8972:9045   */\n              swap4\n              pop\n                /* \"#utility.yul\":8768:9055   */\n              pop\n                /* \"#utility.yul\":9094:9096   */\n              0x20\n                /* \"#utility.yul\":9120:9173   */\n              tag_295\n                /* \"#utility.yul\":9165:9172   */\n              dup7\n                /* \"#utility.yul\":9156:9162   */\n              dup3\n                /* \"#utility.yul\":9145:9154   */\n              dup8\n                /* \"#utility.yul\":9141:9163   */\n              add\n                /* \"#utility.yul\":9120:9173   */\n              tag_169\n              jump\t// in\n            tag_295:\n                /* \"#utility.yul\":9110:9173   */\n              swap3\n              pop\n                /* \"#utility.yul\":9065:9183   */\n              pop\n                /* \"#utility.yul\":9222:9224   */\n              0x40\n                /* \"#utility.yul\":9248:9301   */\n              tag_296\n                /* \"#utility.yul\":9293:9300   */\n              dup7\n                /* \"#utility.yul\":9284:9290   */\n              dup3\n                /* \"#utility.yul\":9273:9282   */\n              dup8\n                /* \"#utility.yul\":9269:9291   */\n              add\n                /* \"#utility.yul\":9248:9301   */\n              tag_178\n              jump\t// in\n            tag_296:\n                /* \"#utility.yul\":9238:9301   */\n              swap2\n              pop\n                /* \"#utility.yul\":9193:9311   */\n              pop\n                /* \"#utility.yul\":8519:9318   */\n              swap3\n              pop\n              swap3\n              pop\n              swap3\n              jump\t// out\n                /* \"#utility.yul\":9324:9504   */\n            tag_89:\n                /* \"#utility.yul\":9372:9449   */\n              0x4e487b7100000000000000000000000000000000000000000000000000000000\n                /* \"#utility.yul\":9369:9370   */\n              0x00\n                /* \"#utility.yul\":9362:9450   */\n              mstore\n                /* \"#utility.yul\":9469:9473   */\n              0x32\n                /* \"#utility.yul\":9466:9467   */\n              0x04\n                /* \"#utility.yul\":9459:9474   */\n              mstore\n                /* \"#utility.yul\":9493:9497   */\n              0x24\n                /* \"#utility.yul\":9490:9491   */\n              0x00\n                /* \"#utility.yul\":9483:9498   */\n              revert\n                /* \"#utility.yul\":9510:9690   */\n            tag_192:\n                /* \"#utility.yul\":9558:9635   */\n              0x4e487b7100000000000000000000000000000000000000000000000000000000\n                /* \"#utility.yul\":9555:9556   */\n              0x00\n                /* \"#utility.yul\":9548:9636   */\n              mstore\n                /* \"#utility.yul\":9655:9659   */\n              0x12\n                /* \"#utility.yul\":9652:9653   */\n              0x04\n                /* \"#utility.yul\":9645:9660   */\n              mstore\n                /* \"#utility.yul\":9679:9683   */\n              0x24\n                /* \"#utility.yul\":9676:9677   */\n              0x00\n                /* \"#utility.yul\":9669:9684   */\n              revert\n                /* \"#utility.yul\":9696:9876   */\n            tag_193:\n                /* \"#utility.yul\":9744:9821   */\n              0x4e487b7100000000000000000000000000000000000000000000000000000000\n                /* \"#utility.yul\":9741:9742   */\n              0x00\n                /* \"#utility.yul\":9734:9822   */\n              mstore\n                /* \"#utility.yul\":9841:9845   */\n              0x11\n                /* \"#utility.yul\":9838:9839   */\n              0x04\n                /* \"#utility.yul\":9831:9846   */\n              mstore\n                /* \"#utility.yul\":9865:9869   */\n              0x24\n                /* \"#utility.yul\":9862:9863   */\n              0x00\n                /* \"#utility.yul\":9855:9870   */\n              revert\n                /* \"#utility.yul\":9882:10067   */\n            tag_92:\n                /* \"#utility.yul\":9922:9923   */\n              0x00\n                /* \"#utility.yul\":9939:9959   */\n              tag_301\n                /* \"#utility.yul\":9957:9958   */\n              dup3\n                /* \"#utility.yul\":9939:9959   */\n              tag_167\n              jump\t// in\n            tag_301:\n                /* \"#utility.yul\":9934:9959   */\n              swap2\n              pop\n                /* \"#utility.yul\":9973:9993   */\n              tag_302\n                /* \"#utility.yul\":9991:9992   */\n              dup4\n                /* \"#utility.yul\":9973:9993   */\n              tag_167\n              jump\t// in\n            tag_302:\n                /* \"#utility.yul\":9968:9993   */\n              swap3\n              pop\n                /* \"#utility.yul\":10012:10013   */\n              dup3\n                /* \"#utility.yul\":10002:10037   */\n              tag_303\n              jumpi\n                /* \"#utility.yul\":10017:10035   */\n              tag_304\n              tag_192\n              jump\t// in\n            tag_304:\n                /* \"#utility.yul\":10002:10037   */\n            tag_303:\n                /* \"#utility.yul\":10059:10060   */\n              dup3\n                /* \"#utility.yul\":10056:10057   */\n              dup3\n                /* \"#utility.yul\":10052:10061   */\n              div\n                /* \"#utility.yul\":10047:10061   */\n              swap1\n              pop\n                /* \"#utility.yul\":9882:10067   */\n              swap3\n              swap2\n              pop\n              pop\n              jump\t// out\n                /* \"#utility.yul\":10073:10253   */\n            tag_194:\n                /* \"#utility.yul\":10121:10198   */\n              0x4e487b7100000000000000000000000000000000000000000000000000000000\n                /* \"#utility.yul\":10118:10119   */\n              0x00\n                /* \"#utility.yul\":10111:10199   */\n              mstore\n                /* \"#utility.yul\":10218:10222   */\n              0x22\n                /* \"#utility.yul\":10215:10216   */\n              0x04\n                /* \"#utility.yul\":10208:10223   */\n              mstore\n                /* \"#utility.yul\":10242:10246   */\n              0x24\n                /* \"#utility.yul\":10239:10240   */\n              0x00\n                /* \"#utility.yul\":10232:10247   */\n              revert\n                /* \"#utility.yul\":10259:10579   */\n            tag_98:\n                /* \"#utility.yul\":10303:10309   */\n              0x00\n                /* \"#utility.yul\":10340:10341   */\n              0x02\n                /* \"#utility.yul\":10334:10338   */\n              dup3\n                /* \"#utility.yul\":10330:10342   */\n              div\n                /* \"#utility.yul\":10320:10342   */\n              swap1\n              pop\n                /* \"#utility.yul\":10387:10388   */\n              0x01\n                /* \"#utility.yul\":10381:10385   */\n              dup3\n                /* \"#utility.yul\":10377:10389   */\n              and\n                /* \"#utility.yul\":10408:10426   */\n              dup1\n                /* \"#utility.yul\":10398:10479   */\n              tag_307\n              jumpi\n                /* \"#utility.yul\":10464:10468   */\n              0x7f\n                /* \"#utility.yul\":10456:10462   */\n              dup3\n                /* \"#utility.yul\":10452:10469   */\n              and\n                /* \"#utility.yul\":10442:10469   */\n              swap2\n              pop\n                /* \"#utility.yul\":10398:10479   */\n            tag_307:\n                /* \"#utility.yul\":10526:10528   */\n              0x20\n                /* \"#utility.yul\":10518:10524   */\n              dup3\n                /* \"#utility.yul\":10515:10529   */\n              lt\n                /* \"#utility.yul\":10495:10513   */\n              dup2\n                /* \"#utility.yul\":10492:10530   */\n              eq\n                /* \"#utility.yul\":10489:10573   */\n              iszero\n              tag_308\n              jumpi\n                /* \"#utility.yul\":10545:10563   */\n              tag_309\n              tag_194\n              jump\t// in\n            tag_309:\n                /* \"#utility.yul\":10489:10573   */\n            tag_308:\n                /* \"#utility.yul\":10310:10579   */\n              pop\n                /* \"#utility.yul\":10259:10579   */\n              swap2\n              swap1\n              pop\n              jump\t// out\n                /* \"#utility.yul\":10585:10818   */\n            tag_136:\n                /* \"#utility.yul\":10624:10627   */\n              0x00\n                /* \"#utility.yul\":10647:10671   */\n              tag_311\n                /* \"#utility.yul\":10665:10670   */\n              dup3\n                /* \"#utility.yul\":10647:10671   */\n              tag_167\n              jump\t// in\n            tag_311:\n                /* \"#utility.yul\":10638:10671   */\n              swap2\n              pop\n                /* \"#utility.yul\":10693:10759   */\n              0xffffffffffffffffffffffffffffffffffffffffffffffffffffffffffffffff\n                /* \"#utility.yul\":10686:10691   */\n              dup3\n                /* \"#utility.yul\":10683:10760   */\n              eq\n                /* \"#utility.yul\":10680:10783   */\n              iszero\n              tag_312\n              jumpi\n                /* \"#utility.yul\":10763:10781   */\n              tag_313\n              tag_193\n              jump\t// in\n            tag_313:\n                /* \"#utility.yul\":10680:10783   */\n            tag_312:\n                /* \"#utility.yul\":10810:10811   */\n              0x01\n                /* \"#utility.yul\":10803:10808   */\n              dup3\n                /* \"#utility.yul\":10799:10812   */\n              add\n                /* \"#utility.yul\":10792:10812   */\n              swap1\n              pop\n                /* \"#utility.yul\":10585:10818   */\n              swap2\n              swap1\n              pop\n              jump\t// out\n\n            auxdata: 0xa2646970667358221220094208b170cb367fba63651b3afdc66af176037ae24bfc69fc751b97c3ac097a64736f6c63430008090033\n        }\n    }\n\n    auxdata: 0xa2646970667358221220ea7754e4268dd73a5ff0640614b6a0fd625219a2c2176530b28e1095763a15aa64736f6c63430008090033\n}\n","bytecode":{"linkReferences":{},"object":"608060405234801561001057600080fd5b50612068806100206000396000f3fe60806040523480156200001157600080fd5b5060043610620000465760003560e01c80635822a6c7146200004b5780637ac3886e146200006b5780639ec6deaf146200008d575b600080fd5b62000069600480360381019062000063919062000401565b620000c3565b005b6200007562000172565b604051620000849190620005d2565b60405180910390f35b620000ab6004803603810190620000a59190620005f6565b62000202565b604051620000ba919062000639565b60405180910390f35b60008433858585604051620000d89062000242565b620000e89594939291906200071f565b604051809103906000f08015801562000105573d6000803e3d6000fd5b5090506000819080600181540180825580915050600190039060005260206000200160009091909190916101000a81548173ffffffffffffffffffffffffffffffffffffffff021916908373ffffffffffffffffffffffffffffffffffffffff1602179055505050505050565b60606000805480602002602001604051908101604052809291908181526020018280548015620001f857602002820191906000526020600020905b8160009054906101000a900473ffffffffffffffffffffffffffffffffffffffff1673ffffffffffffffffffffffffffffffffffffffff1681526020019060010190808311620001ad575b5050505050905090565b600081815481106200021357600080fd5b906000526020600020016000915054906101000a900473ffffffffffffffffffffffffffffffffffffffff1681565b6118a1806200079283390190565b6000604051905090565b600080fd5b600080fd5b6000819050919050565b620002798162000264565b81146200028557600080fd5b50565b60008135905062000299816200026e565b92915050565b600080fd5b600080fd5b6000601f19601f8301169050919050565b7f4e487b7100000000000000000000000000000000000000000000000000000000600052604160045260246000fd5b620002f482620002a9565b810181811067ffffffffffffffff82111715620003165762000315620002ba565b5b80604052505050565b60006200032b62000250565b9050620003398282620002e9565b919050565b600067ffffffffffffffff8211156200035c576200035b620002ba565b5b6200036782620002a9565b9050602081019050919050565b82818337600083830152505050565b60006200039a62000394846200033e565b6200031f565b905082815260208101848484011115620003b957620003b8620002a4565b5b620003c684828562000374565b509392505050565b600082601f830112620003e657620003e56200029f565b5b8135620003f884826020860162000383565b91505092915050565b600080600080608085870312156200041e576200041d6200025a565b5b60006200042e8782880162000288565b945050602085013567ffffffffffffffff8111156200045257620004516200025f565b5b6200046087828801620003ce565b935050604085013567ffffffffffffffff8111156200048457620004836200025f565b5b6200049287828801620003ce565b925050606085013567ffffffffffffffff811115620004b657620004b56200025f565b5b620004c487828801620003ce565b91505092959194509250565b600081519050919050565b600082825260208201905092915050565b6000819050602082019050919050565b600073ffffffffffffffffffffffffffffffffffffffff82169050919050565b60006200052982620004fc565b9050919050565b6200053b816200051c565b82525050565b60006200054f838362000530565b60208301905092915050565b6000602082019050919050565b60006200057582620004d0565b620005818185620004db565b93506200058e83620004ec565b8060005b83811015620005c5578151620005a9888262000541565b9750620005b6836200055b565b92505060018101905062000592565b5085935050505092915050565b60006020820190508181036000830152620005ee818462000568565b905092915050565b6000602082840312156200060f576200060e6200025a565b5b60006200061f8482850162000288565b91505092915050565b62000633816200051c565b82525050565b600060208201905062000650600083018462000628565b92915050565b620006618162000264565b82525050565b60006200067482620004fc565b9050919050565b620006868162000667565b82525050565b600081519050919050565b600082825260208201905092915050565b60005b83811015620006c8578082015181840152602081019050620006ab565b83811115620006d8576000848401525b50505050565b6000620006eb826200068c565b620006f7818562000697565b935062000709818560208601620006a8565b6200071481620002a9565b840191505092915050565b600060a08201905062000736600083018862000656565b6200074560208301876200067b565b8181036040830152620007598186620006de565b905081810360608301526200076f8185620006de565b90508181036080830152620007858184620006de565b9050969550505050505056fe60806040523480156200001157600080fd5b50604051620018a1380380620018a18339818101604052810190620000379190620003c2565b83600160006101000a81548173ffffffffffffffffffffffffffffffffffffffff021916908373ffffffffffffffffffffffffffffffffffffffff16021790555084600281905550826005908051906020019062000097929190620000d5565b508160069080519060200190620000b0929190620000d5565b508060079080519060200190620000c9929190620000d5565b5050505050506200050c565b828054620000e390620004d6565b90600052602060002090601f01602090048101928262000107576000855562000153565b82601f106200012257805160ff191683800117855562000153565b8280016001018555821562000153579182015b828111156200015257825182559160200191906001019062000135565b5b50905062000162919062000166565b5090565b5b808211156200018157600081600090555060010162000167565b5090565b6000604051905090565b600080fd5b600080fd5b6000819050919050565b620001ae8162000199565b8114620001ba57600080fd5b50565b600081519050620001ce81620001a3565b92915050565b600073ffffffffffffffffffffffffffffffffffffffff82169050919050565b60006200020182620001d4565b9050919050565b6200021381620001f4565b81146200021f57600080fd5b50565b600081519050620002338162000208565b92915050565b600080fd5b600080fd5b6000601f19601f8301169050919050565b7f4e487b7100000000000000000000000000000000000000000000000000000000600052604160045260246000fd5b6200028e8262000243565b810181811067ffffffffffffffff82111715620002b057620002af62000254565b5b80604052505050565b6000620002c562000185565b9050620002d3828262000283565b919050565b600067ffffffffffffffff821115620002f657620002f562000254565b5b620003018262000243565b9050602081019050919050565b60005b838110156200032e57808201518184015260208101905062000311565b838111156200033e576000848401525b50505050565b60006200035b6200035584620002d8565b620002b9565b9050828152602081018484840111156200037a57620003796200023e565b5b620003878482856200030e565b509392505050565b600082601f830112620003a757620003a662000239565b5b8151620003b984826020860162000344565b91505092915050565b600080600080600060a08688031215620003e157620003e06200018f565b5b6000620003f188828901620001bd565b9550506020620004048882890162000222565b945050604086015167ffffffffffffffff81111562000428576200042762000194565b5b62000436888289016200038f565b935050606086015167ffffffffffffffff8111156200045a576200045962000194565b5b62000468888289016200038f565b925050608086015167ffffffffffffffff8111156200048c576200048b62000194565b5b6200049a888289016200038f565b9150509295509295909350565b7f4e487b7100000000000000000000000000000000000000000000000000000000600052602260045260246000fd5b60006002820490506001821680620004ef57607f821691505b60208210811415620005065762000505620004a7565b5b50919050565b611385806200051c6000396000f3fe6080604052600436106100dd5760003560e01c806382fde0931161007f578063d7bb99ba11610059578063d7bb99ba146102bb578063d7d1bbdb146102c5578063ea2562e0146102ee578063f3ccaac014610319576100dd565b806382fde0931461023c5780638a9cfd5514610267578063937e09b114610290576100dd565b80633410452a116100bb5780633410452a146101735780634051ddac1461019e578063481c6a75146101d057806381d12c58146101fb576100dd565b806303441006146100e257806306fdde031461010b5780630a14439114610136575b600080fd5b3480156100ee57600080fd5b5061010960048036038101906101049190610d59565b610344565b005b34801561011757600080fd5b5061012061048d565b60405161012d9190610e1f565b60405180910390f35b34801561014257600080fd5b5061015d60048036038101906101589190610e9f565b61051b565b60405161016a9190610ee7565b60405180910390f35b34801561017f57600080fd5b5061018861053b565b6040516101959190610f11565b60405180910390f35b3480156101aa57600080fd5b506101b3610547565b6040516101c7989796959493929190610f3b565b60405180910390f35b3480156101dc57600080fd5b506101e5610748565b6040516101f29190610fce565b60405180910390f35b34801561020757600080fd5b50610222600480360381019061021d9190610d59565b61076e565b604051610233959493929190610fe9565b60405180910390f35b34801561024857600080fd5b50610251610869565b60405161025e9190610f11565b60405180910390f35b34801561027357600080fd5b5061028e60048036038101906102899190611178565b61086f565b005b34801561029c57600080fd5b506102a561097e565b6040516102b29190610f11565b60405180910390f35b6102c3610984565b005b3480156102d157600080fd5b506102ec60048036038101906102e79190610d59565b610a04565b005b3480156102fa57600080fd5b50610303610b50565b6040516103109190610e1f565b60405180910390f35b34801561032557600080fd5b5061032e610bde565b60405161033b9190610e1f565b60405180910390f35b600160009054906101000a900473ffffffffffffffffffffffffffffffffffffffff1673ffffffffffffffffffffffffffffffffffffffff163373ffffffffffffffffffffffffffffffffffffffff161461039e57600080fd5b60008082815481106103b3576103b26111e7565b5b9060005260206000209060050201905060026004546103d29190611274565b8160030154116103e157600080fd5b8060020160149054906101000a900460ff16156103fd57600080fd5b8060020160009054906101000a900473ffffffffffffffffffffffffffffffffffffffff1673ffffffffffffffffffffffffffffffffffffffff166108fc82600101549081150290604051600060405180830381858888f1935050505015801561046b573d6000803e3d6000fd5b5060018160020160146101000a81548160ff0219169083151502179055505050565b6005805461049a906112d4565b80601f01602080910402602001604051908101604052809291908181526020018280546104c6906112d4565b80156105135780601f106104e857610100808354040283529160200191610513565b820191906000526020600020905b8154815290600101906020018083116104f657829003601f168201915b505050505081565b60036020528060005260406000206000915054906101000a900460ff1681565b60008080549050905090565b6000806000806000606080606060025447600080549050600454600160009054906101000a900473ffffffffffffffffffffffffffffffffffffffff16600560066007828054610596906112d4565b80601f01602080910402602001604051908101604052809291908181526020018280546105c2906112d4565b801561060f5780601f106105e45761010080835404028352916020019161060f565b820191906000526020600020905b8154815290600101906020018083116105f257829003601f168201915b50505050509250818054610622906112d4565b80601f016020809104026020016040519081016040528092919081815260200182805461064e906112d4565b801561069b5780601f106106705761010080835404028352916020019161069b565b820191906000526020600020905b81548152906001019060200180831161067e57829003601f168201915b505050505091508080546106ae906112d4565b80601f01602080910402602001604051908101604052809291908181526020018280546106da906112d4565b80156107275780601f106106fc57610100808354040283529160200191610727565b820191906000526020600020905b81548152906001019060200180831161070a57829003601f168201915b50505050509050975097509750975097509750975097509091929394959697565b600160009054906101000a900473ffffffffffffffffffffffffffffffffffffffff1681565b6000818154811061077e57600080fd5b90600052602060002090600502016000915090508060000180546107a1906112d4565b80601f01602080910402602001604051908101604052809291908181526020018280546107cd906112d4565b801561081a5780601f106107ef5761010080835404028352916020019161081a565b820191906000526020600020905b8154815290600101906020018083116107fd57829003601f168201915b5050505050908060010154908060020160009054906101000a900473ffffffffffffffffffffffffffffffffffffffff16908060020160149054906101000a900460ff16908060030154905085565b60045481565b600160009054906101000a900473ffffffffffffffffffffffffffffffffffffffff1673ffffffffffffffffffffffffffffffffffffffff163373ffffffffffffffffffffffffffffffffffffffff16146108c957600080fd5b600080600181600181540180825580915050039060005260206000209060050201905083816000019080519060200190610904929190610c6c565b50828160010181905550818160020160006101000a81548173ffffffffffffffffffffffffffffffffffffffff021916908373ffffffffffffffffffffffffffffffffffffffff16021790555060008160020160146101000a81548160ff0219169083151502179055506000816003018190555050505050565b60025481565b600254341161099257600080fd5b6001600360003373ffffffffffffffffffffffffffffffffffffffff1673ffffffffffffffffffffffffffffffffffffffff16815260200190815260200160002060006101000a81548160ff021916908315150217905550600460008154809291906109fd90611306565b9190505550565b6000808281548110610a1957610a186111e7565b5b90600052602060002090600502019050600360003373ffffffffffffffffffffffffffffffffffffffff1673ffffffffffffffffffffffffffffffffffffffff16815260200190815260200160002060009054906101000a900460ff16610a7f57600080fd5b8060040160003373ffffffffffffffffffffffffffffffffffffffff1673ffffffffffffffffffffffffffffffffffffffff16815260200190815260200160002060009054906101000a900460ff1615610ad857600080fd5b60018160040160003373ffffffffffffffffffffffffffffffffffffffff1673ffffffffffffffffffffffffffffffffffffffff16815260200190815260200160002060006101000a81548160ff021916908315150217905550806003016000815480929190610b4790611306565b91905055505050565b60068054610b5d906112d4565b80601f0160208091040260200160405190810160405280929190818152602001828054610b89906112d4565b8015610bd65780601f10610bab57610100808354040283529160200191610bd6565b820191906000526020600020905b815481529060010190602001808311610bb957829003601f168201915b505050505081565b60078054610beb906112d4565b80601f0160208091040260200160405190810160405280929190818152602001828054610c17906112d4565b8015610c645780601f10610c3957610100808354040283529160200191610c64565b820191906000526020600020905b815481529060010190602001808311610c4757829003601f168201915b505050505081565b828054610c78906112d4565b90600052602060002090601f016020900481019282610c9a5760008555610ce1565b82601f10610cb357805160ff1916838001178555610ce1565b82800160010185558215610ce1579182015b82811115610ce0578251825591602001919060010190610cc5565b5b509050610cee9190610cf2565b5090565b5b80821115610d0b576000816000905550600101610cf3565b5090565b6000604051905090565b600080fd5b600080fd5b6000819050919050565b610d3681610d23565b8114610d4157600080fd5b50565b600081359050610d5381610d2d565b92915050565b600060208284031215610d6f57610d6e610d19565b5b6000610d7d84828501610d44565b91505092915050565b600081519050919050565b600082825260208201905092915050565b60005b83811015610dc0578082015181840152602081019050610da5565b83811115610dcf576000848401525b50505050565b6000601f19601f8301169050919050565b6000610df182610d86565b610dfb8185610d91565b9350610e0b818560208601610da2565b610e1481610dd5565b840191505092915050565b60006020820190508181036000830152610e398184610de6565b905092915050565b600073ffffffffffffffffffffffffffffffffffffffff82169050919050565b6000610e6c82610e41565b9050919050565b610e7c81610e61565b8114610e8757600080fd5b50565b600081359050610e9981610e73565b92915050565b600060208284031215610eb557610eb4610d19565b5b6000610ec384828501610e8a565b91505092915050565b60008115159050919050565b610ee181610ecc565b82525050565b6000602082019050610efc6000830184610ed8565b92915050565b610f0b81610d23565b82525050565b6000602082019050610f266000830184610f02565b92915050565b610f3581610e61565b82525050565b600061010082019050610f51600083018b610f02565b610f5e602083018a610f02565b610f6b6040830189610f02565b610f786060830188610f02565b610f856080830187610f2c565b81810360a0830152610f978186610de6565b905081810360c0830152610fab8185610de6565b905081810360e0830152610fbf8184610de6565b90509998505050505050505050565b6000602082019050610fe36000830184610f2c565b92915050565b600060a08201905081810360008301526110038188610de6565b90506110126020830187610f02565b61101f6040830186610f2c565b61102c6060830185610ed8565b6110396080830184610f02565b9695505050505050565b600080fd5b600080fd5b7f4e487b7100000000000000000000000000000000000000000000000000000000600052604160045260246000fd5b61108582610dd5565b810181811067ffffffffffffffff821117156110a4576110a361104d565b5b80604052505050565b60006110b7610d0f565b90506110c3828261107c565b919050565b600067ffffffffffffffff8211156110e3576110e261104d565b5b6110ec82610dd5565b9050602081019050919050565b82818337600083830152505050565b600061111b611116846110c8565b6110ad565b90508281526020810184848401111561113757611136611048565b5b6111428482856110f9565b509392505050565b600082601f83011261115f5761115e611043565b5b813561116f848260208601611108565b91505092915050565b60008060006060848603121561119157611190610d19565b5b600084013567ffffffffffffffff8111156111af576111ae610d1e565b5b6111bb8682870161114a565b93505060206111cc86828701610d44565b92505060406111dd86828701610e8a565b9150509250925092565b7f4e487b7100000000000000000000000000000000000000000000000000000000600052603260045260246000fd5b7f4e487b7100000000000000000000000000000000000000000000000000000000600052601260045260246000fd5b7f4e487b7100000000000000000000000000000000000000000000000000000000600052601160045260246000fd5b600061127f82610d23565b915061128a83610d23565b92508261129a57611299611216565b5b828204905092915050565b7f4e487b7100000000000000000000000000000000000000000000000000000000600052602260045260246000fd5b600060028204905060018216806112ec57607f821691505b60208210811415611300576112ff6112a5565b5b50919050565b600061131182610d23565b91507fffffffffffffffffffffffffffffffffffffffffffffffffffffffffffffffff82141561134457611343611245565b5b60018201905091905056fea2646970667358221220094208b170cb367fba63651b3afdc66af176037ae24bfc69fc751b97c3ac097a64736f6c63430008090033a2646970667358221220ea7754e4268dd73a5ff0640614b6a0fd625219a2c2176530b28e1095763a15aa64736f6c63430008090033","opcodes":"PUSH1 0x80 PUSH1 0x40 MSTORE CALLVALUE DUP1 ISZERO PUSH2 0x10 JUMPI PUSH1 0x0 DUP1 REVERT JUMPDEST POP PUSH2 0x2068 DUP1 PUSH2 0x20 PUSH1 0x0 CODECOPY PUSH1 0x0 RETURN INVALID PUSH1 0x80 PUSH1 0x40 MSTORE CALLVALUE DUP1 ISZERO PUSH3 0x11 JUMPI PUSH1 0x0 DUP1 REVERT JUMPDEST POP PUSH1 0x4 CALLDATASIZE LT PUSH3 0x46 JUMPI PUSH1 0x0 CALLDATALOAD PUSH1 0xE0 SHR DUP1 PUSH4 0x5822A6C7 EQ PUSH3 0x4B JUMPI DUP1 PUSH4 0x7AC3886E EQ PUSH3 0x6B JUMPI DUP1 PUSH4 0x9EC6DEAF EQ PUSH3 0x8D JUMPI JUMPDEST PUSH1 0x0 DUP1 REVERT JUMPDEST PUSH3 0x69 PUSH1 0x4 DUP1 CALLDATASIZE SUB DUP2 ADD SWAP1 PUSH3 0x63 SWAP2 SWAP1 PUSH3 0x401 JUMP JUMPDEST PUSH3 0xC3 JUMP JUMPDEST STOP JUMPDEST PUSH3 0x75 PUSH3 0x172 JUMP JUMPDEST PUSH1 0x40 MLOAD PUSH3 0x84 SWAP2 SWAP1 PUSH3 0x5D2 JUMP JUMPDEST PUSH1 0x40 MLOAD DUP1 SWAP2 SUB SWAP1 RETURN JUMPDEST PUSH3 0xAB PUSH1 0x4 DUP1 CALLDATASIZE SUB DUP2 ADD SWAP1 PUSH3 0xA5 SWAP2 SWAP1 PUSH3 0x5F6 JUMP JUMPDEST PUSH3 0x202 JUMP JUMPDEST PUSH1 0x40 MLOAD PUSH3 0xBA SWAP2 SWAP1 PUSH3 0x639 JUMP JUMPDEST PUSH1 0x40 MLOAD DUP1 SWAP2 SUB SWAP1 RETURN JUMPDEST PUSH1 0x0 DUP5 CALLER DUP6 DUP6 DUP6 PUSH1 0x40 MLOAD PUSH3 0xD8 SWAP1 PUSH3 0x242 JUMP JUMPDEST PUSH3 0xE8 SWAP6 SWAP5 SWAP4 SWAP3 SWAP2 SWAP1 PUSH3 0x71F JUMP JUMPDEST PUSH1 0x40 MLOAD DUP1 SWAP2 SUB SWAP1 PUSH1 0x0 CREATE DUP1 ISZERO DUP1 ISZERO PUSH3 0x105 JUMPI RETURNDATASIZE PUSH1 0x0 DUP1 RETURNDATACOPY RETURNDATASIZE PUSH1 0x0 REVERT JUMPDEST POP SWAP1 POP PUSH1 0x0 DUP2 SWAP1 DUP1 PUSH1 0x1 DUP2 SLOAD ADD DUP1 DUP3 SSTORE DUP1 SWAP2 POP POP PUSH1 0x1 SWAP1 SUB SWAP1 PUSH1 0x0 MSTORE PUSH1 0x20 PUSH1 0x0 KECCAK256 ADD PUSH1 0x0 SWAP1 SWAP2 SWAP1 SWAP2 SWAP1 SWAP2 PUSH2 0x100 EXP DUP2 SLOAD DUP2 PUSH20 0xFFFFFFFFFFFFFFFFFFFFFFFFFFFFFFFFFFFFFFFF MUL NOT AND SWAP1 DUP4 PUSH20 0xFFFFFFFFFFFFFFFFFFFFFFFFFFFFFFFFFFFFFFFF AND MUL OR SWAP1 SSTORE POP POP POP POP POP POP JUMP JUMPDEST PUSH1 0x60 PUSH1 0x0 DUP1 SLOAD DUP1 PUSH1 0x20 MUL PUSH1 0x20 ADD PUSH1 0x40 MLOAD SWAP1 DUP2 ADD PUSH1 0x40 MSTORE DUP1 SWAP3 SWAP2 SWAP1 DUP2 DUP2 MSTORE PUSH1 0x20 ADD DUP3 DUP1 SLOAD DUP1 ISZERO PUSH3 0x1F8 JUMPI PUSH1 0x20 MUL DUP3 ADD SWAP2 SWAP1 PUSH1 0x0 MSTORE PUSH1 0x20 PUSH1 0x0 KECCAK256 SWAP1 JUMPDEST DUP2 PUSH1 0x0 SWAP1 SLOAD SWAP1 PUSH2 0x100 EXP SWAP1 DIV PUSH20 0xFFFFFFFFFFFFFFFFFFFFFFFFFFFFFFFFFFFFFFFF AND PUSH20 0xFFFFFFFFFFFFFFFFFFFFFFFFFFFFFFFFFFFFFFFF AND DUP2 MSTORE PUSH1 0x20 ADD SWAP1 PUSH1 0x1 ADD SWAP1 DUP1 DUP4 GT PUSH3 0x1AD JUMPI JUMPDEST POP POP POP POP POP SWAP1 POP SWAP1 JUMP JUMPDEST PUSH1 0x0 DUP2 DUP2 SLOAD DUP2 LT PUSH3 0x213 JUMPI PUSH1 0x0 DUP1 REVERT JUMPDEST SWAP1 PUSH1 0x0 MSTORE PUSH1 0x20 PUSH1 0x0 KECCAK256 ADD PUSH1 0x0 SWAP2 POP SLOAD SWAP1 PUSH2 0x100 EXP SWAP1 DIV PUSH20 0xFFFFFFFFFFFFFFFFFFFFFFFFFFFFFFFFFFFFFFFF AND DUP2 JUMP JUMPDEST PUSH2 0x18A1 DUP1 PUSH3 0x792 DUP4 CODECOPY ADD SWAP1 JUMP JUMPDEST PUSH1 0x0 PUSH1 0x40 MLOAD SWAP1 POP SWAP1 JUMP JUMPDEST PUSH1 0x0 DUP1 REVERT JUMPDEST PUSH1 0x0 DUP1 REVERT JUMPDEST PUSH1 0x0 DUP2 SWAP1 POP SWAP2 SWAP1 POP JUMP JUMPDEST PUSH3 0x279 DUP2 PUSH3 0x264 JUMP JUMPDEST DUP2 EQ PUSH3 0x285 JUMPI PUSH1 0x0 DUP1 REVERT JUMPDEST POP JUMP JUMPDEST PUSH1 0x0 DUP2 CALLDATALOAD SWAP1 POP PUSH3 0x299 DUP2 PUSH3 0x26E JUMP JUMPDEST SWAP3 SWAP2 POP POP JUMP JUMPDEST PUSH1 0x0 DUP1 REVERT JUMPDEST PUSH1 0x0 DUP1 REVERT JUMPDEST PUSH1 0x0 PUSH1 0x1F NOT PUSH1 0x1F DUP4 ADD AND SWAP1 POP SWAP2 SWAP1 POP JUMP JUMPDEST PUSH32 0x4E487B7100000000000000000000000000000000000000000000000000000000 PUSH1 0x0 MSTORE PUSH1 0x41 PUSH1 0x4 MSTORE PUSH1 0x24 PUSH1 0x0 REVERT JUMPDEST PUSH3 0x2F4 DUP3 PUSH3 0x2A9 JUMP JUMPDEST DUP2 ADD DUP2 DUP2 LT PUSH8 0xFFFFFFFFFFFFFFFF DUP3 GT OR ISZERO PUSH3 0x316 JUMPI PUSH3 0x315 PUSH3 0x2BA JUMP JUMPDEST JUMPDEST DUP1 PUSH1 0x40 MSTORE POP POP POP JUMP JUMPDEST PUSH1 0x0 PUSH3 0x32B PUSH3 0x250 JUMP JUMPDEST SWAP1 POP PUSH3 0x339 DUP3 DUP3 PUSH3 0x2E9 JUMP JUMPDEST SWAP2 SWAP1 POP JUMP JUMPDEST PUSH1 0x0 PUSH8 0xFFFFFFFFFFFFFFFF DUP3 GT ISZERO PUSH3 0x35C JUMPI PUSH3 0x35B PUSH3 0x2BA JUMP JUMPDEST JUMPDEST PUSH3 0x367 DUP3 PUSH3 0x2A9 JUMP JUMPDEST SWAP1 POP PUSH1 0x20 DUP2 ADD SWAP1 POP SWAP2 SWAP1 POP JUMP JUMPDEST DUP3 DUP2 DUP4 CALLDATACOPY PUSH1 0x0 DUP4 DUP4 ADD MSTORE POP POP POP JUMP JUMPDEST PUSH1 0x0 PUSH3 0x39A PUSH3 0x394 DUP5 PUSH3 0x33E JUMP JUMPDEST PUSH3 0x31F JUMP JUMPDEST SWAP1 POP DUP3 DUP2 MSTORE PUSH1 0x20 DUP2 ADD DUP5 DUP5 DUP5 ADD GT ISZERO PUSH3 0x3B9 JUMPI PUSH3 0x3B8 PUSH3 0x2A4 JUMP JUMPDEST JUMPDEST PUSH3 0x3C6 DUP5 DUP3 DUP6 PUSH3 0x374 JUMP JUMPDEST POP SWAP4 SWAP3 POP POP POP JUMP JUMPDEST PUSH1 0x0 DUP3 PUSH1 0x1F DUP4 ADD SLT PUSH3 0x3E6 JUMPI PUSH3 0x3E5 PUSH3 0x29F JUMP JUMPDEST JUMPDEST DUP2 CALLDATALOAD PUSH3 0x3F8 DUP5 DUP3 PUSH1 0x20 DUP7 ADD PUSH3 0x383 JUMP JUMPDEST SWAP2 POP POP SWAP3 SWAP2 POP POP JUMP JUMPDEST PUSH1 0x0 DUP1 PUSH1 0x0 DUP1 PUSH1 0x80 DUP6 DUP8 SUB SLT ISZERO PUSH3 0x41E JUMPI PUSH3 0x41D PUSH3 0x25A JUMP JUMPDEST JUMPDEST PUSH1 0x0 PUSH3 0x42E DUP8 DUP3 DUP9 ADD PUSH3 0x288 JUMP JUMPDEST SWAP5 POP POP PUSH1 0x20 DUP6 ADD CALLDATALOAD PUSH8 0xFFFFFFFFFFFFFFFF DUP2 GT ISZERO PUSH3 0x452 JUMPI PUSH3 0x451 PUSH3 0x25F JUMP JUMPDEST JUMPDEST PUSH3 0x460 DUP8 DUP3 DUP9 ADD PUSH3 0x3CE JUMP JUMPDEST SWAP4 POP POP PUSH1 0x40 DUP6 ADD CALLDATALOAD PUSH8 0xFFFFFFFFFFFFFFFF DUP2 GT ISZERO PUSH3 0x484 JUMPI PUSH3 0x483 PUSH3 0x25F JUMP JUMPDEST JUMPDEST PUSH3 0x492 DUP8 DUP3 DUP9 ADD PUSH3 0x3CE JUMP JUMPDEST SWAP3 POP POP PUSH1 0x60 DUP6 ADD CALLDATALOAD PUSH8 0xFFFFFFFFFFFFFFFF DUP2 GT ISZERO PUSH3 0x4B6 JUMPI PUSH3 0x4B5 PUSH3 0x25F JUMP JUMPDEST JUMPDEST PUSH3 0x4C4 DUP8 DUP3 DUP9 ADD PUSH3 0x3CE JUMP JUMPDEST SWAP2 POP POP SWAP3 SWAP6 SWAP2 SWAP5 POP SWAP3 POP JUMP JUMPDEST PUSH1 0x0 DUP2 MLOAD SWAP1 POP SWAP2 SWAP1 POP JUMP JUMPDEST PUSH1 0x0 DUP3 DUP3 MSTORE PUSH1 0x20 DUP3 ADD SWAP1 POP SWAP3 SWAP2 POP POP JUMP JUMPDEST PUSH1 0x0 DUP2 SWAP1 POP PUSH1 0x20 DUP3 ADD SWAP1 POP SWAP2 SWAP1 POP JUMP JUMPDEST PUSH1 0x0 PUSH20 0xFFFFFFFFFFFFFFFFFFFFFFFFFFFFFFFFFFFFFFFF DUP3 AND SWAP1 POP SWAP2 SWAP1 POP JUMP JUMPDEST PUSH1 0x0 PUSH3 0x529 DUP3 PUSH3 0x4FC JUMP JUMPDEST SWAP1 POP SWAP2 SWAP1 POP JUMP JUMPDEST PUSH3 0x53B DUP2 PUSH3 0x51C JUMP JUMPDEST DUP3 MSTORE POP POP JUMP JUMPDEST PUSH1 0x0 PUSH3 0x54F DUP4 DUP4 PUSH3 0x530 JUMP JUMPDEST PUSH1 0x20 DUP4 ADD SWAP1 POP SWAP3 SWAP2 POP POP JUMP JUMPDEST PUSH1 0x0 PUSH1 0x20 DUP3 ADD SWAP1 POP SWAP2 SWAP1 POP JUMP JUMPDEST PUSH1 0x0 PUSH3 0x575 DUP3 PUSH3 0x4D0 JUMP JUMPDEST PUSH3 0x581 DUP2 DUP6 PUSH3 0x4DB JUMP JUMPDEST SWAP4 POP PUSH3 0x58E DUP4 PUSH3 0x4EC JUMP JUMPDEST DUP1 PUSH1 0x0 JUMPDEST DUP4 DUP2 LT ISZERO PUSH3 0x5C5 JUMPI DUP2 MLOAD PUSH3 0x5A9 DUP9 DUP3 PUSH3 0x541 JUMP JUMPDEST SWAP8 POP PUSH3 0x5B6 DUP4 PUSH3 0x55B JUMP JUMPDEST SWAP3 POP POP PUSH1 0x1 DUP2 ADD SWAP1 POP PUSH3 0x592 JUMP JUMPDEST POP DUP6 SWAP4 POP POP POP POP SWAP3 SWAP2 POP POP JUMP JUMPDEST PUSH1 0x0 PUSH1 0x20 DUP3 ADD SWAP1 POP DUP2 DUP2 SUB PUSH1 0x0 DUP4 ADD MSTORE PUSH3 0x5EE DUP2 DUP5 PUSH3 0x568 JUMP JUMPDEST SWAP1 POP SWAP3 SWAP2 POP POP JUMP JUMPDEST PUSH1 0x0 PUSH1 0x20 DUP3 DUP5 SUB SLT ISZERO PUSH3 0x60F JUMPI PUSH3 0x60E PUSH3 0x25A JUMP JUMPDEST JUMPDEST PUSH1 0x0 PUSH3 0x61F DUP5 DUP3 DUP6 ADD PUSH3 0x288 JUMP JUMPDEST SWAP2 POP POP SWAP3 SWAP2 POP POP JUMP JUMPDEST PUSH3 0x633 DUP2 PUSH3 0x51C JUMP JUMPDEST DUP3 MSTORE POP POP JUMP JUMPDEST PUSH1 0x0 PUSH1 0x20 DUP3 ADD SWAP1 POP PUSH3 0x650 PUSH1 0x0 DUP4 ADD DUP5 PUSH3 0x628 JUMP JUMPDEST SWAP3 SWAP2 POP POP JUMP JUMPDEST PUSH3 0x661 DUP2 PUSH3 0x264 JUMP JUMPDEST DUP3 MSTORE POP POP JUMP JUMPDEST PUSH1 0x0 PUSH3 0x674 DUP3 PUSH3 0x4FC JUMP JUMPDEST SWAP1 POP SWAP2 SWAP1 POP JUMP JUMPDEST PUSH3 0x686 DUP2 PUSH3 0x667 JUMP JUMPDEST DUP3 MSTORE POP POP JUMP JUMPDEST PUSH1 0x0 DUP2 MLOAD SWAP1 POP SWAP2 SWAP1 POP JUMP JUMPDEST PUSH1 0x0 DUP3 DUP3 MSTORE PUSH1 0x20 DUP3 ADD SWAP1 POP SWAP3 SWAP2 POP POP JUMP JUMPDEST PUSH1 0x0 JUMPDEST DUP4 DUP2 LT ISZERO PUSH3 0x6C8 JUMPI DUP1 DUP3 ADD MLOAD DUP2 DUP5 ADD MSTORE PUSH1 0x20 DUP2 ADD SWAP1 POP PUSH3 0x6AB JUMP JUMPDEST DUP4 DUP2 GT ISZERO PUSH3 0x6D8 JUMPI PUSH1 0x0 DUP5 DUP5 ADD MSTORE JUMPDEST POP POP POP POP JUMP JUMPDEST PUSH1 0x0 PUSH3 0x6EB DUP3 PUSH3 0x68C JUMP JUMPDEST PUSH3 0x6F7 DUP2 DUP6 PUSH3 0x697 JUMP JUMPDEST SWAP4 POP PUSH3 0x709 DUP2 DUP6 PUSH1 0x20 DUP7 ADD PUSH3 0x6A8 JUMP JUMPDEST PUSH3 0x714 DUP2 PUSH3 0x2A9 JUMP JUMPDEST DUP5 ADD SWAP2 POP POP SWAP3 SWAP2 POP POP JUMP JUMPDEST PUSH1 0x0 PUSH1 0xA0 DUP3 ADD SWAP1 POP PUSH3 0x736 PUSH1 0x0 DUP4 ADD DUP9 PUSH3 0x656 JUMP JUMPDEST PUSH3 0x745 PUSH1 0x20 DUP4 ADD DUP8 PUSH3 0x67B JUMP JUMPDEST DUP2 DUP2 SUB PUSH1 0x40 DUP4 ADD MSTORE PUSH3 0x759 DUP2 DUP7 PUSH3 0x6DE JUMP JUMPDEST SWAP1 POP DUP2 DUP2 SUB PUSH1 0x60 DUP4 ADD MSTORE PUSH3 0x76F DUP2 DUP6 PUSH3 0x6DE JUMP JUMPDEST SWAP1 POP DUP2 DUP2 SUB PUSH1 0x80 DUP4 ADD MSTORE PUSH3 0x785 DUP2 DUP5 PUSH3 0x6DE JUMP JUMPDEST SWAP1 POP SWAP7 SWAP6 POP POP POP POP POP POP JUMP INVALID PUSH1 0x80 PUSH1 0x40 MSTORE CALLVALUE DUP1 ISZERO PUSH3 0x11 JUMPI PUSH1 0x0 DUP1 REVERT JUMPDEST POP PUSH1 0x40 MLOAD PUSH3 0x18A1 CODESIZE SUB DUP1 PUSH3 0x18A1 DUP4 CODECOPY DUP2 DUP2 ADD PUSH1 0x40 MSTORE DUP2 ADD SWAP1 PUSH3 0x37 SWAP2 SWAP1 PUSH3 0x3C2 JUMP JUMPDEST DUP4 PUSH1 0x1 PUSH1 0x0 PUSH2 0x100 EXP DUP2 SLOAD DUP2 PUSH20 0xFFFFFFFFFFFFFFFFFFFFFFFFFFFFFFFFFFFFFFFF MUL NOT AND SWAP1 DUP4 PUSH20 0xFFFFFFFFFFFFFFFFFFFFFFFFFFFFFFFFFFFFFFFF AND MUL OR SWAP1 SSTORE POP DUP5 PUSH1 0x2 DUP2 SWAP1 SSTORE POP DUP3 PUSH1 0x5 SWAP1 DUP1 MLOAD SWAP1 PUSH1 0x20 ADD SWAP1 PUSH3 0x97 SWAP3 SWAP2 SWAP1 PUSH3 0xD5 JUMP JUMPDEST POP DUP2 PUSH1 0x6 SWAP1 DUP1 MLOAD SWAP1 PUSH1 0x20 ADD SWAP1 PUSH3 0xB0 SWAP3 SWAP2 SWAP1 PUSH3 0xD5 JUMP JUMPDEST POP DUP1 PUSH1 0x7 SWAP1 DUP1 MLOAD SWAP1 PUSH1 0x20 ADD SWAP1 PUSH3 0xC9 SWAP3 SWAP2 SWAP1 PUSH3 0xD5 JUMP JUMPDEST POP POP POP POP POP POP PUSH3 0x50C JUMP JUMPDEST DUP3 DUP1 SLOAD PUSH3 0xE3 SWAP1 PUSH3 0x4D6 JUMP JUMPDEST SWAP1 PUSH1 0x0 MSTORE PUSH1 0x20 PUSH1 0x0 KECCAK256 SWAP1 PUSH1 0x1F ADD PUSH1 0x20 SWAP1 DIV DUP2 ADD SWAP3 DUP3 PUSH3 0x107 JUMPI PUSH1 0x0 DUP6 SSTORE PUSH3 0x153 JUMP JUMPDEST DUP3 PUSH1 0x1F LT PUSH3 0x122 JUMPI DUP1 MLOAD PUSH1 0xFF NOT AND DUP4 DUP1 ADD OR DUP6 SSTORE PUSH3 0x153 JUMP JUMPDEST DUP3 DUP1 ADD PUSH1 0x1 ADD DUP6 SSTORE DUP3 ISZERO PUSH3 0x153 JUMPI SWAP2 DUP3 ADD JUMPDEST DUP3 DUP2 GT ISZERO PUSH3 0x152 JUMPI DUP3 MLOAD DUP3 SSTORE SWAP2 PUSH1 0x20 ADD SWAP2 SWAP1 PUSH1 0x1 ADD SWAP1 PUSH3 0x135 JUMP JUMPDEST JUMPDEST POP SWAP1 POP PUSH3 0x162 SWAP2 SWAP1 PUSH3 0x166 JUMP JUMPDEST POP SWAP1 JUMP JUMPDEST JUMPDEST DUP1 DUP3 GT ISZERO PUSH3 0x181 JUMPI PUSH1 0x0 DUP2 PUSH1 0x0 SWAP1 SSTORE POP PUSH1 0x1 ADD PUSH3 0x167 JUMP JUMPDEST POP SWAP1 JUMP JUMPDEST PUSH1 0x0 PUSH1 0x40 MLOAD SWAP1 POP SWAP1 JUMP JUMPDEST PUSH1 0x0 DUP1 REVERT JUMPDEST PUSH1 0x0 DUP1 REVERT JUMPDEST PUSH1 0x0 DUP2 SWAP1 POP SWAP2 SWAP1 POP JUMP JUMPDEST PUSH3 0x1AE DUP2 PUSH3 0x199 JUMP JUMPDEST DUP2 EQ PUSH3 0x1BA JUMPI PUSH1 0x0 DUP1 REVERT JUMPDEST POP JUMP JUMPDEST PUSH1 0x0 DUP2 MLOAD SWAP1 POP PUSH3 0x1CE DUP2 PUSH3 0x1A3 JUMP JUMPDEST SWAP3 SWAP2 POP POP JUMP JUMPDEST PUSH1 0x0 PUSH20 0xFFFFFFFFFFFFFFFFFFFFFFFFFFFFFFFFFFFFFFFF DUP3 AND SWAP1 POP SWAP2 SWAP1 POP JUMP JUMPDEST PUSH1 0x0 PUSH3 0x201 DUP3 PUSH3 0x1D4 JUMP JUMPDEST SWAP1 POP SWAP2 SWAP1 POP JUMP JUMPDEST PUSH3 0x213 DUP2 PUSH3 0x1F4 JUMP JUMPDEST DUP2 EQ PUSH3 0x21F JUMPI PUSH1 0x0 DUP1 REVERT JUMPDEST POP JUMP JUMPDEST PUSH1 0x0 DUP2 MLOAD SWAP1 POP PUSH3 0x233 DUP2 PUSH3 0x208 JUMP JUMPDEST SWAP3 SWAP2 POP POP JUMP JUMPDEST PUSH1 0x0 DUP1 REVERT JUMPDEST PUSH1 0x0 DUP1 REVERT JUMPDEST PUSH1 0x0 PUSH1 0x1F NOT PUSH1 0x1F DUP4 ADD AND SWAP1 POP SWAP2 SWAP1 POP JUMP JUMPDEST PUSH32 0x4E487B7100000000000000000000000000000000000000000000000000000000 PUSH1 0x0 MSTORE PUSH1 0x41 PUSH1 0x4 MSTORE PUSH1 0x24 PUSH1 0x0 REVERT JUMPDEST PUSH3 0x28E DUP3 PUSH3 0x243 JUMP JUMPDEST DUP2 ADD DUP2 DUP2 LT PUSH8 0xFFFFFFFFFFFFFFFF DUP3 GT OR ISZERO PUSH3 0x2B0 JUMPI PUSH3 0x2AF PUSH3 0x254 JUMP JUMPDEST JUMPDEST DUP1 PUSH1 0x40 MSTORE POP POP POP JUMP JUMPDEST PUSH1 0x0 PUSH3 0x2C5 PUSH3 0x185 JUMP JUMPDEST SWAP1 POP PUSH3 0x2D3 DUP3 DUP3 PUSH3 0x283 JUMP JUMPDEST SWAP2 SWAP1 POP JUMP JUMPDEST PUSH1 0x0 PUSH8 0xFFFFFFFFFFFFFFFF DUP3 GT ISZERO PUSH3 0x2F6 JUMPI PUSH3 0x2F5 PUSH3 0x254 JUMP JUMPDEST JUMPDEST PUSH3 0x301 DUP3 PUSH3 0x243 JUMP JUMPDEST SWAP1 POP PUSH1 0x20 DUP2 ADD SWAP1 POP SWAP2 SWAP1 POP JUMP JUMPDEST PUSH1 0x0 JUMPDEST DUP4 DUP2 LT ISZERO PUSH3 0x32E JUMPI DUP1 DUP3 ADD MLOAD DUP2 DUP5 ADD MSTORE PUSH1 0x20 DUP2 ADD SWAP1 POP PUSH3 0x311 JUMP JUMPDEST DUP4 DUP2 GT ISZERO PUSH3 0x33E JUMPI PUSH1 0x0 DUP5 DUP5 ADD MSTORE JUMPDEST POP POP POP POP JUMP JUMPDEST PUSH1 0x0 PUSH3 0x35B PUSH3 0x355 DUP5 PUSH3 0x2D8 JUMP JUMPDEST PUSH3 0x2B9 JUMP JUMPDEST SWAP1 POP DUP3 DUP2 MSTORE PUSH1 0x20 DUP2 ADD DUP5 DUP5 DUP5 ADD GT ISZERO PUSH3 0x37A JUMPI PUSH3 0x379 PUSH3 0x23E JUMP JUMPDEST JUMPDEST PUSH3 0x387 DUP5 DUP3 DUP6 PUSH3 0x30E JUMP JUMPDEST POP SWAP4 SWAP3 POP POP POP JUMP JUMPDEST PUSH1 0x0 DUP3 PUSH1 0x1F DUP4 ADD SLT PUSH3 0x3A7 JUMPI PUSH3 0x3A6 PUSH3 0x239 JUMP JUMPDEST JUMPDEST DUP2 MLOAD PUSH3 0x3B9 DUP5 DUP3 PUSH1 0x20 DUP7 ADD PUSH3 0x344 JUMP JUMPDEST SWAP2 POP POP SWAP3 SWAP2 POP POP JUMP JUMPDEST PUSH1 0x0 DUP1 PUSH1 0x0 DUP1 PUSH1 0x0 PUSH1 0xA0 DUP7 DUP9 SUB SLT ISZERO PUSH3 0x3E1 JUMPI PUSH3 0x3E0 PUSH3 0x18F JUMP JUMPDEST JUMPDEST PUSH1 0x0 PUSH3 0x3F1 DUP9 DUP3 DUP10 ADD PUSH3 0x1BD JUMP JUMPDEST SWAP6 POP POP PUSH1 0x20 PUSH3 0x404 DUP9 DUP3 DUP10 ADD PUSH3 0x222 JUMP JUMPDEST SWAP5 POP POP PUSH1 0x40 DUP7 ADD MLOAD PUSH8 0xFFFFFFFFFFFFFFFF DUP2 GT ISZERO PUSH3 0x428 JUMPI PUSH3 0x427 PUSH3 0x194 JUMP JUMPDEST JUMPDEST PUSH3 0x436 DUP9 DUP3 DUP10 ADD PUSH3 0x38F JUMP JUMPDEST SWAP4 POP POP PUSH1 0x60 DUP7 ADD MLOAD PUSH8 0xFFFFFFFFFFFFFFFF DUP2 GT ISZERO PUSH3 0x45A JUMPI PUSH3 0x459 PUSH3 0x194 JUMP JUMPDEST JUMPDEST PUSH3 0x468 DUP9 DUP3 DUP10 ADD PUSH3 0x38F JUMP JUMPDEST SWAP3 POP POP PUSH1 0x80 DUP7 ADD MLOAD PUSH8 0xFFFFFFFFFFFFFFFF DUP2 GT ISZERO PUSH3 0x48C JUMPI PUSH3 0x48B PUSH3 0x194 JUMP JUMPDEST JUMPDEST PUSH3 0x49A DUP9 DUP3 DUP10 ADD PUSH3 0x38F JUMP JUMPDEST SWAP2 POP POP SWAP3 SWAP6 POP SWAP3 SWAP6 SWAP1 SWAP4 POP JUMP JUMPDEST PUSH32 0x4E487B7100000000000000000000000000000000000000000000000000000000 PUSH1 0x0 MSTORE PUSH1 0x22 PUSH1 0x4 MSTORE PUSH1 0x24 PUSH1 0x0 REVERT JUMPDEST PUSH1 0x0 PUSH1 0x2 DUP3 DIV SWAP1 POP PUSH1 0x1 DUP3 AND DUP1 PUSH3 0x4EF JUMPI PUSH1 0x7F DUP3 AND SWAP2 POP JUMPDEST PUSH1 0x20 DUP3 LT DUP2 EQ ISZERO PUSH3 0x506 JUMPI PUSH3 0x505 PUSH3 0x4A7 JUMP JUMPDEST JUMPDEST POP SWAP2 SWAP1 POP JUMP JUMPDEST PUSH2 0x1385 DUP1 PUSH3 0x51C PUSH1 0x0 CODECOPY PUSH1 0x0 RETURN INVALID PUSH1 0x80 PUSH1 0x40 MSTORE PUSH1 0x4 CALLDATASIZE LT PUSH2 0xDD JUMPI PUSH1 0x0 CALLDATALOAD PUSH1 0xE0 SHR DUP1 PUSH4 0x82FDE093 GT PUSH2 0x7F JUMPI DUP1 PUSH4 0xD7BB99BA GT PUSH2 0x59 JUMPI DUP1 PUSH4 0xD7BB99BA EQ PUSH2 0x2BB JUMPI DUP1 PUSH4 0xD7D1BBDB EQ PUSH2 0x2C5 JUMPI DUP1 PUSH4 0xEA2562E0 EQ PUSH2 0x2EE JUMPI DUP1 PUSH4 0xF3CCAAC0 EQ PUSH2 0x319 JUMPI PUSH2 0xDD JUMP JUMPDEST DUP1 PUSH4 0x82FDE093 EQ PUSH2 0x23C JUMPI DUP1 PUSH4 0x8A9CFD55 EQ PUSH2 0x267 JUMPI DUP1 PUSH4 0x937E09B1 EQ PUSH2 0x290 JUMPI PUSH2 0xDD JUMP JUMPDEST DUP1 PUSH4 0x3410452A GT PUSH2 0xBB JUMPI DUP1 PUSH4 0x3410452A EQ PUSH2 0x173 JUMPI DUP1 PUSH4 0x4051DDAC EQ PUSH2 0x19E JUMPI DUP1 PUSH4 0x481C6A75 EQ PUSH2 0x1D0 JUMPI DUP1 PUSH4 0x81D12C58 EQ PUSH2 0x1FB JUMPI PUSH2 0xDD JUMP JUMPDEST DUP1 PUSH4 0x3441006 EQ PUSH2 0xE2 JUMPI DUP1 PUSH4 0x6FDDE03 EQ PUSH2 0x10B JUMPI DUP1 PUSH4 0xA144391 EQ PUSH2 0x136 JUMPI JUMPDEST PUSH1 0x0 DUP1 REVERT JUMPDEST CALLVALUE DUP1 ISZERO PUSH2 0xEE JUMPI PUSH1 0x0 DUP1 REVERT JUMPDEST POP PUSH2 0x109 PUSH1 0x4 DUP1 CALLDATASIZE SUB DUP2 ADD SWAP1 PUSH2 0x104 SWAP2 SWAP1 PUSH2 0xD59 JUMP JUMPDEST PUSH2 0x344 JUMP JUMPDEST STOP JUMPDEST CALLVALUE DUP1 ISZERO PUSH2 0x117 JUMPI PUSH1 0x0 DUP1 REVERT JUMPDEST POP PUSH2 0x120 PUSH2 0x48D JUMP JUMPDEST PUSH1 0x40 MLOAD PUSH2 0x12D SWAP2 SWAP1 PUSH2 0xE1F JUMP JUMPDEST PUSH1 0x40 MLOAD DUP1 SWAP2 SUB SWAP1 RETURN JUMPDEST CALLVALUE DUP1 ISZERO PUSH2 0x142 JUMPI PUSH1 0x0 DUP1 REVERT JUMPDEST POP PUSH2 0x15D PUSH1 0x4 DUP1 CALLDATASIZE SUB DUP2 ADD SWAP1 PUSH2 0x158 SWAP2 SWAP1 PUSH2 0xE9F JUMP JUMPDEST PUSH2 0x51B JUMP JUMPDEST PUSH1 0x40 MLOAD PUSH2 0x16A SWAP2 SWAP1 PUSH2 0xEE7 JUMP JUMPDEST PUSH1 0x40 MLOAD DUP1 SWAP2 SUB SWAP1 RETURN JUMPDEST CALLVALUE DUP1 ISZERO PUSH2 0x17F JUMPI PUSH1 0x0 DUP1 REVERT JUMPDEST POP PUSH2 0x188 PUSH2 0x53B JUMP JUMPDEST PUSH1 0x40 MLOAD PUSH2 0x195 SWAP2 SWAP1 PUSH2 0xF11 JUMP JUMPDEST PUSH1 0x40 MLOAD DUP1 SWAP2 SUB SWAP1 RETURN JUMPDEST CALLVALUE DUP1 ISZERO PUSH2 0x1AA JUMPI PUSH1 0x0 DUP1 REVERT JUMPDEST POP PUSH2 0x1B3 PUSH2 0x547 JUMP JUMPDEST PUSH1 0x40 MLOAD PUSH2 0x1C7 SWAP9 SWAP8 SWAP7 SWAP6 SWAP5 SWAP4 SWAP3 SWAP2 SWAP1 PUSH2 0xF3B JUMP JUMPDEST PUSH1 0x40 MLOAD DUP1 SWAP2 SUB SWAP1 RETURN JUMPDEST CALLVALUE DUP1 ISZERO PUSH2 0x1DC JUMPI PUSH1 0x0 DUP1 REVERT JUMPDEST POP PUSH2 0x1E5 PUSH2 0x748 JUMP JUMPDEST PUSH1 0x40 MLOAD PUSH2 0x1F2 SWAP2 SWAP1 PUSH2 0xFCE JUMP JUMPDEST PUSH1 0x40 MLOAD DUP1 SWAP2 SUB SWAP1 RETURN JUMPDEST CALLVALUE DUP1 ISZERO PUSH2 0x207 JUMPI PUSH1 0x0 DUP1 REVERT JUMPDEST POP PUSH2 0x222 PUSH1 0x4 DUP1 CALLDATASIZE SUB DUP2 ADD SWAP1 PUSH2 0x21D SWAP2 SWAP1 PUSH2 0xD59 JUMP JUMPDEST PUSH2 0x76E JUMP JUMPDEST PUSH1 0x40 MLOAD PUSH2 0x233 SWAP6 SWAP5 SWAP4 SWAP3 SWAP2 SWAP1 PUSH2 0xFE9 JUMP JUMPDEST PUSH1 0x40 MLOAD DUP1 SWAP2 SUB SWAP1 RETURN JUMPDEST CALLVALUE DUP1 ISZERO PUSH2 0x248 JUMPI PUSH1 0x0 DUP1 REVERT JUMPDEST POP PUSH2 0x251 PUSH2 0x869 JUMP JUMPDEST PUSH1 0x40 MLOAD PUSH2 0x25E SWAP2 SWAP1 PUSH2 0xF11 JUMP JUMPDEST PUSH1 0x40 MLOAD DUP1 SWAP2 SUB SWAP1 RETURN JUMPDEST CALLVALUE DUP1 ISZERO PUSH2 0x273 JUMPI PUSH1 0x0 DUP1 REVERT JUMPDEST POP PUSH2 0x28E PUSH1 0x4 DUP1 CALLDATASIZE SUB DUP2 ADD SWAP1 PUSH2 0x289 SWAP2 SWAP1 PUSH2 0x1178 JUMP JUMPDEST PUSH2 0x86F JUMP JUMPDEST STOP JUMPDEST CALLVALUE DUP1 ISZERO PUSH2 0x29C JUMPI PUSH1 0x0 DUP1 REVERT JUMPDEST POP PUSH2 0x2A5 PUSH2 0x97E JUMP JUMPDEST PUSH1 0x40 MLOAD PUSH2 0x2B2 SWAP2 SWAP1 PUSH2 0xF11 JUMP JUMPDEST PUSH1 0x40 MLOAD DUP1 SWAP2 SUB SWAP1 RETURN JUMPDEST PUSH2 0x2C3 PUSH2 0x984 JUMP JUMPDEST STOP JUMPDEST CALLVALUE DUP1 ISZERO PUSH2 0x2D1 JUMPI PUSH1 0x0 DUP1 REVERT JUMPDEST POP PUSH2 0x2EC PUSH1 0x4 DUP1 CALLDATASIZE SUB DUP2 ADD SWAP1 PUSH2 0x2E7 SWAP2 SWAP1 PUSH2 0xD59 JUMP JUMPDEST PUSH2 0xA04 JUMP JUMPDEST STOP JUMPDEST CALLVALUE DUP1 ISZERO PUSH2 0x2FA JUMPI PUSH1 0x0 DUP1 REVERT JUMPDEST POP PUSH2 0x303 PUSH2 0xB50 JUMP JUMPDEST PUSH1 0x40 MLOAD PUSH2 0x310 SWAP2 SWAP1 PUSH2 0xE1F JUMP JUMPDEST PUSH1 0x40 MLOAD DUP1 SWAP2 SUB SWAP1 RETURN JUMPDEST CALLVALUE DUP1 ISZERO PUSH2 0x325 JUMPI PUSH1 0x0 DUP1 REVERT JUMPDEST POP PUSH2 0x32E PUSH2 0xBDE JUMP JUMPDEST PUSH1 0x40 MLOAD PUSH2 0x33B SWAP2 SWAP1 PUSH2 0xE1F JUMP JUMPDEST PUSH1 0x40 MLOAD DUP1 SWAP2 SUB SWAP1 RETURN JUMPDEST PUSH1 0x1 PUSH1 0x0 SWAP1 SLOAD SWAP1 PUSH2 0x100 EXP SWAP1 DIV PUSH20 0xFFFFFFFFFFFFFFFFFFFFFFFFFFFFFFFFFFFFFFFF AND PUSH20 0xFFFFFFFFFFFFFFFFFFFFFFFFFFFFFFFFFFFFFFFF AND CALLER PUSH20 0xFFFFFFFFFFFFFFFFFFFFFFFFFFFFFFFFFFFFFFFF AND EQ PUSH2 0x39E JUMPI PUSH1 0x0 DUP1 REVERT JUMPDEST PUSH1 0x0 DUP1 DUP3 DUP2 SLOAD DUP2 LT PUSH2 0x3B3 JUMPI PUSH2 0x3B2 PUSH2 0x11E7 JUMP JUMPDEST JUMPDEST SWAP1 PUSH1 0x0 MSTORE PUSH1 0x20 PUSH1 0x0 KECCAK256 SWAP1 PUSH1 0x5 MUL ADD SWAP1 POP PUSH1 0x2 PUSH1 0x4 SLOAD PUSH2 0x3D2 SWAP2 SWAP1 PUSH2 0x1274 JUMP JUMPDEST DUP2 PUSH1 0x3 ADD SLOAD GT PUSH2 0x3E1 JUMPI PUSH1 0x0 DUP1 REVERT JUMPDEST DUP1 PUSH1 0x2 ADD PUSH1 0x14 SWAP1 SLOAD SWAP1 PUSH2 0x100 EXP SWAP1 DIV PUSH1 0xFF AND ISZERO PUSH2 0x3FD JUMPI PUSH1 0x0 DUP1 REVERT JUMPDEST DUP1 PUSH1 0x2 ADD PUSH1 0x0 SWAP1 SLOAD SWAP1 PUSH2 0x100 EXP SWAP1 DIV PUSH20 0xFFFFFFFFFFFFFFFFFFFFFFFFFFFFFFFFFFFFFFFF AND PUSH20 0xFFFFFFFFFFFFFFFFFFFFFFFFFFFFFFFFFFFFFFFF AND PUSH2 0x8FC DUP3 PUSH1 0x1 ADD SLOAD SWAP1 DUP2 ISZERO MUL SWAP1 PUSH1 0x40 MLOAD PUSH1 0x0 PUSH1 0x40 MLOAD DUP1 DUP4 SUB DUP2 DUP6 DUP9 DUP9 CALL SWAP4 POP POP POP POP ISZERO DUP1 ISZERO PUSH2 0x46B JUMPI RETURNDATASIZE PUSH1 0x0 DUP1 RETURNDATACOPY RETURNDATASIZE PUSH1 0x0 REVERT JUMPDEST POP PUSH1 0x1 DUP2 PUSH1 0x2 ADD PUSH1 0x14 PUSH2 0x100 EXP DUP2 SLOAD DUP2 PUSH1 0xFF MUL NOT AND SWAP1 DUP4 ISZERO ISZERO MUL OR SWAP1 SSTORE POP POP POP JUMP JUMPDEST PUSH1 0x5 DUP1 SLOAD PUSH2 0x49A SWAP1 PUSH2 0x12D4 JUMP JUMPDEST DUP1 PUSH1 0x1F ADD PUSH1 0x20 DUP1 SWAP2 DIV MUL PUSH1 0x20 ADD PUSH1 0x40 MLOAD SWAP1 DUP2 ADD PUSH1 0x40 MSTORE DUP1 SWAP3 SWAP2 SWAP1 DUP2 DUP2 MSTORE PUSH1 0x20 ADD DUP3 DUP1 SLOAD PUSH2 0x4C6 SWAP1 PUSH2 0x12D4 JUMP JUMPDEST DUP1 ISZERO PUSH2 0x513 JUMPI DUP1 PUSH1 0x1F LT PUSH2 0x4E8 JUMPI PUSH2 0x100 DUP1 DUP4 SLOAD DIV MUL DUP4 MSTORE SWAP2 PUSH1 0x20 ADD SWAP2 PUSH2 0x513 JUMP JUMPDEST DUP3 ADD SWAP2 SWAP1 PUSH1 0x0 MSTORE PUSH1 0x20 PUSH1 0x0 KECCAK256 SWAP1 JUMPDEST DUP2 SLOAD DUP2 MSTORE SWAP1 PUSH1 0x1 ADD SWAP1 PUSH1 0x20 ADD DUP1 DUP4 GT PUSH2 0x4F6 JUMPI DUP3 SWAP1 SUB PUSH1 0x1F AND DUP3 ADD SWAP2 JUMPDEST POP POP POP POP POP DUP2 JUMP JUMPDEST PUSH1 0x3 PUSH1 0x20 MSTORE DUP1 PUSH1 0x0 MSTORE PUSH1 0x40 PUSH1 0x0 KECCAK256 PUSH1 0x0 SWAP2 POP SLOAD SWAP1 PUSH2 0x100 EXP SWAP1 DIV PUSH1 0xFF AND DUP2 JUMP JUMPDEST PUSH1 0x0 DUP1 DUP1 SLOAD SWAP1 POP SWAP1 POP SWAP1 JUMP JUMPDEST PUSH1 0x0 DUP1 PUSH1 0x0 DUP1 PUSH1 0x0 PUSH1 0x60 DUP1 PUSH1 0x60 PUSH1 0x2 SLOAD SELFBALANCE PUSH1 0x0 DUP1 SLOAD SWAP1 POP PUSH1 0x4 SLOAD PUSH1 0x1 PUSH1 0x0 SWAP1 SLOAD SWAP1 PUSH2 0x100 EXP SWAP1 DIV PUSH20 0xFFFFFFFFFFFFFFFFFFFFFFFFFFFFFFFFFFFFFFFF AND PUSH1 0x5 PUSH1 0x6 PUSH1 0x7 DUP3 DUP1 SLOAD PUSH2 0x596 SWAP1 PUSH2 0x12D4 JUMP JUMPDEST DUP1 PUSH1 0x1F ADD PUSH1 0x20 DUP1 SWAP2 DIV MUL PUSH1 0x20 ADD PUSH1 0x40 MLOAD SWAP1 DUP2 ADD PUSH1 0x40 MSTORE DUP1 SWAP3 SWAP2 SWAP1 DUP2 DUP2 MSTORE PUSH1 0x20 ADD DUP3 DUP1 SLOAD PUSH2 0x5C2 SWAP1 PUSH2 0x12D4 JUMP JUMPDEST DUP1 ISZERO PUSH2 0x60F JUMPI DUP1 PUSH1 0x1F LT PUSH2 0x5E4 JUMPI PUSH2 0x100 DUP1 DUP4 SLOAD DIV MUL DUP4 MSTORE SWAP2 PUSH1 0x20 ADD SWAP2 PUSH2 0x60F JUMP JUMPDEST DUP3 ADD SWAP2 SWAP1 PUSH1 0x0 MSTORE PUSH1 0x20 PUSH1 0x0 KECCAK256 SWAP1 JUMPDEST DUP2 SLOAD DUP2 MSTORE SWAP1 PUSH1 0x1 ADD SWAP1 PUSH1 0x20 ADD DUP1 DUP4 GT PUSH2 0x5F2 JUMPI DUP3 SWAP1 SUB PUSH1 0x1F AND DUP3 ADD SWAP2 JUMPDEST POP POP POP POP POP SWAP3 POP DUP2 DUP1 SLOAD PUSH2 0x622 SWAP1 PUSH2 0x12D4 JUMP JUMPDEST DUP1 PUSH1 0x1F ADD PUSH1 0x20 DUP1 SWAP2 DIV MUL PUSH1 0x20 ADD PUSH1 0x40 MLOAD SWAP1 DUP2 ADD PUSH1 0x40 MSTORE DUP1 SWAP3 SWAP2 SWAP1 DUP2 DUP2 MSTORE PUSH1 0x20 ADD DUP3 DUP1 SLOAD PUSH2 0x64E SWAP1 PUSH2 0x12D4 JUMP JUMPDEST DUP1 ISZERO PUSH2 0x69B JUMPI DUP1 PUSH1 0x1F LT PUSH2 0x670 JUMPI PUSH2 0x100 DUP1 DUP4 SLOAD DIV MUL DUP4 MSTORE SWAP2 PUSH1 0x20 ADD SWAP2 PUSH2 0x69B JUMP JUMPDEST DUP3 ADD SWAP2 SWAP1 PUSH1 0x0 MSTORE PUSH1 0x20 PUSH1 0x0 KECCAK256 SWAP1 JUMPDEST DUP2 SLOAD DUP2 MSTORE SWAP1 PUSH1 0x1 ADD SWAP1 PUSH1 0x20 ADD DUP1 DUP4 GT PUSH2 0x67E JUMPI DUP3 SWAP1 SUB PUSH1 0x1F AND DUP3 ADD SWAP2 JUMPDEST POP POP POP POP POP SWAP2 POP DUP1 DUP1 SLOAD PUSH2 0x6AE SWAP1 PUSH2 0x12D4 JUMP JUMPDEST DUP1 PUSH1 0x1F ADD PUSH1 0x20 DUP1 SWAP2 DIV MUL PUSH1 0x20 ADD PUSH1 0x40 MLOAD SWAP1 DUP2 ADD PUSH1 0x40 MSTORE DUP1 SWAP3 SWAP2 SWAP1 DUP2 DUP2 MSTORE PUSH1 0x20 ADD DUP3 DUP1 SLOAD PUSH2 0x6DA SWAP1 PUSH2 0x12D4 JUMP JUMPDEST DUP1 ISZERO PUSH2 0x727 JUMPI DUP1 PUSH1 0x1F LT PUSH2 0x6FC JUMPI PUSH2 0x100 DUP1 DUP4 SLOAD DIV MUL DUP4 MSTORE SWAP2 PUSH1 0x20 ADD SWAP2 PUSH2 0x727 JUMP JUMPDEST DUP3 ADD SWAP2 SWAP1 PUSH1 0x0 MSTORE PUSH1 0x20 PUSH1 0x0 KECCAK256 SWAP1 JUMPDEST DUP2 SLOAD DUP2 MSTORE SWAP1 PUSH1 0x1 ADD SWAP1 PUSH1 0x20 ADD DUP1 DUP4 GT PUSH2 0x70A JUMPI DUP3 SWAP1 SUB PUSH1 0x1F AND DUP3 ADD SWAP2 JUMPDEST POP POP POP POP POP SWAP1 POP SWAP8 POP SWAP8 POP SWAP8 POP SWAP8 POP SWAP8 POP SWAP8 POP SWAP8 POP SWAP8 POP SWAP1 SWAP2 SWAP3 SWAP4 SWAP5 SWAP6 SWAP7 SWAP8 JUMP JUMPDEST PUSH1 0x1 PUSH1 0x0 SWAP1 SLOAD SWAP1 PUSH2 0x100 EXP SWAP1 DIV PUSH20 0xFFFFFFFFFFFFFFFFFFFFFFFFFFFFFFFFFFFFFFFF AND DUP2 JUMP JUMPDEST PUSH1 0x0 DUP2 DUP2 SLOAD DUP2 LT PUSH2 0x77E JUMPI PUSH1 0x0 DUP1 REVERT JUMPDEST SWAP1 PUSH1 0x0 MSTORE PUSH1 0x20 PUSH1 0x0 KECCAK256 SWAP1 PUSH1 0x5 MUL ADD PUSH1 0x0 SWAP2 POP SWAP1 POP DUP1 PUSH1 0x0 ADD DUP1 SLOAD PUSH2 0x7A1 SWAP1 PUSH2 0x12D4 JUMP JUMPDEST DUP1 PUSH1 0x1F ADD PUSH1 0x20 DUP1 SWAP2 DIV MUL PUSH1 0x20 ADD PUSH1 0x40 MLOAD SWAP1 DUP2 ADD PUSH1 0x40 MSTORE DUP1 SWAP3 SWAP2 SWAP1 DUP2 DUP2 MSTORE PUSH1 0x20 ADD DUP3 DUP1 SLOAD PUSH2 0x7CD SWAP1 PUSH2 0x12D4 JUMP JUMPDEST DUP1 ISZERO PUSH2 0x81A JUMPI DUP1 PUSH1 0x1F LT PUSH2 0x7EF JUMPI PUSH2 0x100 DUP1 DUP4 SLOAD DIV MUL DUP4 MSTORE SWAP2 PUSH1 0x20 ADD SWAP2 PUSH2 0x81A JUMP JUMPDEST DUP3 ADD SWAP2 SWAP1 PUSH1 0x0 MSTORE PUSH1 0x20 PUSH1 0x0 KECCAK256 SWAP1 JUMPDEST DUP2 SLOAD DUP2 MSTORE SWAP1 PUSH1 0x1 ADD SWAP1 PUSH1 0x20 ADD DUP1 DUP4 GT PUSH2 0x7FD JUMPI DUP3 SWAP1 SUB PUSH1 0x1F AND DUP3 ADD SWAP2 JUMPDEST POP POP POP POP POP SWAP1 DUP1 PUSH1 0x1 ADD SLOAD SWAP1 DUP1 PUSH1 0x2 ADD PUSH1 0x0 SWAP1 SLOAD SWAP1 PUSH2 0x100 EXP SWAP1 DIV PUSH20 0xFFFFFFFFFFFFFFFFFFFFFFFFFFFFFFFFFFFFFFFF AND SWAP1 DUP1 PUSH1 0x2 ADD PUSH1 0x14 SWAP1 SLOAD SWAP1 PUSH2 0x100 EXP SWAP1 DIV PUSH1 0xFF AND SWAP1 DUP1 PUSH1 0x3 ADD SLOAD SWAP1 POP DUP6 JUMP JUMPDEST PUSH1 0x4 SLOAD DUP2 JUMP JUMPDEST PUSH1 0x1 PUSH1 0x0 SWAP1 SLOAD SWAP1 PUSH2 0x100 EXP SWAP1 DIV PUSH20 0xFFFFFFFFFFFFFFFFFFFFFFFFFFFFFFFFFFFFFFFF AND PUSH20 0xFFFFFFFFFFFFFFFFFFFFFFFFFFFFFFFFFFFFFFFF AND CALLER PUSH20 0xFFFFFFFFFFFFFFFFFFFFFFFFFFFFFFFFFFFFFFFF AND EQ PUSH2 0x8C9 JUMPI PUSH1 0x0 DUP1 REVERT JUMPDEST PUSH1 0x0 DUP1 PUSH1 0x1 DUP2 PUSH1 0x1 DUP2 SLOAD ADD DUP1 DUP3 SSTORE DUP1 SWAP2 POP POP SUB SWAP1 PUSH1 0x0 MSTORE PUSH1 0x20 PUSH1 0x0 KECCAK256 SWAP1 PUSH1 0x5 MUL ADD SWAP1 POP DUP4 DUP2 PUSH1 0x0 ADD SWAP1 DUP1 MLOAD SWAP1 PUSH1 0x20 ADD SWAP1 PUSH2 0x904 SWAP3 SWAP2 SWAP1 PUSH2 0xC6C JUMP JUMPDEST POP DUP3 DUP2 PUSH1 0x1 ADD DUP2 SWAP1 SSTORE POP DUP2 DUP2 PUSH1 0x2 ADD PUSH1 0x0 PUSH2 0x100 EXP DUP2 SLOAD DUP2 PUSH20 0xFFFFFFFFFFFFFFFFFFFFFFFFFFFFFFFFFFFFFFFF MUL NOT AND SWAP1 DUP4 PUSH20 0xFFFFFFFFFFFFFFFFFFFFFFFFFFFFFFFFFFFFFFFF AND MUL OR SWAP1 SSTORE POP PUSH1 0x0 DUP2 PUSH1 0x2 ADD PUSH1 0x14 PUSH2 0x100 EXP DUP2 SLOAD DUP2 PUSH1 0xFF MUL NOT AND SWAP1 DUP4 ISZERO ISZERO MUL OR SWAP1 SSTORE POP PUSH1 0x0 DUP2 PUSH1 0x3 ADD DUP2 SWAP1 SSTORE POP POP POP POP POP JUMP JUMPDEST PUSH1 0x2 SLOAD DUP2 JUMP JUMPDEST PUSH1 0x2 SLOAD CALLVALUE GT PUSH2 0x992 JUMPI PUSH1 0x0 DUP1 REVERT JUMPDEST PUSH1 0x1 PUSH1 0x3 PUSH1 0x0 CALLER PUSH20 0xFFFFFFFFFFFFFFFFFFFFFFFFFFFFFFFFFFFFFFFF AND PUSH20 0xFFFFFFFFFFFFFFFFFFFFFFFFFFFFFFFFFFFFFFFF AND DUP2 MSTORE PUSH1 0x20 ADD SWAP1 DUP2 MSTORE PUSH1 0x20 ADD PUSH1 0x0 KECCAK256 PUSH1 0x0 PUSH2 0x100 EXP DUP2 SLOAD DUP2 PUSH1 0xFF MUL NOT AND SWAP1 DUP4 ISZERO ISZERO MUL OR SWAP1 SSTORE POP PUSH1 0x4 PUSH1 0x0 DUP2 SLOAD DUP1 SWAP3 SWAP2 SWAP1 PUSH2 0x9FD SWAP1 PUSH2 0x1306 JUMP JUMPDEST SWAP2 SWAP1 POP SSTORE POP JUMP JUMPDEST PUSH1 0x0 DUP1 DUP3 DUP2 SLOAD DUP2 LT PUSH2 0xA19 JUMPI PUSH2 0xA18 PUSH2 0x11E7 JUMP JUMPDEST JUMPDEST SWAP1 PUSH1 0x0 MSTORE PUSH1 0x20 PUSH1 0x0 KECCAK256 SWAP1 PUSH1 0x5 MUL ADD SWAP1 POP PUSH1 0x3 PUSH1 0x0 CALLER PUSH20 0xFFFFFFFFFFFFFFFFFFFFFFFFFFFFFFFFFFFFFFFF AND PUSH20 0xFFFFFFFFFFFFFFFFFFFFFFFFFFFFFFFFFFFFFFFF AND DUP2 MSTORE PUSH1 0x20 ADD SWAP1 DUP2 MSTORE PUSH1 0x20 ADD PUSH1 0x0 KECCAK256 PUSH1 0x0 SWAP1 SLOAD SWAP1 PUSH2 0x100 EXP SWAP1 DIV PUSH1 0xFF AND PUSH2 0xA7F JUMPI PUSH1 0x0 DUP1 REVERT JUMPDEST DUP1 PUSH1 0x4 ADD PUSH1 0x0 CALLER PUSH20 0xFFFFFFFFFFFFFFFFFFFFFFFFFFFFFFFFFFFFFFFF AND PUSH20 0xFFFFFFFFFFFFFFFFFFFFFFFFFFFFFFFFFFFFFFFF AND DUP2 MSTORE PUSH1 0x20 ADD SWAP1 DUP2 MSTORE PUSH1 0x20 ADD PUSH1 0x0 KECCAK256 PUSH1 0x0 SWAP1 SLOAD SWAP1 PUSH2 0x100 EXP SWAP1 DIV PUSH1 0xFF AND ISZERO PUSH2 0xAD8 JUMPI PUSH1 0x0 DUP1 REVERT JUMPDEST PUSH1 0x1 DUP2 PUSH1 0x4 ADD PUSH1 0x0 CALLER PUSH20 0xFFFFFFFFFFFFFFFFFFFFFFFFFFFFFFFFFFFFFFFF AND PUSH20 0xFFFFFFFFFFFFFFFFFFFFFFFFFFFFFFFFFFFFFFFF AND DUP2 MSTORE PUSH1 0x20 ADD SWAP1 DUP2 MSTORE PUSH1 0x20 ADD PUSH1 0x0 KECCAK256 PUSH1 0x0 PUSH2 0x100 EXP DUP2 SLOAD DUP2 PUSH1 0xFF MUL NOT AND SWAP1 DUP4 ISZERO ISZERO MUL OR SWAP1 SSTORE POP DUP1 PUSH1 0x3 ADD PUSH1 0x0 DUP2 SLOAD DUP1 SWAP3 SWAP2 SWAP1 PUSH2 0xB47 SWAP1 PUSH2 0x1306 JUMP JUMPDEST SWAP2 SWAP1 POP SSTORE POP POP POP JUMP JUMPDEST PUSH1 0x6 DUP1 SLOAD PUSH2 0xB5D SWAP1 PUSH2 0x12D4 JUMP JUMPDEST DUP1 PUSH1 0x1F ADD PUSH1 0x20 DUP1 SWAP2 DIV MUL PUSH1 0x20 ADD PUSH1 0x40 MLOAD SWAP1 DUP2 ADD PUSH1 0x40 MSTORE DUP1 SWAP3 SWAP2 SWAP1 DUP2 DUP2 MSTORE PUSH1 0x20 ADD DUP3 DUP1 SLOAD PUSH2 0xB89 SWAP1 PUSH2 0x12D4 JUMP JUMPDEST DUP1 ISZERO PUSH2 0xBD6 JUMPI DUP1 PUSH1 0x1F LT PUSH2 0xBAB JUMPI PUSH2 0x100 DUP1 DUP4 SLOAD DIV MUL DUP4 MSTORE SWAP2 PUSH1 0x20 ADD SWAP2 PUSH2 0xBD6 JUMP JUMPDEST DUP3 ADD SWAP2 SWAP1 PUSH1 0x0 MSTORE PUSH1 0x20 PUSH1 0x0 KECCAK256 SWAP1 JUMPDEST DUP2 SLOAD DUP2 MSTORE SWAP1 PUSH1 0x1 ADD SWAP1 PUSH1 0x20 ADD DUP1 DUP4 GT PUSH2 0xBB9 JUMPI DUP3 SWAP1 SUB PUSH1 0x1F AND DUP3 ADD SWAP2 JUMPDEST POP POP POP POP POP DUP2 JUMP JUMPDEST PUSH1 0x7 DUP1 SLOAD PUSH2 0xBEB SWAP1 PUSH2 0x12D4 JUMP JUMPDEST DUP1 PUSH1 0x1F ADD PUSH1 0x20 DUP1 SWAP2 DIV MUL PUSH1 0x20 ADD PUSH1 0x40 MLOAD SWAP1 DUP2 ADD PUSH1 0x40 MSTORE DUP1 SWAP3 SWAP2 SWAP1 DUP2 DUP2 MSTORE PUSH1 0x20 ADD DUP3 DUP1 SLOAD PUSH2 0xC17 SWAP1 PUSH2 0x12D4 JUMP JUMPDEST DUP1 ISZERO PUSH2 0xC64 JUMPI DUP1 PUSH1 0x1F LT PUSH2 0xC39 JUMPI PUSH2 0x100 DUP1 DUP4 SLOAD DIV MUL DUP4 MSTORE SWAP2 PUSH1 0x20 ADD SWAP2 PUSH2 0xC64 JUMP JUMPDEST DUP3 ADD SWAP2 SWAP1 PUSH1 0x0 MSTORE PUSH1 0x20 PUSH1 0x0 KECCAK256 SWAP1 JUMPDEST DUP2 SLOAD DUP2 MSTORE SWAP1 PUSH1 0x1 ADD SWAP1 PUSH1 0x20 ADD DUP1 DUP4 GT PUSH2 0xC47 JUMPI DUP3 SWAP1 SUB PUSH1 0x1F AND DUP3 ADD SWAP2 JUMPDEST POP POP POP POP POP DUP2 JUMP JUMPDEST DUP3 DUP1 SLOAD PUSH2 0xC78 SWAP1 PUSH2 0x12D4 JUMP JUMPDEST SWAP1 PUSH1 0x0 MSTORE PUSH1 0x20 PUSH1 0x0 KECCAK256 SWAP1 PUSH1 0x1F ADD PUSH1 0x20 SWAP1 DIV DUP2 ADD SWAP3 DUP3 PUSH2 0xC9A JUMPI PUSH1 0x0 DUP6 SSTORE PUSH2 0xCE1 JUMP JUMPDEST DUP3 PUSH1 0x1F LT PUSH2 0xCB3 JUMPI DUP1 MLOAD PUSH1 0xFF NOT AND DUP4 DUP1 ADD OR DUP6 SSTORE PUSH2 0xCE1 JUMP JUMPDEST DUP3 DUP1 ADD PUSH1 0x1 ADD DUP6 SSTORE DUP3 ISZERO PUSH2 0xCE1 JUMPI SWAP2 DUP3 ADD JUMPDEST DUP3 DUP2 GT ISZERO PUSH2 0xCE0 JUMPI DUP3 MLOAD DUP3 SSTORE SWAP2 PUSH1 0x20 ADD SWAP2 SWAP1 PUSH1 0x1 ADD SWAP1 PUSH2 0xCC5 JUMP JUMPDEST JUMPDEST POP SWAP1 POP PUSH2 0xCEE SWAP2 SWAP1 PUSH2 0xCF2 JUMP JUMPDEST POP SWAP1 JUMP JUMPDEST JUMPDEST DUP1 DUP3 GT ISZERO PUSH2 0xD0B JUMPI PUSH1 0x0 DUP2 PUSH1 0x0 SWAP1 SSTORE POP PUSH1 0x1 ADD PUSH2 0xCF3 JUMP JUMPDEST POP SWAP1 JUMP JUMPDEST PUSH1 0x0 PUSH1 0x40 MLOAD SWAP1 POP SWAP1 JUMP JUMPDEST PUSH1 0x0 DUP1 REVERT JUMPDEST PUSH1 0x0 DUP1 REVERT JUMPDEST PUSH1 0x0 DUP2 SWAP1 POP SWAP2 SWAP1 POP JUMP JUMPDEST PUSH2 0xD36 DUP2 PUSH2 0xD23 JUMP JUMPDEST DUP2 EQ PUSH2 0xD41 JUMPI PUSH1 0x0 DUP1 REVERT JUMPDEST POP JUMP JUMPDEST PUSH1 0x0 DUP2 CALLDATALOAD SWAP1 POP PUSH2 0xD53 DUP2 PUSH2 0xD2D JUMP JUMPDEST SWAP3 SWAP2 POP POP JUMP JUMPDEST PUSH1 0x0 PUSH1 0x20 DUP3 DUP5 SUB SLT ISZERO PUSH2 0xD6F JUMPI PUSH2 0xD6E PUSH2 0xD19 JUMP JUMPDEST JUMPDEST PUSH1 0x0 PUSH2 0xD7D DUP5 DUP3 DUP6 ADD PUSH2 0xD44 JUMP JUMPDEST SWAP2 POP POP SWAP3 SWAP2 POP POP JUMP JUMPDEST PUSH1 0x0 DUP2 MLOAD SWAP1 POP SWAP2 SWAP1 POP JUMP JUMPDEST PUSH1 0x0 DUP3 DUP3 MSTORE PUSH1 0x20 DUP3 ADD SWAP1 POP SWAP3 SWAP2 POP POP JUMP JUMPDEST PUSH1 0x0 JUMPDEST DUP4 DUP2 LT ISZERO PUSH2 0xDC0 JUMPI DUP1 DUP3 ADD MLOAD DUP2 DUP5 ADD MSTORE PUSH1 0x20 DUP2 ADD SWAP1 POP PUSH2 0xDA5 JUMP JUMPDEST DUP4 DUP2 GT ISZERO PUSH2 0xDCF JUMPI PUSH1 0x0 DUP5 DUP5 ADD MSTORE JUMPDEST POP POP POP POP JUMP JUMPDEST PUSH1 0x0 PUSH1 0x1F NOT PUSH1 0x1F DUP4 ADD AND SWAP1 POP SWAP2 SWAP1 POP JUMP JUMPDEST PUSH1 0x0 PUSH2 0xDF1 DUP3 PUSH2 0xD86 JUMP JUMPDEST PUSH2 0xDFB DUP2 DUP6 PUSH2 0xD91 JUMP JUMPDEST SWAP4 POP PUSH2 0xE0B DUP2 DUP6 PUSH1 0x20 DUP7 ADD PUSH2 0xDA2 JUMP JUMPDEST PUSH2 0xE14 DUP2 PUSH2 0xDD5 JUMP JUMPDEST DUP5 ADD SWAP2 POP POP SWAP3 SWAP2 POP POP JUMP JUMPDEST PUSH1 0x0 PUSH1 0x20 DUP3 ADD SWAP1 POP DUP2 DUP2 SUB PUSH1 0x0 DUP4 ADD MSTORE PUSH2 0xE39 DUP2 DUP5 PUSH2 0xDE6 JUMP JUMPDEST SWAP1 POP SWAP3 SWAP2 POP POP JUMP JUMPDEST PUSH1 0x0 PUSH20 0xFFFFFFFFFFFFFFFFFFFFFFFFFFFFFFFFFFFFFFFF DUP3 AND SWAP1 POP SWAP2 SWAP1 POP JUMP JUMPDEST PUSH1 0x0 PUSH2 0xE6C DUP3 PUSH2 0xE41 JUMP JUMPDEST SWAP1 POP SWAP2 SWAP1 POP JUMP JUMPDEST PUSH2 0xE7C DUP2 PUSH2 0xE61 JUMP JUMPDEST DUP2 EQ PUSH2 0xE87 JUMPI PUSH1 0x0 DUP1 REVERT JUMPDEST POP JUMP JUMPDEST PUSH1 0x0 DUP2 CALLDATALOAD SWAP1 POP PUSH2 0xE99 DUP2 PUSH2 0xE73 JUMP JUMPDEST SWAP3 SWAP2 POP POP JUMP JUMPDEST PUSH1 0x0 PUSH1 0x20 DUP3 DUP5 SUB SLT ISZERO PUSH2 0xEB5 JUMPI PUSH2 0xEB4 PUSH2 0xD19 JUMP JUMPDEST JUMPDEST PUSH1 0x0 PUSH2 0xEC3 DUP5 DUP3 DUP6 ADD PUSH2 0xE8A JUMP JUMPDEST SWAP2 POP POP SWAP3 SWAP2 POP POP JUMP JUMPDEST PUSH1 0x0 DUP2 ISZERO ISZERO SWAP1 POP SWAP2 SWAP1 POP JUMP JUMPDEST PUSH2 0xEE1 DUP2 PUSH2 0xECC JUMP JUMPDEST DUP3 MSTORE POP POP JUMP JUMPDEST PUSH1 0x0 PUSH1 0x20 DUP3 ADD SWAP1 POP PUSH2 0xEFC PUSH1 0x0 DUP4 ADD DUP5 PUSH2 0xED8 JUMP JUMPDEST SWAP3 SWAP2 POP POP JUMP JUMPDEST PUSH2 0xF0B DUP2 PUSH2 0xD23 JUMP JUMPDEST DUP3 MSTORE POP POP JUMP JUMPDEST PUSH1 0x0 PUSH1 0x20 DUP3 ADD SWAP1 POP PUSH2 0xF26 PUSH1 0x0 DUP4 ADD DUP5 PUSH2 0xF02 JUMP JUMPDEST SWAP3 SWAP2 POP POP JUMP JUMPDEST PUSH2 0xF35 DUP2 PUSH2 0xE61 JUMP JUMPDEST DUP3 MSTORE POP POP JUMP JUMPDEST PUSH1 0x0 PUSH2 0x100 DUP3 ADD SWAP1 POP PUSH2 0xF51 PUSH1 0x0 DUP4 ADD DUP12 PUSH2 0xF02 JUMP JUMPDEST PUSH2 0xF5E PUSH1 0x20 DUP4 ADD DUP11 PUSH2 0xF02 JUMP JUMPDEST PUSH2 0xF6B PUSH1 0x40 DUP4 ADD DUP10 PUSH2 0xF02 JUMP JUMPDEST PUSH2 0xF78 PUSH1 0x60 DUP4 ADD DUP9 PUSH2 0xF02 JUMP JUMPDEST PUSH2 0xF85 PUSH1 0x80 DUP4 ADD DUP8 PUSH2 0xF2C JUMP JUMPDEST DUP2 DUP2 SUB PUSH1 0xA0 DUP4 ADD MSTORE PUSH2 0xF97 DUP2 DUP7 PUSH2 0xDE6 JUMP JUMPDEST SWAP1 POP DUP2 DUP2 SUB PUSH1 0xC0 DUP4 ADD MSTORE PUSH2 0xFAB DUP2 DUP6 PUSH2 0xDE6 JUMP JUMPDEST SWAP1 POP DUP2 DUP2 SUB PUSH1 0xE0 DUP4 ADD MSTORE PUSH2 0xFBF DUP2 DUP5 PUSH2 0xDE6 JUMP JUMPDEST SWAP1 POP SWAP10 SWAP9 POP POP POP POP POP POP POP POP POP JUMP JUMPDEST PUSH1 0x0 PUSH1 0x20 DUP3 ADD SWAP1 POP PUSH2 0xFE3 PUSH1 0x0 DUP4 ADD DUP5 PUSH2 0xF2C JUMP JUMPDEST SWAP3 SWAP2 POP POP JUMP JUMPDEST PUSH1 0x0 PUSH1 0xA0 DUP3 ADD SWAP1 POP DUP2 DUP2 SUB PUSH1 0x0 DUP4 ADD MSTORE PUSH2 0x1003 DUP2 DUP9 PUSH2 0xDE6 JUMP JUMPDEST SWAP1 POP PUSH2 0x1012 PUSH1 0x20 DUP4 ADD DUP8 PUSH2 0xF02 JUMP JUMPDEST PUSH2 0x101F PUSH1 0x40 DUP4 ADD DUP7 PUSH2 0xF2C JUMP JUMPDEST PUSH2 0x102C PUSH1 0x60 DUP4 ADD DUP6 PUSH2 0xED8 JUMP JUMPDEST PUSH2 0x1039 PUSH1 0x80 DUP4 ADD DUP5 PUSH2 0xF02 JUMP JUMPDEST SWAP7 SWAP6 POP POP POP POP POP POP JUMP JUMPDEST PUSH1 0x0 DUP1 REVERT JUMPDEST PUSH1 0x0 DUP1 REVERT JUMPDEST PUSH32 0x4E487B7100000000000000000000000000000000000000000000000000000000 PUSH1 0x0 MSTORE PUSH1 0x41 PUSH1 0x4 MSTORE PUSH1 0x24 PUSH1 0x0 REVERT JUMPDEST PUSH2 0x1085 DUP3 PUSH2 0xDD5 JUMP JUMPDEST DUP2 ADD DUP2 DUP2 LT PUSH8 0xFFFFFFFFFFFFFFFF DUP3 GT OR ISZERO PUSH2 0x10A4 JUMPI PUSH2 0x10A3 PUSH2 0x104D JUMP JUMPDEST JUMPDEST DUP1 PUSH1 0x40 MSTORE POP POP POP JUMP JUMPDEST PUSH1 0x0 PUSH2 0x10B7 PUSH2 0xD0F JUMP JUMPDEST SWAP1 POP PUSH2 0x10C3 DUP3 DUP3 PUSH2 0x107C JUMP JUMPDEST SWAP2 SWAP1 POP JUMP JUMPDEST PUSH1 0x0 PUSH8 0xFFFFFFFFFFFFFFFF DUP3 GT ISZERO PUSH2 0x10E3 JUMPI PUSH2 0x10E2 PUSH2 0x104D JUMP JUMPDEST JUMPDEST PUSH2 0x10EC DUP3 PUSH2 0xDD5 JUMP JUMPDEST SWAP1 POP PUSH1 0x20 DUP2 ADD SWAP1 POP SWAP2 SWAP1 POP JUMP JUMPDEST DUP3 DUP2 DUP4 CALLDATACOPY PUSH1 0x0 DUP4 DUP4 ADD MSTORE POP POP POP JUMP JUMPDEST PUSH1 0x0 PUSH2 0x111B PUSH2 0x1116 DUP5 PUSH2 0x10C8 JUMP JUMPDEST PUSH2 0x10AD JUMP JUMPDEST SWAP1 POP DUP3 DUP2 MSTORE PUSH1 0x20 DUP2 ADD DUP5 DUP5 DUP5 ADD GT ISZERO PUSH2 0x1137 JUMPI PUSH2 0x1136 PUSH2 0x1048 JUMP JUMPDEST JUMPDEST PUSH2 0x1142 DUP5 DUP3 DUP6 PUSH2 0x10F9 JUMP JUMPDEST POP SWAP4 SWAP3 POP POP POP JUMP JUMPDEST PUSH1 0x0 DUP3 PUSH1 0x1F DUP4 ADD SLT PUSH2 0x115F JUMPI PUSH2 0x115E PUSH2 0x1043 JUMP JUMPDEST JUMPDEST DUP2 CALLDATALOAD PUSH2 0x116F DUP5 DUP3 PUSH1 0x20 DUP7 ADD PUSH2 0x1108 JUMP JUMPDEST SWAP2 POP POP SWAP3 SWAP2 POP POP JUMP JUMPDEST PUSH1 0x0 DUP1 PUSH1 0x0 PUSH1 0x60 DUP5 DUP7 SUB SLT ISZERO PUSH2 0x1191 JUMPI PUSH2 0x1190 PUSH2 0xD19 JUMP JUMPDEST JUMPDEST PUSH1 0x0 DUP5 ADD CALLDATALOAD PUSH8 0xFFFFFFFFFFFFFFFF DUP2 GT ISZERO PUSH2 0x11AF JUMPI PUSH2 0x11AE PUSH2 0xD1E JUMP JUMPDEST JUMPDEST PUSH2 0x11BB DUP7 DUP3 DUP8 ADD PUSH2 0x114A JUMP JUMPDEST SWAP4 POP POP PUSH1 0x20 PUSH2 0x11CC DUP7 DUP3 DUP8 ADD PUSH2 0xD44 JUMP JUMPDEST SWAP3 POP POP PUSH1 0x40 PUSH2 0x11DD DUP7 DUP3 DUP8 ADD PUSH2 0xE8A JUMP JUMPDEST SWAP2 POP POP SWAP3 POP SWAP3 POP SWAP3 JUMP JUMPDEST PUSH32 0x4E487B7100000000000000000000000000000000000000000000000000000000 PUSH1 0x0 MSTORE PUSH1 0x32 PUSH1 0x4 MSTORE PUSH1 0x24 PUSH1 0x0 REVERT JUMPDEST PUSH32 0x4E487B7100000000000000000000000000000000000000000000000000000000 PUSH1 0x0 MSTORE PUSH1 0x12 PUSH1 0x4 MSTORE PUSH1 0x24 PUSH1 0x0 REVERT JUMPDEST PUSH32 0x4E487B7100000000000000000000000000000000000000000000000000000000 PUSH1 0x0 MSTORE PUSH1 0x11 PUSH1 0x4 MSTORE PUSH1 0x24 PUSH1 0x0 REVERT JUMPDEST PUSH1 0x0 PUSH2 0x127F DUP3 PUSH2 0xD23 JUMP JUMPDEST SWAP2 POP PUSH2 0x128A DUP4 PUSH2 0xD23 JUMP JUMPDEST SWAP3 POP DUP3 PUSH2 0x129A JUMPI PUSH2 0x1299 PUSH2 0x1216 JUMP JUMPDEST JUMPDEST DUP3 DUP3 DIV SWAP1 POP SWAP3 SWAP2 POP POP JUMP JUMPDEST PUSH32 0x4E487B7100000000000000000000000000000000000000000000000000000000 PUSH1 0x0 MSTORE PUSH1 0x22 PUSH1 0x4 MSTORE PUSH1 0x24 PUSH1 0x0 REVERT JUMPDEST PUSH1 0x0 PUSH1 0x2 DUP3 DIV SWAP1 POP PUSH1 0x1 DUP3 AND DUP1 PUSH2 0x12EC JUMPI PUSH1 0x7F DUP3 AND SWAP2 POP JUMPDEST PUSH1 0x20 DUP3 LT DUP2 EQ ISZERO PUSH2 0x1300 JUMPI PUSH2 0x12FF PUSH2 0x12A5 JUMP JUMPDEST JUMPDEST POP SWAP2 SWAP1 POP JUMP JUMPDEST PUSH1 0x0 PUSH2 0x1311 DUP3 PUSH2 0xD23 JUMP JUMPDEST SWAP2 POP PUSH32 0xFFFFFFFFFFFFFFFFFFFFFFFFFFFFFFFFFFFFFFFFFFFFFFFFFFFFFFFFFFFFFFFF DUP3 EQ ISZERO PUSH2 0x1344 JUMPI PUSH2 0x1343 PUSH2 0x1245 JUMP JUMPDEST JUMPDEST PUSH1 0x1 DUP3 ADD SWAP1 POP SWAP2 SWAP1 POP JUMP INVALID LOG2 PUSH5 0x6970667358 0x22 SLT KECCAK256 MULMOD TIMESTAMP ADDMOD 0xB1 PUSH17 0xCB367FBA63651B3AFDC66AF176037AE24B 0xFC PUSH10 0xFC751B97C3AC097A6473 PUSH16 0x6C63430008090033A264697066735822 SLT KECCAK256 0xEA PUSH24 0x54E4268DD73A5FF0640614B6A0FD625219A2C2176530B28E LT SWAP6 PUSH23 0x3A15AA64736F6C63430008090033000000000000000000 "},"gasEstimates":{"creation":{"codeDepositCost":"1659200","executionCost":"1743","totalCost":"1660943"},"external":{"createProject(uint256,string,string,string)":"infinite","deployedProjects(uint256)":"4978","getDeployedProjects()":"infinite"}},"methodIdentifiers":{"createProject(uint256,string,string,string)":"5822a6c7","deployedProjects(uint256)":"9ec6deaf","getDeployedProjects()":"7ac3886e"}},"storageLayout":{"storage":[{"astId":4,"contract":"Project.sol:ProjectFactory","label":"deployedProjects","offset":0,"slot":"0","type":"t_array(t_address_payable)dyn_storage"}],"types":{"t_address_payable":{"encoding":"inplace","label":"address payable","numberOfBytes":"20"},"t_array(t_address_payable)dyn_storage":{"base":"t_address_payable","encoding":"dynamic_array","label":"address payable[]","numberOfBytes":"32"}}},"userdoc":{"kind":"user","methods":{},"version":1}}